:020000040000FA
:020000003E2898
:080008008B1C09000130A0006F
:10001000A00B08280130A100A10B0C288B100301B4
:10002000A20A22081520870009008207090009009A
:100030000900090009000900090009000900090078
:100040000900090009000900090009000900090068
:100050000900090009000900090009000900090058
:100060000900090009000900090009000900090048
:10007000090009000900090009000900831685012B
:100080000130860087014030810083128701A20180
:0C00900007100B168B158B1764004C2812
:00000001FF
