:020000040000fa
:080000000001040000000000f3
:020000040000fa
:100200006fb0200000ff2000000188000000000007
:100210000c000700407c21000100200011000700b5
:10022000000020000000e000020032000000020098
:100230000000000082140200000000000040da000c
:100240000000fe004440a900a00520000000e000de
:100250000300320000002000a00188004440a800f4
:100260000000060091018800800078000000eb008b
:1002700015003700e280400032a0b4009101ba00be
:10028000e280400032a0b4009102ba00e280400057
:1002900032a0b4000002eb00472bde00f507b200ed
:1002a000602ce10004003a000059eb008301e900f2
:1002b000fdff3e00040037006128e100010032002c
:1002c0000082eb00040007001101ba000200e00008
:1002d000e8ff3a00000006003159ba008301e90046
:1002e0000c0032002159ba008301e90008003200f5
:1002f0000400e00003003a00e280400032a0b400b5
:10030000f5ff370011d9ba008301e900faff3a007e
:100310008100e800e180400032a0b4000000060047
:100320000000000000000000881f78000204780030
:1003300014000700080040004f0478000000060089
:100340000000fa00881f7800000478003fb9970089
:10035000ea81570080007800401920001000070053
:10036000800078000000e000020035000040eb0053
:1003700000f47800010078004f0478000080fa0053
:10038000000006008001eb000200370061f07900f8
:100390008301e800828f5100fcff3a000000060054
:1003a0006200fa00889fbe008a9fbe000004be0063
:1003b000020578008300780060f92f000f004000ec
:1003c000b000070088979f0099979f000000eb00fe
:1003d000a09f9f009a4578000b80fb000000ea0078
:1003e000cf04de0050c2b30080cf550002003200bf
:1003f00009047800010037000904e9000800e00062
:100400000b0034001f909700080178008a007800e4
:100410008f9197000300010090979f000000e0007b
:10042000930032002f98970000004400a09f9f0087
:100430000905450050c2b30080cf550004003200ca
:100440000b04e000e3ff3a002f9897008900370083
:100450000000eb00809f9f00f0979f00e0979f00b7
:10046000d0979f00c0979f00b0979f00c09f9f00ac
:100470000900370080af20000080500000004000dd
:10048000c1ae2000e10078004f9897000100700095
:10049000c09f9f000a05e8001a4478008800fb000e
:1004a00080af20007c000700800078000000e000a2
:1004b000f0ff3a00a0c2b300804f54000e003a0093
:1004c000bf8897000180e900b08f9f00100078007e
:1004d000b09f9f000000e00005003d000000ea0022
:1004e000b09f9f004f9897000020a000c09f9f00e2
:1004f0000a05e80010003700b19f9f00090037008f
:10050000bf989700f0ff2700808f50000400320052
:100510006a08b9000000410003004000b09f9f003e
:100520000a05e8001a01fb0003fd2f00030041004b
:10053000e90f5000f2ff3600e0c2b3009a4f1000fe
:10054000040032000080eb00909f9f008a04780036
:100550001c0037008a04e800a0c2b300994f1000c5
:1005600007003a00bf8897000180e900b08f9f0024
:1005700010007800909f9f008a84e80011003700e7
:100580000000eb00909f9f00090037009f989700a4
:10059000f0ff2700808f5000040032006a08b90085
:1005a0000000410003004000909f9f008904e80084
:1005b0001901fb0003fd2f0003004100e90f50006b
:1005c000f2ff3600194478008800fb00e0af2000fd
:1005d000310007000000e00002003a00004478000b
:1005e000010037008904e800a87f9f0080c6b3009f
:1005f000804f540004003a00994f14000a003a005a
:100600006640500006003700c0c6b300804f54005b
:1006100005003a00994f140003003a00654040007d
:10062000a07f9f008904e8000905e800cbfb2f00ac
:100630008f8545001901fb0060f92f000f00400075
:100640000084e8008b0178008000780008007800c2
:100650001a0007000000e00005003a008b00780057
:1006600008007800580107000000e00059ff3d0035
:100670000080eb004f05be004f04be000080fa0072
:10068000000006000200fa00f1bf9f000108780098
:100690000080fa0000000600040037000204e000b9
:1006a00001003a00000005000000e8001041780059
:1006b000814f5100f9ff3a0000000600889fbe00fc
:1006c0008a1f7800000478000102780082447800d4
:1006d00003057800e0c6b300804f5100d20032001d
:1006e00015003c006b405000804f51002400320048
:1006f0000a003c0070405000804f51000f01320052
:1007000065404000804f51007400320050c2b30079
:10071000804f510020013a001c01370040c6b30051
:10072000804f51001b00320065404000804f510057
:1007300019013a001700370030c7b300804f51004d
:10074000fe00320007003c0064405000804f510022
:10075000620032000040e800804f51000e013a0074
:10076000e700370050c7b300804f51005b003200f4
:1007700063404000804f510007013a0057003700a6
:100780009180e900010a780078009000917178006a
:1007900007013700a8609000c0c6b30080cf5000aa
:1007a0000a003a009400780064805000000a780043
:1007b0001000be004f89de00cf91de000002be00b7
:1007c00002037800820378001300370010c7b300db
:1007d00080cf500003003200a0c6b30080cf50008d
:1007e00006003a009400780068805000000a780003
:1007f0003002be002003be00070037001480e9006d
:10080000000a78001000780000027800cfa2de0015
:100810000503780086037800049cbe000694be00a1
:10082000a860900080c6b30080cf50000e00320058
:1008300020c6b30080cf500005003a000400fb0042
:10084000cf80de0001017800820178000a003700c5
:1008500040c7b30080cf5000030032006640400024
:1008600080cf500006003a0004007800cf80de0000
:100870000101780082017800009cbe000294be0055
:100880003800be002801be00e00f5000e08f580085
:10089000e00f5900e08f590003003d007800900000
:1008a000d1c2b3000a003700081090000018a3005e
:1008b0000300320078009000b1c2b300040037009a
:1008c0000008a300530032007800900001c2b3007a
:1008d000017578000000e8004d003700a860900026
:1008e000c0c6b30080cf500006003a0094007800e4
:1008f00064805000000a78001002be006033b80027
:100900001300370010c7b30080cf5000030032003f
:10091000a0c6b30080cf500006003a0094007800d3
:1009200068805000000a78003002be002003be003c
:10093000070037001480e900000a780010007800f2
:1009400000027800050020000600200007002000bb
:10095000049cbe000694be00a860900080c6b30050
:1009600080cf50000e00320020c6b30080cf500070
:1009700005003a000480fb00010020000200200076
:10098000030020000a00370040c7b30080cf5000aa
:10099000030032006640400080cf500006003a005d
:1009a0000400780001002000020020000300200065
:1009b000009cbe000294be00081090000038a30006
:1009c000140032003800be002801be00e00f5000c5
:1009d000e08f5800e00f5900e08f59000d00320001
:1009e00080c7b30080cf54000300320080c5b3003d
:1009f00080cf540007003a007800900001c3b30094
:100a0000017578008000e80009f578000080e800b2
:100a10007004980078009000000045006004980081
:100a20008940780042003700a8609000c0c6b3003b
:100a300080cf5000250032000a003c006440500086
:100a400080cf50002800320000c0e80080cf500066
:100a5000140032006840500080cf500022003a005d
:100a60000a00370040c7b30080cf50001e0032009c
:100a70006640400080cf50001b00320069405000ab
:100a800080cf500018003a00060037001480e900bb
:100a9000000a780010007800485c90000848780050
:100aa000450037001480e900000a78001002780041
:100ab00068089000cf80de00010178008201780094
:100ac000009abe000292be003b0037001480e9008d
:100ad000000a78001001780068089000cf80de00de
:100ae0000089be00340037001480e900000a780055
:100af00010007800680c9000080878002e0037007d
:100b00001180e9008008780010007800cf80de00b6
:100b10000101780082017800009cbe000294be00b2
:100b200078009000000045006004980081c7b30081
:100b300008007800ee0007001f0037001480e9006d
:100b4000000a7800100078006004980058099000ae
:100b50000200e00002003d007202070009003700b9
:100b60008000eb0076020700800078000000e000c3
:100b70000300320068009000008050000100370040
:100b800058089000100c98000b0037007800900077
:100b9000027578000600370078009000800045005c
:100ba0000904e00001003a0059c2b3008948780006
:100bb0000000e800700498000000eb004f0578008a
:100bc0004f04be00000006000400fa00889fbe002b
:100bd0008a9fbe008c1f7800000478000106780010
:100be00070089000f8009000010050008808900004
:100bf000010050009808900001005000a8089000e3
:100c000001005000b808900001005000c808900092
:100c1000810550000002220090bf9f0000032300c6
:100c2000a0bf9f00081090000028a30018003a0001
:100c30000b00e000160034008b04780009057800f2
:100c4000e28f5400020036002a0020000200370024
:100c50000900e0000b00340058009000c80190002b
:100c60000a017800ee80570003000100500498004c
:100c70000000e00096003200680890000000450087
:100c8000600c98008a8454004240a900ebff3c00ad
:100c9000780190000200e0000b0034005800900042
:100ca000c80190008c0078000300010050049800f7
:100cb0000000e0008600320068089000f800900014
:100cc00001004000600c9800880c90000900e000d2
:100cd0001500340009057800e28f54000200360048
:100ce0002a002000020037000900e0000b00340059
:100cf00058009000c80190000a017800ec8057006d
:100d000003000100500498000000e0007000320071
:100d10006808900000004500600c98008a84540028
:100d20004240a900ebff3c00180990000200e000df
:100d30000b003400e800900058009000c8019000bb
:100d400003000100500498000000e0006000320041
:100d5000680890009808900001004000600c98001e
:100d6000a80c90000900e000150034000905780087
:100d7000e28f5400020036002a00200002003700f3
:100d80000900e0000b00340058009000c8019000fa
:100d90000a017800ec80570003000100500498001d
:100da0000000e0004a0032006808900000004500a2
:100db000600c98008a8454004240a900ebff3c007c
:100dc000380990000200e0000d003400e8009000b7
:100dd000180890008080400058009000c8019000e2
:100de00003000100500498000000e00038003200c9
:100df00068089000b808900001004000600c98005e
:100e0000c80c90000900e0001500340009057800c6
:100e1000e28f5400020036002a0020000200370052
:100e20000900e0000b00340058009000c801900059
:100e30000a017800ec80570003000100500498007c
:100e40000000e00022003200680890000000450029
:100e5000600c98008a8454004240a900ebff3c00db
:100e6000081090000028a3001b0032000b00e000d7
:100e7000190034008b04780009057800e28f5400d3
:100e8000020036002a002000020037000900e000be
:100e90000b00340058009000c80190000a0178004f
:100ea000ee80570003000100500498000000e000ad
:100eb000070032006808900000004500600c9800b0
:100ec0008a8454004240a90003003400eaff37003e
:100ed0000080eb00010037000000eb004f067800b7
:100ee0004f05be004f04be000080fa00000006005f
:100ef0002f03b000889fbe008a9fbe008c9fbe005b
:100f00008e1f780000077800b0ad2000c0b79f00aa
:100f100080c5b30080cf500008003200a2ac200092
:100f2000c2b79f007740400080cf500003003a00d6
:100f300083002000b3b79f000a00370080c7b300ca
:100f400080cf500005003200a4002000b4b79f00fd
:100f500080c5b30080cf500002003a000501200098
:100f6000b5b79f003e04be002e05be0040c6b300cc
:100f700080cf5000030032006540400080cf500019
:100f80000b003a00e00f5400e08f5c00e00f5d00c2
:100f9000e08f5d0006003d006000b8006011b80001
:100fa00008045000898458000a0559008b855900af
:100fb0003fb19700e80f510003003200f00f5100dd
:100fc00045003a00020037003c00200001003700d5
:100fd0004c002000e00f5400e08f5c00e00f5d004b
:100fe000e08f5d0005003a005e089000830120005c
:100ff000a3b79f000000e000080032003fb2970056
:101000000400e90008006000cfb297006540780056
:1010100090df9f0070012000a0b79f008c00780037
:101020008100e900050033008b05d1000a85d3005b
:101030008984d3000884d300f9ff3700089fbe00dd
:101040000a97be002fb197000200e90023fc2f0091
:101050008f81410000844100140037002fb09700b9
:101060000000e900a0b79f003fb197000200e9002f
:1010700004006000cfb19700635478003e00be00ca
:101080002e01be000c0278000402e90005003300c6
:101090008381d1000281d3008180d3000080d300fe
:1010a000f9ff3700009fbe000297be003e02be005f
:1010b0002e03be00e00f5200e08f5a00e00f5b00ed
:1010c000e08f5b00da0034002fb097000000e000f2
:1010d000e2ff3c00d6003700ae60900080c6b3004f
:1010e00080cf50000b00320006003c000104e000fd
:1010f000080032006640500080cf500073003a0074
:1011000004003700c0c6b30080cf50006f003a0023
:1011100031003700080178000800e00005003a00bf
:101120005e08900081012000a1b79f000000e00050
:1011300009003200bfb19700110009000381d800f7
:101140008000fd004fb297006440780090df9f0060
:1011500075012000a5b79f003fb29700110009005c
:101160000481d80080017800afb297000500e90043
:1011700021fc2f008f804000008240000c003700cf
:10118000bfb29700110009008501d8000001780066
:101190002fb097000000e900a0b79f000590b900ac
:1011a00000805100cfb09700615278008201780032
:1011b0000300e000030034002fb197000200e000bc
:1011c000efff3c0003007800cf80de0001017800d3
:1011d000820178003a0037000806be00e00f540094
:1011e000e08f5c0005003a005e089000830120005b
:1011f000a3b79f000000e000090032003fb2970053
:101200006121b9000c00be00dd000700cfb29700dd
:101210006540780090df9f0070012000a0b79f001c
:101220003fb297006121b9000c00be00d700070053
:101230000006be00afb297000500e90021fc2f00b8
:101240008f8040008080400091b79f0011003700e0
:101250003fb197006114b9000801be000c00be0048
:10126000da0007000005be00afb197008301e90076
:10127000a3b79f000801be00bb0007000000560096
:101280001fb29700cfb297006552780094b79f00c5
:101290000a06be00e00f5600e08f5e000300340037
:1012a0002fb097000000e000e9ff3c004feade00ad
:1012b000cfa2de000c00be0004017800840178009b
:1012c000009fbe000297be0059003700e00f540097
:1012d000e08f5c00e00f5d00e08f5d0005003a00ec
:1012e0005e08900081012000a1b79f000000e0008f
:1012f0000d0032003fb1970002027800cfa2de005d
:1013000005037800860378000800be000a01be00cd
:101310003e0107004fb297006440780090df9f00c5
:1013200075012000a5b79f003fb197000202780029
:10133000cfa2de0005037800860378000800be0017
:101340000a01be002a010700009fbe000297be00ee
:10135000afb197000300e90024fc2f000f02420008
:101360000006420024003700bfb297000504780051
:10137000cfc4de00090578008a0578000802be00a7
:101380000a03be005fa89700efa897007fa9970007
:101390008fb1970021010700d0b79f00e1b79f00f0
:1013a000f2b79f0083bf9f002fb097000000e900b5
:1013b000a0b79f000802be000a03be005fb09700fe
:1013c000efb097007fb197008fb9970099010700a0
:1013d0005faa970000005200cfb2970065567800d0
:1013e0005fb09700efb097007fb197008fb997007b
:1013f000009fbe000297be003e00be002e01be0050
:10140000d0af9f00e1af9f00f2af9f0083b79f0076
:10141000e00f5000e08f5800e00f5900e08f5900b6
:1014200003003400afb097000100e000ceff3c00a5
:101430003fb19700e80f510013003a000e109000e2
:101440000038a30010003200afb19700f78f5100b1
:1014500006003e0024fc2f000f02420083004200e1
:1014600000c3b300914f100007003200afb29700e5
:101470008502e900a5b79f0000c3b30021fc2f003f
:101480008f80400080f07a00afb197007881110022
:10149000120f98006e00900024fc2f000f024200f3
:1014a00083004200b7fb07001e0990005e08900011
:1014b000800f510006003d0002005000000f980010
:1014c0000e1090000040a100001798000f00370098
:1014d0000000e0000d003d000e1090007400600060
:1014e000f00f500009003a007e089000fe009000c6
:1014f000010050008e0890000100500002005000d2
:101500004240a90001003400000f98004f07780006
:101510004f06be004f05be004f04be002f03b100b2
:101520000000060080007800010037000000e8009d
:101530001004e000fdff3a0001005000000006002a
:101540008001eb00040037008301e80090cf100019
:10155000040032000000e800828f5100faff3a00d8
:101560000000eb0000000600020ab900001bb900f1
:101570000200b80081004200810043000000060024
:10158000020007000400be00000006006022b80050
:10159000060220000000d0008180d2000482d20028
:1015a0008582d2000000a0000202520083825a000d
:1015b000030031000202420083824a000000a100c1
:1015c0000603e900f3ff3a0000000600839f68006d
:1015d0000100e00002003d0060001000e080180003
:1015e0000300e00002003d0060011100e0811900ed
:1015f000e6ff07004f00e00002003b006000100023
:10160000e080180000000600881f780000047800c1
:101610005001be004000be0004004000858048002c
:101620000601490087814900009cbe000294be006b
:101630000400e1000588e1000690e1000798e10060
:1016400002003100680044001008e8004f047800f0
:1016500000000600f4874700889fbe008a9fbe00f6
:101660008c9fbe008e1f78000205be000004be00e5
:10167000d4b79f00e5b79f00f6b79f0087bf9f00d4
:101680000000eb00c0b79f00b0b79f00a0b79f005d
:1016900090b79f0080b79f000d042000bfb0970057
:1016a0004fb09700000140000000e0000f003d0037
:1016b0004f08de0000007100c0b79f009e000700c9
:1016c00001003d0012002000a100070001003d00c4
:1016d00012002000a6000700b1000700b6000700b6
:1016e0000f004000c8ff0700220037004f08de004f
:1016f00000067100ccb79f008f00070001003d007d
:10170000120020009200070001003d00120020009e
:1017100097000700a20007000fb297009fb2970042
:101720002fb39700bfb39700a90007000000520035
:1017300081805a0002015b0083815b0080b79f00bb
:1017400091b79f00a2b79f00b3b79f000007eb00bf
:101750009f0007000020e10001a8e10002b0e100c5
:1017600003b8e100010031001e0020000e00560009
:10177000c0b79f004fb297000400e000070035009b
:1017800010002000010020006011b8000804700063
:10179000898470000a0571008b8571008d06e9004f
:1017a000beff3a000400e00003003d008200070095
:1017b0000f00400094ff07004fa897000000e000d2
:1017c00004003a000fb497009fb497002fb597001c
:1017d000bfb59700940007004f0778004f06be0082
:1017e0004f05be004f04be004f01b10000000600cf
:1017f000881f780018002000881f780095ff0700d8
:101800008f87e9004f04780000000600801feb007e
:1018100090ff07008f87e90000000600889fbe0048
:101820008a9fbe008c1f78006e00070007003d00f5
:1018300073000700e00f5b00e08f5b0007003d00d6
:10184000320007000006eb000400370034000700f8
:1018500002003d002a0007001c0020007200070063
:10186000e3ff07000203be000002be000c00e00020
:1018700001003200220007000400be000601be0085
:101880004f0678004f05be004f04be000000060062
:10189000889fbe008a9fbe008c1f78005100070001
:1018a00005003d0056000700e00f5b00e08f5b0085
:1018b00006003d00040037001900070003003d004a
:1018c0006000b8006011b800100007005600070063
:1018d000ceff07000203be000002be000c00e000c5
:1018e00001003200060007000400be000601be0031
:1018f0004f0678004f05be004f04be0000000600f2
:101900006000b8006011b800000037000402500009
:10191000858258000603590087835900000006009d
:101920000006eb00e00f5200e08f5a00e00f5b0072
:10193000e08f5b00000006000180400090b79f0030
:101940000001eb008fb097000100e00000000600ee
:101950000200700090b79f000180400080b79f0098
:101960000001eb00ffa897000100e0000000060066
:101970000200700080b79f00018040006faa9700ae
:10198000cf20de0001007000f0af9f000402420093
:10199000250007004f18de0000027200000006005c
:1019a000e4af9f000804440089844c000a054d0000
:1019b0008b854d00000006003fb29700cfb2970024
:1019c0005fb39700efb3970000fe2f000000060002
:1019d0003fb09700cfb097005fb19700efb197008d
:1019e000000006000205be000004be00e00f50002b
:1019f000e08f5800e00f5900e08f5900000006000a
:101a00006000b8006011b8000804500089845800d4
:101a10000a0559008b8559001c002000e00f520078
:101a2000e08f5a00000006000800be000a01be0058
:101a300000000600889fbe008a9fbe008c1f7800b1
:101a40000205be000004be000006eb00e00f5000df
:101a5000e08f5800e00f5900e08f590007003d006b
:101a60006000b8006011b800080450008984580074
:101a70000a0559008b8559001c002000e00f520018
:101a8000e08f5a00e00f5b00e08f5b0002003d003a
:101a90000f0007000c00a2000800be000a01be00f3
:101aa000120007000203be000002be000c00e000ae
:101ab00001003200060007000400be000601be005f
:101ac0004f0678004f05be004f04be000000060020
:101ad0006000b8006011b800040250008582580010
:101ae000060359008783590000000600889fbe0046
:101af0008a9fbe008c9fbe000404b8000506b80093
:101b00008904460060854e000606b8000a054600b6
:101b1000e0854e000706b8008b054600040eb800ad
:101b2000890446000a854e00e0854d00050eb80088
:101b30000a0546008b854e00060eb8008b05460050
:101b40000416b8000a0546008b854e000516b8003d
:101b50008b054600041eb8008b0546000800be0039
:101b60000a01be004f06be004f05be004f04be0076
:101b7000000006000021ef001108880020088800fe
:101b8000000006000621ef00610888008008880038
:101b90001061a900000006000a21ef00710888000a
:081ba000900888000000060017
:020000040000fa
:10000800861500008615000086150000861500007c
:10001800861500008615000086150000861500006c
:10002800f015000086150000861500008c150000ec
:100038008615000086150000861500004c16000085
:10004800861500008615000086150000dc150000e6
:10005800861500008615000086150000861500002c
:10006800861500008615000086150000861500001c
:100078008615000076160000861500001e16000082
:1000880086150000861500008615000086150000fc
:1000980086150000861500008615000086150000ec
:1000a80086150000861500008615000086150000dc
:1000b80086150000861500008615000086150000cc
:1000c80086150000861500008615000086150000bc
:1000d80086150000861500008615000086150000ac
:1000e800861500008615000086150000861500009c
:0800f8008615000086150000ca
:020000040000fa
:10010800861500008615000086150000861500007b
:10011800861500008615000086150000861500006b
:10012800f015000086150000861500008c150000eb
:100138008615000086150000861500004c16000084
:10014800861500008615000086150000dc150000e5
:10015800861500008615000086150000861500002b
:10016800861500008615000086150000861500001b
:100178008615000076160000861500001e16000081
:1001880086150000861500008615000086150000fb
:1001980086150000861500008615000086150000eb
:1001a80086150000861500008615000086150000db
:1001b80086150000861500008615000086150000cb
:1001c80086150000861500008615000086150000bb
:1001d80086150000861500008615000086150000ab
:1001e800861500008615000086150000861500009b
:0801f8008615000086150000c9
:020000040000fa
:101ba8004775000061720000646100007220000047
:101bb800656e00003a250000303200006420000005
:101bc80020200000004d00006564000069630000eb
:101bd800696f00006e2000004eba0000253000003a
:101be800326400002020000020000000486100004e
:101bf800792000002530000032640000204d0000ec
:101c08006564000069630000696f00006e6500008c
:101c1800004200006f720000726100007220000034
:101c28004d650000642000004eba000025640000e5
:101c3800002500003034000064200000253000003a
:101c480035640000202500003035000064200000c5
:041c58000000000088
:020000040000fa
:101c5c000000fa000080fa00000006000200fa0002
:101c6c00000000000000000087cabf000080fb00dd
:101c7c00000f78001e007800e40f50002d00320099
:101c8c001e007800e40f500011003c001e0078008c
:101c9c00e10f50001e0032001e007800e10f5000d2
:101cac0004003c001e0078000000e000150032002b
:101cbc00530037001e007800e20f5000170032006e
:101ccc001e007800e30f5000170032004c00370064
:101cdc001e007800e60f5000300032001e00780025
:101cec00e60f5000160035001e007800e70f50007c
:101cfc002d0032001e007800e80f50003e0032002c
:101d0c003f00370030c0b30087eab7003c00370013
:101d1c0060c0b30087eab7003900370070c0b30069
:101d2c0087eab7003600370040c0b30087eab70037
:101d3c003300370050c0b30087eab70030003700db
:101d4c00e4c9bf000040e800e4e9b700e5c9bf0002
:101d5c000080fb00c200dd00208520008080400058
:101d6c00110078000000a00080087800e5c9bf00d1
:101d7c008080fb00e6c9bf000081fb004208dd004b
:101d8c008080e80020852000008040000208780058
:101d9c000040eb0087eab700190037000040eb0069
:101dac0087eab70016003700e4c9bf000004e00062
:101dbc0003003a000040eb0087eab7001000370040
:101dcc00e4c9bf000040e900e4e9b700e5c9bf0081
:101ddc000080fb00c200dd002085200080804000d8
:101dec00110078000000a1008008780080c0b300ca
:101dfc0087eab7000200370020c0b30087eab700bb
:101e0c000080fa00000006000200fa0087cabf003a
:101e1c000080fb00000f78001e007800e50f5000da
:101e2c001a0032001e007800e50f500007003c003d
:101e3c001e007800e30f50000e0032001e007800e8
:101e4c00e40f50000e0032001b0037001e0078001b
:101e5c00e70f5000130032001e007800e70f50000f
:101e6c000d0035001e007800e80f50001000320005
:101e7c00110037000040eb0087eab7000e00370076
:101e8c000040eb0087eab7000b0037000040eb0086
:101e9c0087eab7000800370010c0b30087eab70024
:101eac000500370020c0b30087eab70002003700f6
:101ebc0020c0b30087eab7000080fa0000000600db
:101ecc000000fa0087cabf00e44f50001f003a0020
:101edc00e5c9bf000040e800e5e9b700519e2000cd
:101eec009140780030c6b30080cf50000e00360011
:101efc0010c0b300e5e9b7000b003700519e20007d
:101f0c009140780030c6b30080cf500003003a00f7
:101f1c0010c0b300e5e9b70003003700e5c9bf0006
:101f2c000040e800e5e9b700e5c9bf000080fb0010
:101f3c00c200dd00208520000080400010007800e9
:101f4c0061406000e14f5000ecff320087cabf00d7
:101f5c00e74f50001f003a00e5c9bf000040e80001
:101f6c00e5e9b700519e20009140780030c6b300df
:101f7c0080cf50000e00360010c0b300e5e9b7006a
:101f8c000b003700519e20009140780030c6b30002
:101f9c0080cf500003003a0010c0b300e5e9b70051
:101fac0003003700e5c9bf000040e800e5e9b700d1
:101fbc00e5c9bf000080fb00c200dd0020852000c9
:101fcc000080400010007800614060000004e000d8
:101fdc00ecff32000080fa00000006000000fa005e
:101fec0087cabf00e44f50001b003a00e5c9bf0090
:101ffc000040e900e5e9b700e5c9bf000004e000d6
:10200c000c003a0030c6b300e5e9b7000900370010
:10201c00e5c9bf00e14f500003003a0030c6b300e1
:10202c00e5e9b70003003700e5c9bf000040e9004f
:10203c00e5e9b700e5c9bf000080fb00c200dd0088
:10204c002085200000804000100078006140600076
:10205c00e14f5000eeff320087cabf00e74f50003f
:10206c001b003a00e5c9bf000040e900e5e9b700f4
:10207c00e5c9bf000004e0000c003a0030c6b30014
:10208c00e5e9b70009003700e5c9bf00e14f500092
:10209c0003003a0030c6b300e5e9b700030037008f
:1020ac00e5c9bf000040e900e5e9b700e5c9bf009c
:1020bc000080fb00c200dd00208520000080400075
:1020cc0010007800614060000004e000eeff320078
:1020dc000080fa00000006000200fa0087cabf0068
:1020ec000080fb00000f78001e007800e10f50000c
:1020fc000a0032001e007800e20f50000a00320085
:10210c001e0078000000e0000100320008003700db
:10211c0010c0b30087eab7000500370020c0b30039
:10212c0087eab700020037000040eb0087eab700ef
:10213c000080fa00000006000200fa0087cabf0007
:10214c000080fb00000f78001e007800e10f5000ab
:10215c000a0032001e007800e20f50000a00320024
:10216c001e0078000000e00001003200080037007b
:10217c0020c0b30087eab700050037000040eb0031
:10218c0087eab7000200370010c0b30087eab70037
:10219c000080fa00000006000400fa00cb010700e2
:1021ac0087cabf000080fb00100798001e0090003b
:1021bc00e50f50001d0032009e009000e58f50008e
:1021cc0004003c001e009000e40f50000800320098
:1021dc00430037009e009000e78f50002200320031
:1021ec001e009000e80f50002e0032003c0037001b
:1021fc00b6010700e5c9bf000000fb0081a8200064
:10220c00801f780040dd2800801f780001007800d6
:10221c0048f80700e487570082a820008040eb00b4
:10222c000040eb008401070039003700a7010700cc
:10223c00e5c9bf000000fb0081a82000801f7800ca
:10224c0070de2800801f78000100780039f8070044
:10225c00e487570082a820008040eb000040eb0090
:10226c00750107002a00370098010700e4c9bf0078
:10227c000000fb0081a82000801f7800a0df280050
:10228c00801f7800010078002af80700e4875700c7
:10229c0082a820008040eb000040eb0066010700a4
:1022ac001b00370089010700e5c9bf000000fb00d7
:1022bc0081a82000801f780070de2800801f780025
:1022cc00010078001bf80700e487570082a8200063
:1022dc008040eb000040eb00570107000c0037007a
:1022ec0087cabf000080fb007100b9008000780035
:1022fc00e09e2000008040008042880080428000e8
:10230c00000178008040eb000040eb004a01070020
:10231c0087cabf000080fb00000f78009e00780089
:10232c00e68f50002e0032001e007800e60f5000a1
:10233c0005003c009e00780060804000e40f5000d7
:10234c0035003e00130037001e007800e70f5000e8
:10235c0001003200300037005c010700e5c9bf0006
:10236c000000fb0081a82000801f7800d0e028002e
:10237c00801f780001007800eef70700e487570013
:10238c0082a8200011c0b3000040eb002a01070016
:10239c002e003700604f800000017800504f800005
:1023ac0080007800404f800083a82000821f7800b6
:1023bc00811f7800801f7800d0e12800801f7800f2
:1023cc0003007800dbf70700e887570082a820009d
:1023dc0011c0b3000040eb00170107001b003700d1
:1023ec003a01070087cabf000080fb007100b900ea
:1023fc0080007800f09f2000008040008042880020
:10240c00804280000001780011c0b3000040eb0056
:10241c00090107000d0037002c01070087cabf0017
:10242c000080fb007100b90080007800e09e200065
:10243c0000804000804288008042800000017800cb
:10244c0011c0b3000040eb00fb0007000080fa0055
:10245c00000006000200fa00000f78000080fa006d
:10246c00000006000000fa00007d20005a0307005f
:10247c0000c3b30022000700401f200056030700d2
:10248c0000c3b3001e000700401f200052030700ca
:10249c0000c3b3001a000700401f20004e030700c2
:1024ac0080c3b3000e00070040c1b3000c0007004e
:1024bc00c0c0b3000a00070010c0b300080007003a
:1024cc0060c0b300060007000040eb00c6eab7008e
:1024dc000040eb00c7eab7000080fa0000000600dd
:1024ec000200fa00004f78000c000700e082a900ff
:1024fc001e407800310007000080fa000000060042
:10250c000200fa00004f7800e082a9001e4078001b
:10251c002a0007000080fa00000006000200fa0002
:10252c000040eb00004f78001e003700e082a9004d
:10253c00d462a800e0a2a800000000000000000087
:10254c00d4c2bf00644060000004e00002003a0006
:10255c0010c0b300004f7800000000000000000025
:10256c000000000000000000e0a2a9000000000034
:10257c00000000000000000000000000000000004f
:10258c0000000000e0a2a800000000000000000015
:10259c00000000000000000000000000000000002f
:1025ac00e0a2a9001e04e000e0ff3200e0a2a900b6
:1025bc00d462a9000080fa00000006000200fa00b4
:1025cc00004f7800c702a900c722a900c742a90082
:1025dc00c762a900c782a900d202a900d222a90011
:1025ec00d242a900d462a9001e00fb006100600069
:1025fc000004e00002003200c902a800010037000c
:10260c00c902a9001e00fb000000d100610060009f
:10261c000004e00002003200c922a80001003700cb
:10262c00c922a9001e00fb004200de006100600010
:10263c000004e00002003200c942a800010037008b
:10264c00c942a9001e00fb004300de0061006000cf
:10265c000004e00002003200c962a800010037004b
:10266c00c962a9001e00fb004400de00610060008e
:10267c000004e00002003200c982a800010037000b
:10268c00c982a9001e00fb004500de00610060004d
:10269c000004e00002003200d402a8000100370060
:1026ac00d402a9001e00fb004600de0061006000a1
:1026bc000004e00002003200d422a8000100370020
:1026cc00d422a9001e04e00002003d00d442a80060
:1026dc0001003700d442a900e0a2a80000000000cd
:1026ec0000000000000000000000000000000000de
:1026fc0000000000e0a2a9000000000000000000a3
:10270c0000000000000000000000000000000000bd
:10271c00c702a800c722a800c742a800c762a80029
:10272c00c782a800d202a800d222a800d242a800d8
:10273c000080fa00000006000200fa00004f78004a
:10274c0076ff0700e082a8001e4078009bff070080
:10275c000080fa00000006000400fa00000f780068
:10276c002f0037001e00780010407800f2ff0700a1
:10277c001e0fe800c6cabf000040e800c6eab7005a
:10278c00c6cabf00ef4f5000250036000040eb00da
:10279c00c6eab700c7cabf000040e800c7eab700e6
:1027ac00c7cabf00e14f5000020036000040eb00ea
:1027bc00c7eab700c7cabf000080fb00100798002b
:1027cc001e0090000000e000040032001e0090008b
:1027dc00e10f500004003200050037000040eb0010
:1027ec00c8eab7000200370000c4b300c8eab7005b
:1027fc0081ac200091407800c6cabf0000c04000e8
:10280c00c8eab700c8cabf008040780000c8b3004f
:10281c0000c04000c8eab700c8cabf0030ff0700bc
:10282c001e007800104078000004e000cdff3a0054
:10283c000080fa00000006000800fa00204798000b
:10284c0031479800220798000040eb00004f7800b9
:10285c002e409000c6eab7003e409000c7eab70091
:10286c00c7cabf000080fb00300798003e009000f4
:10287c000000e000040032003e009000e10f500028
:10288c0004003200050037000040eb00004f7800d8
:10289c000200370000c4b300004f7800c6cabf0066
:1028ac001e4f40009e40780000c8b30000c040009e
:1028bc00004f78001e40780009ff07002e009000a2
:1028cc00a5ff07000080fa00000006000000fa00d7
:1028dc0082a820008040eb000040eb00d6ff0700f0
:1028ec0092a9200011c0b3000040eb00d2ff0700fa
:1028fc000080fa00000006000000fa000040eb0027
:10290c00beeab7000040eb00c4eab70040c6b30013
:10291c00c3eab700bc0aa900bc2aa900b60aa900e0
:10292c00b80aa900ba0aa900b62aa800b82aa800b1
:10293c00ba2aa80000c0eb00b7eab70040c1b30048
:10294c00b9eab700c0c3b300bbeab700d105200099
:10295c0090f92f0084fc0700f10f2000d0f92f0014
:10296c0085fc07008080eb00d0f9270087fc07006e
:10297c00a1c2bf003040b300a1e2b700a0c2bf00ab
:10298c007f40600001c4b30001407000a0e2b700ba
:10299c00a042a800a3c2bf007f406000a3e2b70022
:1029ac00212a200091407800c0c3b30000c0700001
:1029bc00a2e2b700a222a900412a2000914078008f
:1029cc00f0c3b30000c07000a4e2b700a5c2bf0002
:1029dc00f041b300a5e2b7001000200030158800cc
:1029ec000000eb00501588000080eb0040158800bb
:1029fc00a802a900a822a900a1e2a800300020008a
:102a0c0030168800002020009016880050202000ee
:102a1c00f016880093fe070081e0a90083e0a9006e
:102a2c0010002100a004880000202100b0048800c0
:102a3c0000002300c004880010002000e00488007f
:102a4c0000112100f00488000000eb002004880035
:102a5c000000eb00300488000000eb00400488000c
:102a6c009080280060048800000820007004880012
:102a7c000000eb008004880000003700b055800097
:102a8c00620060000000e00007003200b0558000da
:102a9c00610060000000e00003003200befd070092
:102aac00b60aa900f5ff3700c0558000620060002f
:102abc000000e00007003200c0558000610060009b
:102acc000000e000030032009a000700b80aa900d9
:102adc00eaff3700d0558000620060000000e00083
:102aec00e6ff3200d0558000610060000000e0007d
:102afc00e2ff3200f7000700ba0aa900dfff370037
:102b0c000000fa000080fa0000400600801f7800e8
:102b1c003400f80000002000a00188000000fa003a
:102b2c008460a900b7cabf000040e900b7eab7004b
:102b3c00b7cabf000004e00003003a00b60aa800c0
:102b4c0000c0eb00b7eab700b9cabf000040e9000b
:102b5c00b9eab700b9cabf000004e00003003a00ac
:102b6c00b80aa80040c1b300b9eab700bbcabf009d
:102b7c000040e900bbeab700bbcabf000004e0009c
:102b8c0003003a00ba0aa800c0c3b300bbeab700fe
:102b9c00a05580000000e900a05588000080fa00d4
:102bac003400f9004f007800004006003400f800b3
:102bbc00881f780008002000a80188004f047800c6
:102bcc000000fa008560a9000080fa003400f900ca
:102bdc00004006003600f800809fbe00829fbe00b9
:102bec00849fbe00869fbe003400f80000002000c9
:102bfc00a00188000000fa008400a900e0558000c4
:102c0c00620060000000e0000100320062fd07007d
:102c1c000080fa003400f9004f03be004f02be00e2
:102c2c004f01be004f00be003600f9000040060008
:102c3c003600f800809fbe00829fbe00849fbe00bd
:102c4c00869fbe003400f80000002000a001880020
:102c5c000000fa0086e0a900e055800061006000e9
:102c6c000000e000010032004bfd07000080fa007c
:102c7c003400f9004f03be004f02be004f01be00ee
:102c8c004f00be003600f90000400600809fbe00d9
:102c9c003400f80000002000a00188000000fa00b9
:102cac0084e0a900aecabf000040e800aeeab7005d
:102cbc00e1aa20009140780030c6b30080cf5000cc
:102ccc0001003600bc2aa8000000eb005008880068
:102cdc000080fa003400f9004f00be0000400600ee
:102cec00809fbe003400f80000002000a001880086
:102cfc000000fa0086a0a900afcabf000040e8009f
:102d0c00afeab700e1aa20009140780030c6b300ca
:102d1c0080cf500001003600bc0aa8000000eb0078
:102d2c00a00888000080fa003400f9004f00be00b3
:102d3c00004006000400fa0040168000000f7800e6
:102d4c003016800010079800008021003016880093
:102d5c000000eb004016880000010700c902a90022
:102d6c00c922a900c942a900becabf000040e800a0
:102d7c00bfeab700bfcabf000040e900bfeab70016
:102d8c00bfcabf000004e00001003a00c902a8005d
:102d9c00bfcabf000040e900bfeab700bfcabf000e
:102dac000004e00001003a00c922a800bfcabf001d
:102dbc000040e900bfeab700bfcabf000004e00052
:102dcc0001003a00c942a800bfcabf0000c0e80019
:102ddc00bfeab70040c6b300c0eab700c9c2bf0023
:102dec00684060000004e000020032000040eb008c
:102dfc00c0eab700c9c2bf00704060000004e00028
:102e0c000200320030c0b300c0eab70001ac2000b1
:102e1c009140780040c6b30080cf50001f003200b4
:102e2c00f1ab200091407800c0cabf0000c0400048
:102e3c00c2eab70021ac200091407800c3cabf00a1
:102e4c0080cf500012003a00c1cabf000040e80019
:102e5c00c1eab700c1cabf00f44f50001b003a00d2
:102e6c000040eb00c1eab70051ac20009140780063
:102e7c0040c6b30080cf500014003a00c3cabf0054
:102e8c00c4eab700c3cabf00c5eab7000f003700d9
:102e9c00c2cabf00c3eab7000c00370040c6b3007b
:102eac00c4eab70040c6b300c5eab700becabf004b
:102ebc000040e800beeab700becabf00e34f5000b6
:102ecc0002003a000040eb00beeab7000080fa00b6
:102edc00000006000200fa00c4cabf000080fb001c
:102eec00000f78001e007800e20f50001400320032
:102efc001e007800e20f500007003c001e00780016
:102f0c000000e000140032001e007800e10f5000b9
:102f1c000f003200150037001e007800e40f50003f
:102f2c000f0032001e007800e40f50000600350040
:102f3c001e007800e50f50000b0032000b0037002c
:102f4c0046fb070009003700ddfb070007003700d0
:102f5c0022fc0700050037005ffc07000300370068
:102f6c0075fc070001003700a7fb070040c6b30043
:0c2f7c00c4eab7000080fa000000060064
:020000040000fa
:102f8800be0a00000800000000000000880a0000d7
:102f98002200000002000000202020002020200045
:102fa80020202000202020002020200020002000b9
:102fb8002020200020202000202020002020200089
:102fc8002020200000000000c60a000004000000c5
:102fd80000000000aa0a0000140000000000000021
:102fe800e4090000a400000002000000000109003c
:102ff800005203001900140000546f006d61720044
:10300800204d650064696300696f6e002020000030
:1030180054617200617220002020200020202000ce
:1030280020202000200042006f7272006172200090
:10303800202020002020200020202000004f6b00ae
:103048002070610072612000746572006d696e0005
:103058006172000000000000000000000000000095
:1030680000000000000000000000620069656e00ba
:1030780020616c006d616300656e61006461200011
:1030880000546100726172003f202000202020005f
:10309800202020002020000043616e0063656c0042
:1030a800617220002020200020204f006b00620069
:1030b8006f727200616461002020200020202000cf
:1030c80020202000000000005008000094010000ab
:1030d80000000000ec0a00001200000002000000de
:1030e80001000200000400000800100000000000b9
:1030f800202b2d0023300000fe0a000008000000ed
:1031080002000000686a6c00747a4c00000000003d
:10311800ca0a00002200000002000000303132001c
:10312800333435003637380039616200636465002e
:103138006600300031323300343536003738390014
:1031480041424300444546000000000000000000e2
:020000040000fa
:103158000000fa00000000000080fa0000000600ed
:103168000000fa000000000000000000000000005d
:103178000000000000000000000000000000000047
:103188000000000000000000000000000000000037
:103198000000000000000000000000000000000027
:1031a80000000000000000000080fa000000060097
:1031b8000200fa000040eb00004f780002003700e0
:1031c800000000001e4fe80060c2b3009e4f1000d0
:1031d800fbff34000080fa00000006000400fa003b
:1031e800100798000b0037000000eb00000f780074
:1031f80002003700000000001e0fe8004002200017
:103208009e0f1000fbff34001e0090000000e90034
:10321800100798001e0090000000e000f2ff3a003e
:083228000080fa00000006001e
:00000001FF
