:020000040000fa
:080000000001040000000000f3
:020000040000fa
:10020000efc6200000ff2000000188000000000071
:100210000c00070000a722000100200011000700c9
:10022000000020000000e000020032000000020098
:100230000000000076250200000000000040da0007
:100240000000fe004440a900600720000000e0001c
:100250000300320000002000a00188004440a800f4
:100260000000060091018800800078000000eb008b
:1002700015003700e280400032a0b4009101ba00be
:10028000e280400032a0b4009102ba00e280400057
:1002900032a0b4000002eb00472bde00f507b200ed
:1002a000602ce10004003a000059eb008301e900f2
:1002b000fdff3e00040037006128e100010032002c
:1002c0000082eb00040007001101ba000200e00008
:1002d000e8ff3a00000006003159ba008301e90046
:1002e0000c0032002159ba008301e90008003200f5
:1002f0000400e00003003a00e280400032a0b400b5
:10030000f5ff370011d9ba008301e900faff3a007e
:100310008100e800e180400032a0b4000000060047
:100320000000000000000000881f78000204780030
:1003300014000700080040004f0478000000060089
:100340000000fa00881f7800000478003fb9970089
:10035000ea81570080007800401920001000070053
:10036000800078000000e000020035000040eb0053
:1003700000f47800010078004f0478000080fa0053
:10038000000006008001eb000200370061f07900f8
:100390008301e800828f5100fcff3a000000060054
:1003a0006200fa00889fbe008a9fbe000004be0063
:1003b000020578008300780060f92f000f004000ec
:1003c000b000070088979f0099979f000000eb00fe
:1003d000a09f9f009a4578000b80fb000000ea0078
:1003e000cf04de0050c2b30080cf550002003200bf
:1003f00009047800010037000904e9000800e00062
:100400000b0034001f909700080178008a007800e4
:100410008f9197000300010090979f000000e0007b
:10042000930032002f98970000004400a09f9f0087
:100430000905450050c2b30080cf550004003200ca
:100440000b04e000e3ff3a002f9897008900370083
:100450000000eb00809f9f00f0979f00e0979f00b7
:10046000d0979f00c0979f00b0979f00c09f9f00ac
:1004700009003700a0c520000080500000004000a7
:10048000e1c42000e10078004f989700010070005f
:10049000c09f9f000a05e8001a4478008800fb000e
:1004a000a0c520007c000700800078000000e0006c
:1004b000f0ff3a00a0c2b300804f54000e003a0093
:1004c000bf8897000180e900b08f9f00100078007e
:1004d000b09f9f000000e00005003d000000ea0022
:1004e000b09f9f004f9897000020a000c09f9f00e2
:1004f0000a05e80010003700b19f9f00090037008f
:10050000bf989700f0ff2700808f50000400320052
:100510006a08b9000000410003004000b09f9f003e
:100520000a05e8001a01fb0003fd2f00030041004b
:10053000e90f5000f2ff3600e0c2b3009a4f1000fe
:10054000040032000080eb00909f9f008a04780036
:100550001c0037008a04e800a0c2b300994f1000c5
:1005600007003a00bf8897000180e900b08f9f0024
:1005700010007800909f9f008a84e80011003700e7
:100580000000eb00909f9f00090037009f989700a4
:10059000f0ff2700808f5000040032006a08b90085
:1005a0000000410003004000909f9f008904e80084
:1005b0001901fb0003fd2f0003004100e90f50006b
:1005c000f2ff3600194478008800fb0000c62000c6
:1005d000310007000000e00002003a00004478000b
:1005e000010037008904e800a87f9f0080c6b3009f
:1005f000804f540004003a00994f14000a003a005a
:100600006640500006003700c0c6b300804f54005b
:1006100005003a00994f140003003a00654040007d
:10062000a07f9f008904e8000905e800cbfb2f00ac
:100630008f8545001901fb0060f92f000f00400075
:100640000084e8008b0178008000780008007800c2
:100650001a0007000000e00005003a008b00780057
:1006600008007800880107000000e00059ff3d0005
:100670000080eb004f05be004f04be000080fa0072
:10068000000006000200fa00f1bf9f000108780098
:100690000080fa0000000600040037000204e000b9
:1006a00001003a00000005000000e8001041780059
:1006b000814f5100f9ff3a0000000600889fbe00fc
:1006c0008a1f7800000478000102780082447800d4
:1006d0000305780070c6b300804f510021003c0034
:1006e00000c0e900804f5100de003d007240500024
:1006f000804f5100410132000d003c006c40500021
:10070000804f510054013c0000c0e900804f51006f
:10071000d4003d0050c2b300804f51004b01320065
:100720007c404000804f51004b013a00cd00370023
:1007300010c6b300804f5100ca00320004003c00d4
:1007400069405000804f510043013a007200370069
:1007500030c6b300804f5100180032000040e8005e
:100760000900370000c7b300804f51001401320068
:1007700008003c0000c0e900804f5100da00320060
:1007800065003c006540500080cf540032013a00c3
:100790000f00370050c7b300804f51005e00320099
:1007a00063404000804f51005b00320065405000c4
:1007b000804f510028013a00100137009180e90074
:1007c000010a7800780090009171780028013700c4
:1007d000a8609000c0c6b30080cf50000a003a0065
:1007e0009400780064805000000a78001000be0079
:1007f0004f89de00cf91de000002be0002037800c8
:10080000820378001300370010c7b30080cf500078
:1008100003003200a0c6b30080cf500006003a00ab
:100820009400780068805000000a78003002be0012
:100830002003be00070037001480e900000a78009a
:100840001000780000027800cfa2de0005037800d7
:1008500086037800049cbe000694be00a860900049
:1008600080c6b30080cf50000e00320020c6b30017
:1008700080cf500005003a000400fb00cf80de006e
:1008800001017800820178000a00370040c7b300f8
:1008900080cf5000030032006640400080cf5000ff
:1008a00006003a0004007800cf80de0001017800e5
:1008b00082017800009cbe000294be003800be0099
:1008c0002801be00e00f5000e08f5800e00f5900f3
:1008d000e08f590003003d0078009000d1c2b300c2
:1008e0000a003700081090000018a300030032002f
:1008f00078009000b1c2b300040037000008a300e4
:10090000530032007800900001c2b30001757800f6
:100910000000e8004d003700a8609000c0c6b3009a
:1009200080cf500006003a009400780064805000a8
:10093000000a78001002be006033b80013003700d0
:1009400010c7b30080cf500003003200a0c6b30030
:1009500080cf500006003a00940078006880500074
:10096000000a78003002be002003be0007003700f6
:100970001480e900000a7800100078000002780076
:10098000050020000600200007002000049cbe0097
:100990000694be00a860900080c6b30080cf5000cf
:1009a0000e00320020c6b30080cf500005003a0090
:1009b0000480fb0001002000020020000300200052
:1009c0000a00370040c7b30080cf50000300320058
:1009d0006640400080cf500006003a0004007800d6
:1009e000010020000200200003002000009cbe0047
:1009f0000294be00081090000038a30014003200da
:100a00003800be002801be00e00f5000e08f580003
:100a1000e00f5900e08f59000d00320080c7b3008d
:100a200080cf54000300320080c5b30080cf540053
:100a300007003a007800900001c3b3000175780008
:100a40008000e80009f578000080e8007004980054
:100a5000780090000000450060049800894078000c
:100a6000630037001400780068015000020a780023
:100a70003200be001201be00009cbe000294be0007
:100a8000380090000000e00003003d007800900076
:100a9000d1c2b3000a003700081090000018a3006c
:100aa0000300320078009000b1c2b30004003700a8
:100ab0000008a300050032007800900001c2b300d6
:100ac000017578000000e80070049800780090003c
:100ad0000000450060049800894078000800780014
:100ae0003301070064003700a8609000c0c6b3005f
:100af00080cf5000250032000a003c0064405000c6
:100b000080cf50002800320000c0e80080cf5000a5
:100b1000140032006840500080cf500022003a009c
:100b20000a00370040c7b30080cf50001e003200db
:100b30006640400080cf50001b00320069405000ea
:100b400080cf500018003a00060037001480e900fa
:100b5000000a780010007800485c9000084878008f
:100b6000450037001480e900000a78001002780080
:100b700068089000cf80de000101780082017800d3
:100b8000009abe000292be003b0037001480e900cc
:100b9000000a78001001780068089000cf80de001d
:100ba0000089be00340037001480e900000a780094
:100bb00010007800680c9000080878002e003700bc
:100bc0001180e9008008780010007800cf80de00f6
:100bd0000101780082017800009cbe000294be00f2
:100be00078009000000045006004980081c7b300c1
:100bf00008007800170307001f0037001480e90081
:100c0000000a7800100078006004980058099000ed
:100c10000200e00002003d009b04070009003700cd
:100c20008000eb009f040700800078000000e000d7
:100c3000030032006800900000805000010037007f
:100c400058089000100c98000b00370078009000b6
:100c5000027578000600370078009000800045009b
:100c60000904e00001003a0059c2b3008948780045
:100c70000000e800700498000000eb004f057800c9
:100c80004f04be00000006000400fa00889fbe006a
:100c90008a9fbe008c1f780000047800010678004f
:100ca00070089000f8009000010050008808900043
:100cb000010050009808900001005000a808900022
:100cc00001005000b808900001005000c8089000d2
:100cd000810550000002220090bf9f000003230006
:100ce000a0bf9f00081090000028a30018003a0041
:100cf0000b00e000160034008b0478000905780032
:100d0000e28f5400020036002a0020000200370063
:100d10000900e0000b00340058009000c80190006a
:100d20000a017800ee80570003000100500498008b
:100d30000000e000960032006808900000004500c6
:100d4000600c98008a8454004240a900ebff3c00ec
:100d5000780190000200e0000b0034005800900081
:100d6000c80190008c007800030001005004980036
:100d70000000e0008600320068089000f800900053
:100d800001004000600c9800880c90000900e00011
:100d90001500340009057800e28f54000200360087
:100da0002a002000020037000900e0000b00340098
:100db00058009000c80190000a017800ec805700ac
:100dc00003000100500498000000e00070003200b1
:100dd0006808900000004500600c98008a84540068
:100de0004240a900ebff3c00180990000200e0001f
:100df0000b003400e800900058009000c8019000fb
:100e000003000100500498000000e0006000320080
:100e1000680890009808900001004000600c98005d
:100e2000a80c90000900e0001500340009057800c6
:100e3000e28f5400020036002a0020000200370032
:100e40000900e0000b00340058009000c801900039
:100e50000a017800ec80570003000100500498005c
:100e60000000e0004a0032006808900000004500e1
:100e7000600c98008a8454004240a900ebff3c00bb
:100e8000380990000200e0000d003400e8009000f6
:100e9000180890008080400058009000c801900021
:100ea00003000100500498000000e0003800320008
:100eb00068089000b808900001004000600c98009d
:100ec000c80c90000900e000150034000905780006
:100ed000e28f5400020036002a0020000200370092
:100ee0000900e0000b00340058009000c801900099
:100ef0000a017800ec8057000300010050049800bc
:100f00000000e00022003200680890000000450068
:100f1000600c98008a8454004240a900ebff3c001a
:100f2000081090000028a3001b0032000b00e00016
:100f3000190034008b04780009057800e28f540012
:100f4000020036002a002000020037000900e000fd
:100f50000b00340058009000c80190000a0178008e
:100f6000ee80570003000100500498000000e000ec
:100f7000070032006808900000004500600c9800ef
:100f80008a8454004240a90003003400eaff37007d
:100f90000080eb00010037000000eb004f067800f6
:100fa0004f05be004f04be000080fa00000006009e
:100fb0008f04b000889fbe008a9fbe008c9fbe0039
:100fc0008e1f7800f0b79f0081f79f005001be0090
:100fd0004000be00f0979f00819f9f00929f9f005e
:100fe000a39f9f0010c6b3000ff19700804f5100e0
:100ff0001600320010c4b300804f510013003200bd
:10100000ffb19700530890000000e00003003d008e
:1010100060002000d00998000c0037000000e000bc
:101020000a003a0070c6b3000ff29700804f5200da
:101030000300320070c4b300804f520003003a0036
:1010400010002000ffb29700d00a9800ffb0970070
:10105000c0fa2f000f0040009c03070080017800b9
:10106000e20f500015003a0030002000ffb097005a
:101070009008980010c6b3000ff19700804f510000
:101080000a00320064404000804f510007003200e7
:101090000040e800804f510004003200a1bf200052
:1010a0000040e800804f510001003a00e1bf2000fd
:1010b000ffb1970063009000160037000000e000c9
:1010c00018003400300020007fb29700100a98000a
:1010d00010c6b3008ff2970080cf52000a00320092
:1010e0006440400080cf5200070032000040e8001a
:1010f00080cf52000400320021c020000040e800f0
:1011000080cf520001003a0061c020007fb19700fb
:10111000620090003158780031587800114878000a
:10112000c601370014c6b3008ff2970084cf520077
:101130000300320010c4b30080cf520013003a0005
:101140007fb09700600190008200780000c3b30078
:1011500080587800ffb29700e102980080c7b30082
:101160008ff2970084cf52000100320080c5b30097
:10117000804878000280e800ffb09700e000980007
:10118000710090000080e800f00098000300e0008b
:1011900005003a00e3979f0064fb2f000f01420017
:1011a00003077800a0013700a5c02000e5b79f0025
:1011b00010c6b3008ff0970080cf500005003200ba
:1011c00010c4b30080cf5000a7003a00b2c1200085
:1011d000e2b79f00ffb19700530890001e02200065
:1011e0000000e000010035000007e8000e02e80002
:1011f000d4b79f006022b8006033b8007f9097009a
:101200008f9897001f999700af999700880807005b
:10121000ffb097003102be002103be000000e000d5
:1012200004003d000400be000601be0003f0a20061
:10123000020037000400be000601be00f0979f00c8
:10124000819f9f00929f9f00a39f9f006f91970097
:1012500064015100e2979f00c3fa2f008f81410083
:101260006a8041000048eb006b824100c4b79f00d8
:1012700031003700c201200003002000e5fa2f00f2
:101280000f8042003d0307007f9497008f9c9700da
:101290001f9d9700af9d97000800be000a01be0089
:1012a000680807000006be005fb1970067015100a3
:1012b000d2b79f004240a9000a0034008d08070001
:1012c0000002be000203be000800be000a01be000c
:1012d0008b080700f0979f00819f9f00929f9f00bf
:1012e000a39f9f00cfb1970067804100710020004d
:1012f000050037006f6066004c6add004466de0062
:101300000c067200c4eede00e00f5600e08f5e00b7
:10131000050034008100e900e18f4000f5ff3a004c
:10132000010037000060eb008100e900fdff3b0099
:1013300067004000c0b79f00dfb297000500e000e3
:10134000090034006022b8006033b8007f90970035
:101350008f9897001f999700af9997006a08070028
:101360000000e000c3ff3c0060fb2f008f00400046
:101370004fb19700010051000000e9008e0f5000ae
:1013800001003d00000778000e00e00003003d0072
:1013900073fb2f000f8141002c003700800f570096
:1013a00005003d000e80400010409000f3c0b300e7
:1013b000e74f500001003c008041eb00c4fa2f00d1
:1013c0000f0242000e0042006a0040008e007800ca
:1013d000010037000000e9008100e90010417800b9
:1013e000834f5100fbff32000107e800efcf5100af
:1013f00001003a000248e8000100e0000300350067
:1014000075fb2f000f814200060037000e07e80031
:101410006f90970064004000e0979f0061fb2f00f1
:101420000f8140008e0041008e01780003003700dc
:101430001100fb006fb29700e44878008301e900d7
:101440008100e9000300e000f9ff3d00ffb29700d2
:10145000550890000000e000f3003d000e00e90098
:10146000d00a9800f00037007f9497008f9c970077
:101470001f9d9700af9d97006022b8006033b800b1
:101480000800be000a01be00e90707000000e000f6
:1014900005003d000bf0a200f8979f00899f9f0078
:1014a0009a9f9f00ab9f9f006f90970072592700f3
:1014b0000280b900026a2800130020001708070004
:1014c000e4005000e1979f0015003b00e38010000e
:1014d000c0ff2f00008460000800ea00e0979f0032
:1014e0007f9097008f9897001f999700af9997006a
:1014f00029bb2000070037000808a30003003200c2
:101500003902be002903be008c0507000884d10003
:10151000e88444000800e000f7ff3c001b003700af
:101520000100e0001d003400c0ff2f0000806000bb
:10153000e0979f00000478006000b80002002000df
:1015400003ff230029bb2000070037000808a30081
:10155000030032003902be002903be0077050700f0
:101560000884d100e88444000800e000f7ff3c0054
:101570000002be000203be007f9097008f98970084
:101580001f999700af99970082060700f0979f0078
:10159000819f9f00929f9f00a39f9f00ffb0970095
:1015a0005109900060c6b3008ff1970080cf5100c1
:1015b000040032006100200060c4b30080cf5100fd
:1015c00002003a006f929700ea00420001074100d2
:1015d000f30f5700010034003e01200000c3b300a8
:1015e000e0779f0075fb2f008f824200b5b79f0008
:1015f000330037000800be000a01be009107070053
:101600000006be00680757004240a9000e003400e3
:10161000b80707000002be000203be000800be00bb
:101620000a01be00b60707006022b80046782d0008
:101630007719240041050700f0979f00819f9f00c4
:10164000929f9f00a39f9f003fb0970068044000b7
:10165000890020000d003700a400200005002000b4
:101660000c01be00e0fd2f000f004000bc0207008f
:101670007fa897008fb097001fb19700afb1970078
:1016800004c3b300046441000006be00e00f56002e
:10169000e08f5e00060034008904e900e18f440019
:1016a000edff3a000200370000c3b3000064780089
:1016b0008904e900fcff3b0068044400b8b79f00c0
:1016c0000e00e0000b0034007f9497008f9c970081
:1016d0001f9d9700af9d97006022b8006033b8004f
:1016e0000800be000a01be00870707000000e000f6
:1016f000c0ff3c00c5fa2f008f8242006a80420082
:10170000bfb09700008050008001e9006f91970002
:10171000e70041006b814200010037000201e80050
:1017200000c3b300924f1000fcff320074fb2f0087
:101730000f00420080804000828050000080410005
:1017400002025000e1979f00ffb29700d509900078
:1017500060c6b3008ff2970080cf520003003200c2
:1017600060c4b30080cf520002003a008100e8005c
:101770000a00370050c6b3008ff0970080cf5000aa
:10178000050032008000eb0050c4b3008ff29700d8
:1017900080cf520001003a00110020000187410073
:1017a0008e0f520001003d00040778000e00e0009b
:1017b0001d003500840f570005003d00e2407f000a
:1017c00095c3b30040c3b30080cf500001003c007c
:1017d00005c3b3000e0041008000e9008e017800cf
:1017e000010037008100e9008301e900114278001f
:1017f000854f5200fbff32000307e80090c3b3009f
:1018000080cf520001003a008448e8000300e00065
:1018100005003d000201e9000e07e8006f90970007
:101820000000e800e0979f006f9297008e0178001b
:101830008ff097007fb09700660207004f0778008f
:101840004f06be004f05be004f04be008f04b1001e
:10185000000006002f03b000889fbe008a9fbe00d4
:101860008c9fbe008e1f780000077800d0c3200038
:10187000c0b79f0080c5b30080cf50000800320081
:10188000c2c22000c2b79f007740400080cf500006
:1018900003003a0083002000b3b79f000a0037001e
:1018a00080c7b30080cf500005003200a4002000a4
:1018b000b4b79f0080c5b30080cf500002003a004b
:1018c00005012000b5b79f003e04be002e05be00f6
:1018d00040c6b30080cf5000030032006540400096
:1018e00080cf50000b003a00e00f5400e08f5c0006
:1018f000e00f5d00e08f5d0006003d006000b80075
:101900006011b80008045000898458000a05590085
:101910008b8559003fb19700e80f5100030032005a
:10192000f00f510045003a00020037003c00200053
:10193000010037004c002000e00f5400e08f5c00f5
:10194000e00f5d00e08f5d0005003a005e0890004a
:1019500083012000a3b79f000000e00008003200d0
:101960003fb297000400e90008006000cfb2970082
:101970006540780090df9f0070012000a0b79f00b5
:101980008c0078008100e900050033008b05d10050
:101990000a85d3008984d3000884d300f9ff370077
:1019a000089fbe000a97be002fb197000200e90011
:1019b00023fc2f008f814100008441001400370078
:1019c0002fb097000000e900a0b79f003fb197003b
:1019d0000200e90004006000cfb197006354780072
:1019e0003e00be002e01be000c0278000402e90099
:1019f000050033008381d1000281d3008180d300b0
:101a00000080d300f9ff3700009fbe000297be00a0
:101a10003e02be002e03be00e00f5200e08f5a00cf
:101a2000e00f5b00e08f5b00da0034002fb097001e
:101a30000000e000e2ff3c00d6003700ae609000fe
:101a400080c6b30080cf50000b00320006003c007f
:101a50000104e000080032006640500080cf5000d2
:101a600073003a0004003700c0c6b30080cf5000b6
:101a70006f003a0031003700080178000800e000ec
:101a800005003a005e08900081012000a1b79f0088
:101a90000000e00009003200bfb19700110009000a
:101aa0000381d8008000fd004fb2970064407800a9
:101ab00090df9f0075012000a5b79f003fb29700ff
:101ac000110009000481d80080017800afb29700ae
:101ad0000500e90021fc2f008f80400000824000bb
:101ae0000c003700bfb29700110009008501d80033
:101af000000178002fb097000000e900a0b79f0018
:101b00000590b90000805100cfb097006152780075
:101b1000820178000300e000030034002fb1970039
:101b20000200e000efff3c0003007800cf80de0001
:101b300001017800820178003a0037000806be00f3
:101b4000e00f5400e08f5c0005003a005e08900052
:101b500083012000a3b79f000000e00009003200cd
:101b60003fb297006121b9000c00be007a06070061
:101b7000cfb297006540780090df9f007001200091
:101b8000a0b79f003fb297006121b9000c00be00d2
:101b9000740607000006be00afb297000500e9001a
:101ba00021fc2f008f8040008080400091b79f0073
:101bb000110037003fb197006114b9000801be0061
:101bc0000c00be00550607000005be00afb197002f
:101bd0008301e900a3b79f000801be0008030700c6
:101be000000056001fb29700cfb2970065527800f0
:101bf00094b79f000a06be00e00f5600e08f5e001b
:101c0000030034002fb097000000e000e9ff3c0023
:101c10004feade00cfa2de000c00be000401780017
:101c200084017800009fbe000297be005900370073
:101c3000e00f5400e08f5c00e00f5d00e08f5d007e
:101c400005003a005e08900081012000a1b79f00c6
:101c50000000e0000d0032003fb197000202780062
:101c6000cfa2de0005037800860378000800be00de
:101c70000a01be00cc0607004fb29700644078000e
:101c800090df9f0075012000a5b79f003fb197002e
:101c900002027800cfa2de000503780086037800f8
:101ca0000800be000a01be00b8060700009fbe0083
:101cb0000297be00afb197000300e90024fc2f009b
:101cc0000f0242000006420024003700bfb2970016
:101cd00005047800cfc4de00090578008a05780085
:101ce0000802be000a03be005fa89700efa8970095
:101cf0007fa997008fb19700af060700d0b79f006c
:101d0000e1b79f00f2b79f0083bf9f002fb09700fd
:101d10000000e900a0b79f000802be000a03be0051
:101d20005fb09700efb097007fb197008fb9970031
:101d3000270707005faa970000005200cfb2970064
:101d4000655678005fb09700efb097007fb19700bd
:101d50008fb99700009fbe000297be003e00be00f4
:101d60002e01be00d0af9f00e1af9f00f2af9f00f9
:101d700083b79f00e00f5000e08f5800e00f59003c
:101d8000e08f590003003400afb097000100e0007d
:101d9000ceff3c003fb19700e80f510013003a001e
:101da0000e1090000038a30010003200afb1970071
:101db000f78f510006003e0024fc2f000f02420066
:101dc0008300420000c3b300914f100007003200af
:101dd000afb297008502e900a5b79f0000c3b3002a
:101de00021fc2f008f80400080f07a00afb1970077
:101df00078811100120f98006e00900024fc2f00d3
:101e00000f024200830042005ef907001e099000a5
:101e10005e089000800f510006003d000200500057
:101e2000000f98000e1090000040a10000179800cd
:101e30000f0037000000e0000d003d000e10900084
:101e400074006000f00f500009003a007e08900016
:101e5000fe009000010050008e089000010050002c
:101e6000020050004240a90001003400000f980019
:101e70004f0778004f06be004f05be004f04be005e
:101e80002f03b10000000600800078000100370039
:101e90000000e8001004e000fdff3a0001005000df
:101ea000000006008001eb00040037008301e80019
:101eb00090cf1000040032000000e800828f510033
:101ec000faff3a000000eb0000000600889fbe0009
:101ed000800478006684400000ff2700180060003e
:101ee0004401de00f07f2000800f51000e003a0018
:101ef000800ceb00180478006f0064001c003a00ae
:101f0000210090000000e00019003a00110090004c
:101f10000000e00016003a00100020001100e00070
:101f200014003200120037000200e00005003c00ff
:101f300001007800db010700000178000000e000ec
:101f400008003c00f00028001800600001fe23009b
:101f5000010c700020c02f00800c41000080eb00bd
:101f600004003700800ceb000000eb00010037009c
:101f7000200020004f04be0000000600889fbe0025
:101f80008a1f78008c9fbe00000478000206be0005
:101f9000e6044000190178000200d0004505de008b
:101fa0008a007800f07f2000800f55000c003a0076
:101fb0006f00610065003a00280090000000e0001a
:101fc00062003a00180090000000e0005f003a0054
:101fd000100020001800e0005d0032005b003700b8
:101fe0000a00e00007003a0008007800ad01070091
:101ff000800078000000e000020034000a00780051
:10200000530037006108b9000c0140008d81480081
:10201000e07f2000800f5100e08f59000d00340058
:102020001900e00004003d006000b800020020003c
:1020300003ff2f00030037006000b80002002000fb
:1020400003ff2700009cbe000294be001000200089
:102050003f003700e00f5100e08f590005003400c9
:10206000f000280019006000c410dd00810c700031
:1020700034003700190078000100280001036000d7
:102080006f0060000040a000800c780061015100ea
:10209000e0815900c0fc2f00f1ff2f00800f51009c
:1020a000818f59000d003d00860c78000000eb0088
:1020b0002004980010049800000c780024003700d9
:1020c0008880e800110c78006400440090087800d3
:1020d00019087800800ceb0070014100f00f4100fe
:1020e000f7ff34008202ea00150032008881e80020
:1020f00070821200980078008508de0013007800d6
:102100000400dd00008c700064014400930078003e
:102110008508de00120078000400dd008089700070
:10212000920078008508de00190078000400dd00c8
:1021300000897000190078000500de00800c78002e
:10214000990c73000080eb00010037002000200094
:102150004f06be004f0578004f04be000000060089
:102160000400fa00889fbe008a9fbe008c1f780082
:102170000006780092bf9f00a3bf9f000404be002a
:102180000401be001fb89700afb89700e304070032
:102190000005be000001be000800be009801070057
:1021a0001fb99700afb99700000051008180590016
:1021b00020069800310698000a8ebe000c007800b8
:1021c0004f0678004f05be004f04be000080fa00a5
:1021d000000006000e00fa00889fbe008a9fbe0025
:1021e0008c9fbe000004780001457800020678004c
:1021f00083047800840678000300e00002003c00bd
:1022000019002000acc6200060c6b300804f550006
:102210000e00320060c4b300804f55000b00320046
:1022200070c6b300804f55000300320070c4b30085
:10223000804f55009c003a00e48f46008000350036
:1022400058089000808f56007d003d008d05e80005
:1022500060c6b300804f55001000320060c4b30068
:10226000804f55000d003200081090000038a30088
:1022700004003a0058089000808f540001003d008f
:10228000590c9800580890000b005000500c980012
:1022900002003b000000eb00500c98000b00e00037
:1022a00027003c00180990006800900001c3b300ab
:1022b000017079008201e800130c98005808900022
:1022c0000000e00003003c00081090000038a3006c
:1022d0000500320068009000e1c2b30001f079000f
:1022e0000280e800100c9800d80890000b00ea006b
:1022f000808f500001003d008105ea000b00ea00dc
:10230000200c980001804500500c9800890f500067
:1023100001003d0080047800390c980068009000ae
:102320009808900001004000090178008c007800b6
:1023300014f8070058089000090050001a003700f0
:1023400098089000680090008b8f540018003d00a2
:1023500001004000090178008c00780009f80700ae
:102360001808900000814400120c98000980550064
:10237000200c9800580890000000e00003003c008a
:10238000081090000038a30006003200e80090001a
:10239000e0c2b30080707900380890000000e800c7
:1023a000300c980058089000400c9800a6003700a8
:1023b000010040000b0178008c007800f1f7070065
:1023c0001808900000814500120c98008b8454007e
:1023d000580890000000e00003003c000810900046
:1023e0000038a3000500320068009000e1c2b3008d
:1023f000017079000200e800100c98005808900065
:10240000890f500001003d008004780068009000b2
:1024100098089000010040008b00460009017800f8
:10242000d8f707001808900000804400100c9800ae
:102430005808900009005000200c980082003700d6
:1024400070c6b300804f55000300320070c4b30063
:10245000804f550014003a0058089000808f5400b7
:1024600004003d00081090000038a30001003a006d
:10247000590c9800580890000000e900500c980092
:1024800002003b000000eb00500c980070c6b30047
:10249000804f550002003a005ac6b3000b003700c7
:1024a0005ac4b3000900370010c6b300804f55006e
:1024b00002003a000ac7b3000400370010c4b3009a
:1024c000804f550001003a000ac5b300180990007a
:1024d000680090003c7079008201e800130c9800bd
:1024e0000c027800580890000000e00003003c0057
:1024f000081090000038a30017003200e800900098
:10250000e0c2b30080f079008280e800110c9800ee
:10251000580890000000e0000f0034008904e90032
:10252000890f500001003d00800478006800900091
:1025300000804000090178008400780091f70700ce
:102540001808900000804400100c98005808900073
:1025500009005000200c9800680090009808900036
:10256000010040000086e8000a58780080007800ea
:102570000d00e00004003500b0c2b30080487800d0
:102580008c04780004003700d0c2b3008048780083
:102590008c0478008d06ea008005eb000a00370005
:1025a000a20020008d00780070805700890007008d
:1025b0000fb897009fb897007a81550001f17f000e
:1025c0008b05e800800678000d00e000f4ff3c0079
:1025d000e18f550009003c0050c6b300804f550004
:1025e0000300320050c4b300804f550003003a008e
:1025f00000c3b300005e78008c0478000b00e0009c
:10260000040032000b00e900fa805700008040000f
:102610000600370000c3b300805c78000500370077
:102620008b05e90002c3b300a05c41000b00e00091
:10263000fbff3c00680090009808900001004000fb
:1026400000805400300c9800081090007400600066
:10265000f00f50000e003a007800900098089000ab
:1026600001004000a808900001004000b808900058
:1026700001004000c80890008100400078089000e8
:10268000808f500002003d0001005000000c9800b7
:102690004f06be004f05be004f04be000080fa008a
:1026a0000000060000027800e602400015007800f5
:1026b00001002800810360006f006000800a78003c
:1026c00012003a00240090000000e0000f003a00e1
:1026d000140090000000e0000c003a0016002000fa
:1026e0001400e0003800320008003700e400420027
:1026f000910a78000480e8009008780014087800b7
:10270000000aeb00700353000100370016002000a0
:102710001500e000f5ff32001300370064014200ad
:1027200080004000120078004f00de00808a7000b8
:102730008481e800920078008180400013007800d6
:102740004f00de0000897000930078008180400017
:10275000140078004f00de008089700014007800bb
:10276000000a40000603e90015007800ef0f500052
:10277000eaff3600100037000481e8009400d10021
:10278000120078004f00dd00008a7000e400420073
:102790009201d100110078004f00dd000089710026
:1027a0001101d100150078004f00dd008008710094
:1027b000950ad1000603e80015007800ff0f5000cd
:1027c000edff3e00ef0a6000958a73000600780076
:1027d0000000060002027800809fbe001100090080
:1027e0008200d800000178004f00be0002a2b900ac
:1027f0008480500011009800020878000000060054
:10280000020ab900001bb9000200b80081004200b2
:1028100081004300000006000001be0037020700ef
:102820000470a70003f0a1006509b1001600320092
:102830000d0035006828e10006003500f0ff2f008c
:10284000f1ff27000300e00013003b000100280017
:102850000000050000004000818048008502e9007a
:10286000fcff3a0008003700f88f420002003c00ed
:102870008000eb00000005008100d1000080d30043
:102880008502e800fcff3a000300e00002003b0084
:1028900060001000e080180000000600810378004e
:1028a000160207000001be006000b8000478a30013
:1028b00013003a006220e10015003e000d003900cf
:1028c0008301d1000281d3008180d3008301d10034
:1028d0000281d3008180d3008301d1000281d30023
:1028e0008180d3000538b000c42add00f300b200b7
:1028f0008381720007f0a70003f0a000000006002b
:10290000f3ff2700f2ff2f006110b900fbff370033
:1029100003ff2700f7ff3700889fbe008a9fbe0095
:10292000010578000100e0000400350008003c00cb
:102930000000e000200032000500370060001000b9
:10294000e080180002003b0001f02c001a00370064
:102950000004be006011b8006b0920000982cf009e
:10296000020039000882cf000441b00069425200e1
:102970000e00320008003b0082817100610164009a
:102980008904d1000884d3008b05e8000442e800e4
:10299000f9ff3a00050037000804440089844c0020
:1029a0008b05e9000442e900fbff3a00e80107005b
:1029b0000af0a70001f0a0004f05be004f04be00c2
:1029c0000000060003f0a200889fbe008a9fbe00a0
:1029d0008c1f7800040207000b0233006450e100f2
:1029e0004f0032006420e1005200320003826c008c
:1029f00007003b000905d0000306d000820f5400f9
:102a00000c065d00020039000200320089017800e6
:102a1000030678008582550004003d000003fd0098
:102a20008103fd008502ea008b854200840f72005d
:102a300002003b0060001000e08018006011b80048
:102a40000005eb007a28e1000a0039000600780052
:102a5000c75ddd00f707b200878075002d003700e5
:102a6000828171000a017800610560008180d100d7
:102a70000080d3008502e900f9ff3b000604400016
:102a80008784480002003b0060041400e0841c00be
:102a90000988a300070032008a81710082817100d9
:102aa000610164008904d1000884d3008b05e8002b
:102ab000170037000978a30013003a000b00e0006c
:102ac000130034008b05e9000804440089844c009d
:102ad0000a4474000978a3000d003a000b00e000de
:102ae000070034008b05e9000804440089844c0089
:102af00001003a000b0020000978a300f7ff320024
:102b00000001eb0002003700828171000a017800a9
:102b10008f0107000cf0a70001f0a000c3013700ef
:102b20006420e10002003a00838f6c00c30133008f
:102b30000801be000200be00bc0137002800fa00f8
:102b4000889fbe008a9fbe008c9fbe0003866b00dc
:102b5000bd0107000028a30064003a000128a3007b
:102b600067003a000008a30062003a000108a300d1
:102b700065003a001e009000be08900081064000eb
:102b8000ed3fb100f4805700ee019000111ab8003b
:102b90008e099000311bb8009e099000311cb800ce
:102ba000511db800f485570046000700fe01900053
:102bb0003a0007008b85e8003e0007008e09900070
:102bc00040000700ee019000340007008b85e8000c
:102bd000380007008e099000400007009e09900011
:102be0001b18b800890440000a854800fe019000c7
:102bf000340007008b85e80038000700ee019000e4
:102c0000300007008e0990001b18b80089044000ae
:102c10000a8548000a98a30008003a00040242000e
:102c200085824a0006034b0087834b0008044c0052
:102c300089844c000a054d008d06e90084827200eb
:102c4000850273004c3add008502720001003200fb
:102c500015002000443ade001400b2004538de00c2
:102c6000cb45dd000b007000c540de00cb4ddd0024
:102c70008b8070004549de00cb55dd000b017100f3
:102c8000c551de000d0378008801070003f0a100a4
:102c90000cf0a70003f0a0007f0137001b18b8005c
:102ca0008502400006834800e0834b0060044c002e
:102cb000070037001b18b800060340008783480050
:102cc000faff37001b18b80087034000088448004b
:102cd000e0844c0060054d00000006001b18b800a1
:102ce0000804400089844800faff37000108a30067
:102cf00066013a005800be005801be00e3ff3700ed
:102d00000008a30061013a0009047800f9ff3700c8
:102d10001400fa00889fbe008a9fbe008c9fbe00f0
:102d20000005be000206be00680047000c90be0011
:102d30000a90be00890107006400e1001a00320019
:102d400016003e006100e1001a0032006e0490009f
:102d5000fe0490000e0b90009e0b90006011b800d6
:102d60009e0590000b38b100d501200082817100d2
:102d7000610164008703d1000683d3008984d300f6
:102d80000884d3008502e900f8ff3a00f00007004c
:102d90000df0a70001f0a0003f013700f1ff270070
:102da000f0ff2f003c01370001f827000000200051
:102db000f7ff37006000b800f5ff3700889fbe00be
:102dc0008a9fbe008c1f7800070107000e013300a8
:102dd00003866c006450e1002e0032006420e100a4
:102de000330032006150e1002f0032006120e10029
:102df0003100320085855500eb07b0000900200046
:102e000008042000050037000804440089844c00b1
:102e10000a0031000603430087834b000001530082
:102e200081815b00f8ff33000203be000800a000b0
:102e30000804440089844c00f6ff3900c639dd00df
:102e40008301730001003200130020008904d100c7
:102e50000884d3000998a300050032000800a700e9
:102e60000300a0008904d1000884d3008b05e8008a
:102e70008904d1000884d3000001eb000281d20054
:102e8000b300070001f0a1000cf0a70001f0a000c2
:102e9000e60037006420e100e80032000801be00cf
:102ea0000200be00f7ff37006120e100e3003200be
:102eb0006000b800f3ff37000000200001f8270091
:102ec000f0ff3700889fbe008a9fbe008c1f7800ed
:102ed000c5000700cc00330003866c006450e1009d
:102ee000240032006420e100270032006150e1003c
:102ef000220032006120e100210032008b85420077
:102f0000eb07b1000134b800003ab80008044200f1
:102f100089844a00013ab8000030b8008880400037
:102f200009014a000400330000004000818048008d
:102f3000020149008b05e900c909dd008301700029
:102f40000100320013002000c814de004814dd0028
:102f50004709de001200b200c808de0008847000d5
:102f60007b00070001f0a1000cf0a70001f0a00019
:102f7000ae0037006120e100b00032000801be0061
:102f80000200be00f7ff37006150e100fcff3a008d
:102f9000aa0037002800fa00889fbe008a9fbe0062
:102fa0008c9fbe0003866b00a70007006400e10051
:102fb000440032006408e1004a0032006100e10090
:102fc000460032006108e10049003200ec0647008b
:102fd0006000b8003d02be003d03be00f48657000d
:102fe0006011b8003d04be003d05be007d03200019
:102ff0000b0037000000a0008d06e900130032002e
:103000000402420085824a0006034b0087834b007e
:10301000000040008180480002014900838149008e
:103020000802520089825a000a035b008b835b000e
:10303000f0ff3b000802420089824a000a034b006d
:103040008b834b008d06e900edff3a00848272000d
:1030500086827200f707b200878272000100320098
:10306000150020001e0490003e0b90000603540043
:10307000e63fb0000368a300070032000000a7008d
:103080000500a0008301d1000281d3008180d3001c
:103090000080d3000603e8008301d1000281d30041
:1030a0008180d3000080d3000002eb000482d200b4
:1030b0007e00070003f0a1000cf0a70003f0a000c1
:1030c00075003700640247006408e1006f003200b9
:1030d0003400be003401be00f6ff37006108e10095
:1030e0006a0032006011b8006000b800f1ff3700dc
:1030f00003ff270002002000fbff3700c70ade00a5
:10310000f107b200f50fb20008003200e1cf420033
:10311000020032000170a00024000500810f700041
:10312000010032000408050044000500810f700012
:1031300002003a00140005008502e900000040008a
:1031400081c04800fcff3b000170a0002400050086
:1031500081002000618055000b003d000b00200025
:1031600061fe2f000100e1001d003400828171002a
:10317000610164008904d1000884d3000000e800e4
:10318000faff3a0071002000610064000300700043
:10319000020060000900320061044400e0844c0039
:1031a0000988a500050032008b05e8006808e100e9
:1031b00002003a008904d1000884d300f20f2000f5
:1031c0000258e10005003d00c75ddd00f907b200cf
:1031d0008980750008007800000006000bf82700c1
:1031e0008b007800000005000004be00c3ff07004c
:1031f0000003be000405be000200be00bfff0700c2
:10320000844f7500000006000200be006450e1001b
:10321000050036006420e100020036000968a300c2
:1032200001003a000800be000160a0004f067800cf
:103230004f05be004f04be0000000600f0ff2f0047
:10324000f1ff2700f9ff3700680447000294be0031
:103250000094be00fc0447008694be008494be0027
:10326000090078003d000700080078003b000700d7
:1032700099007800814f70000b003b000800be00f1
:103280005d0007004f00b10003003700f3ff270087
:10329000f2ff2f006110b9004f06be004f05be00bf
:1032a0004f04be000080fa00000006001800200055
:1032b00057002000080453000d003d0006002000c8
:1032c00097fc2f000740e1001e003400848272004a
:1032d000610260008301d1000281d3008180d300ac
:1032e0000080d3000804e800f8ff3a0047002000ff
:1032f0006104600005047400040464000d003200e1
:1033000061004000e080480060014900e081490020
:1033100003b8a500070032000603e8006538e100a5
:1033200004003a008301d1000281d3008180d300e0
:103330000080d300f87f20000830e1000300350052
:10334000080378006000b8006011b8004433dd0065
:10335000f300b200830173000000060080007800d3
:103360005002be005003be004439de00f700b20038
:10337000f37f200003016100090032000218e10020
:1033800016003a0085017200830173008381730087
:103390000008200015003a0040002000130037000c
:1033a00085017200830173008381730005003a0078
:1033b00004a8be0006a8be00100020000b003700c5
:1033c0000201e9000402420085824a0006034b0024
:1033d00087834b000748a300f9ff32000740a00095
:1033e00004a8be0006a8be002000200080009800af
:1033f0009200980000000600e48240001078a300cc
:1034000007003200640240001178a3003400be00bf
:103410001401be00040032000330a70000000600c3
:103420003500be001501be000330a00000000600fc
:103430008f1fd100940107008f87e9000000e00092
:10344000000006001400fa00889fbe008a9fbe009c
:103450008c9fbe000004be000205be00680047004d
:103460000a90be000890be00bcff07000070a700d5
:103470000bf0a100304320009e0290008082520099
:10348000b0fe2f000028e10011003d00b0fc2f002d
:103490000028e100150034001e0990008e089000fd
:1034a0007e0090000501b0000201d1008180d300b0
:1034b0000080d3008502e800fbff3a000b00e0002b
:1034c00075ff3b0060001000e080180072ff3700bd
:1034d000f0ff2f00f1ff27000b00e0006eff3b0024
:1034e00001002800000020006bff37006000b800da
:1034f00069ff37004f89de00820178008b013700b9
:1035000007f0a200c0013700809feb005e010700ba
:103510008f87e9000000e00000000600839f68003c
:103520000100e00002003d0060001000e080180093
:103530000300e00002003d0060011100e08119007d
:10354000080007004f00e00002003b006000100090
:10355000e080180000000600020007000400be0022
:10356000000006006022b800060220000000d00023
:103570008180d2000482d2008582d2000000a000a7
:103580000202520083825a0003003100020242000c
:1035900083824a000000a1000603e900f3ff3a001d
:1035a00000000600881f7800000478005001be006b
:1035b0004000be000400400085804800060149002c
:1035c00087814900009cbe000294be000400e10017
:1035d0000588e1000690e1000798e1000200310053
:1035e000680044001008e8004f047800000006005e
:1035f000f4874700889fbe008a9fbe008c9fbe0054
:103600008e1f78000205be000004be00d4b79f00e4
:10361000e5b79f00f6b79f0087bf9f000000eb0053
:10362000c0b79f00b0b79f00a0b79f0090b79f00a2
:1036300080b79f000d042000bfb097004fb09700e7
:10364000000140000000e0000f003d004f08de00d8
:1036500000007100c0b79f009e00070001003d0000
:1036600012002000a100070001003d001200200010
:10367000a6000700b1000700b60007000f004000d9
:10368000c8ff0700220037004f08de000006710067
:10369000ccb79f008f00070001003d001200200002
:1036a0009200070001003d00120020009700070073
:1036b000a20007000fb297009fb297002fb39700a8
:1036c000bfb39700a90007000000520081805a0094
:1036d00002015b0083815b0080b79f0091b79f0070
:1036e000a2b79f00b3b79f000007eb009f00070041
:1036f0000020e10001a8e10002b0e10003b8e10010
:10370000010031001e0020000e005600c0b79f00cf
:103710004fb297000400e0000700350010002000c1
:10372000010020006011b800080470008984700056
:103730000a0571008b8571008d06e900beff3a0015
:103740000400e00003003d00820007000f0040007d
:1037500094ff07004fa897000000e00004003a0023
:103760000fb497009fb497002fb59700bfb597008f
:10377000940007004f0778004f06be004f05be00bb
:103780004f04be004f01b10000000600881f780002
:1037900018002000881f780095ff07008f87e90038
:1037a0004f04780000000600801feb0090ff070028
:1037b0008f87e90000000600889fbe008a9fbe0038
:1037c0008c1f78006e00070007003d0073000700a3
:1037d000e00f5b00e08f5b0007003d003200070058
:1037e0000006eb00040037003400070002003d0033
:1037f0002a0007001c00200072000700e3ff0700fa
:103800000203be000002be000c00e0000100320016
:10381000220007000400be000601be004f0678002b
:103820004f05be004f04be0000000600889fbe008a
:103830008a9fbe008c1f78005100070005003d00e4
:1038400056000700e00f5b00e08f5b0006003d00c4
:10385000040037001900070003003d006000b800b5
:103860006011b8001000070056000700ceff0700e7
:103870000203be000002be000c00e00001003200a6
:10388000060007000400be000601be004f067800d7
:103890004f05be004f04be00000006006000b800e7
:1038a0006011b80000003700040250008582580003
:1038b0000603590087835900000006000006eb004c
:1038c000e00f5200e08f5a00e00f5b00e08f5b00da
:1038d000000006000180400090b79f000001eb004f
:1038e0008fb097000100e0000000060002007000a9
:1038f00090b79f000180400080b79f000001eb005f
:10390000ffa897000100e000000006000200700020
:1039100080b79f00018040006faa9700cf20de0093
:1039200001007000f0af9f00040242002500070074
:103930004f18de000002720000000600e4af9f0096
:103940000804440089844c000a054d008b854d0015
:10395000000006003fb29700cfb297005fb3970018
:10396000efb3970000fe2f00000006003fb0970065
:10397000cfb097005fb19700efb19700000006004d
:103980000205be000004be00e00f5000e08f5800aa
:10399000e00f5900e08f5900000006006000b800f9
:1039a0006011b80008045000898458000a055900c5
:1039b0008b8559001c002000e00f5200e08f5a0058
:1039c000000006000800be000a01be00000006005c
:1039d000889fbe008a9fbe008c1f78000205be0033
:1039e0000004be000006eb00e00f5000e08f58001e
:1039f000e00f5900e08f590007003d006000b8005b
:103a00006011b80008045000898458000a05590064
:103a10008b8559001c002000e00f5200e08f5a00f7
:103a2000e00f5b00e08f5b0002003d000f0007002d
:103a30000c00a2000800be000a01be00ef00070053
:103a40000203be000002be000c00e00001003200d4
:103a5000060007000400be000601be004f06780005
:103a60004f05be004f04be00000006006000b80015
:103a70006011b80004025000858258000603590006
:103a80008783590000000600889fbe008a9fbe0001
:103a90008c9fbe000404be000605be00809fbe00d1
:103aa000829fbe00f7000700040678000800be00f1
:103ab0000a01be00f3000700840678004f03be0031
:103ac0004f02be008d4f76007fb097001300330089
:103ad000f0ff2f008b8f6b0006003b000d06660089
:103ae0000c00a7000a00370007f0a6001000200015
:103af0000a003700880f5200898f5a008a0f5b0036
:103b00008b8f5b00030039001000200001003e0095
:103b10000000200007f0a7000000ea004f06be00ea
:103b20004f05be004f04be0000000600889fbe0087
:103b3000830478000300e0002c00350003003c0003
:103b4000008270000402710026003200364320001b
:103b5000c50020008383cf000a0039000541b10071
:103b60008283cf00070039000541b1008183cf0077
:103b7000040039000541b1008083cf000100390005
:103b80000541b10085c353006022b8001200320025
:103b90000a003b0084827200610260008301d10050
:103ba0000281d3008180d3000080d3000603e800a7
:103bb0008743e800f7ff3a000700370000004000a5
:103bc0008180480002014900838149000603e90021
:103bd0008743e900f9ff3a00b4fd070009f0a700a8
:103be00003f0a0004f04be000000060060001000bb
:103bf000e080180060011900e0811900d3ff3b004c
:103c0000033e2c00f7ff37002800fa00889fbe0013
:103c10008a9fbe008c9fbe000706780087866900d9
:103c20000c003b00030478008704780008f0a10032
:103c300009f0a100840f5000858f5800860f5900ad
:103c4000890f5c00030033000cf0a20001003a0071
:103c50000cf0a1007cfd07006400e1005f00320071
:103c6000780147006408e100610032006c01470000
:103c7000748557003200be001201be003a04be0037
:103c80001a05be001e039000be0a90008503530073
:103c900006003d000004fd008104fd000205fd005a
:103ca0008305fd008703ea00050378000df8a300f3
:103cb0000400320060041400e0841c0060051d0054
:103cc000e0851d006022b8007d0320000d38e10072
:103cd0008006eb000b0039004433dd00f300b20036
:103ce0008301730039003700848272000d0278006e
:103cf000e10664008b85d1000a85d3008984d30056
:103d00000884d3008703e900f7ff3b000800400068
:103d1000898048000a0149008b81490004003b006a
:103d200060001000e080180060011900e0811900b7
:103d30000358a300090032008d8272008482720051
:103d4000610260008301d1000281d3008180d30031
:103d50000080d3000603e8001b0037000348a300df
:103d600017003a000600e000170034000603e900df
:103d70000d00a300000048008180480002014900b6
:103d8000838149000348a3000f003a000600e000c9
:103d9000090034000603e90000004000818048006b
:103da000020149008381490001003a000003eb0051
:103db0000348a300f5ff32006022b800020037007c
:103dc000848272006182660038fd070003f0a10062
:103dd0000cf0a70003f0a0002ffd3700640147009e
:103de0006408e10002003a000df8a30027fd3a0044
:103df0003200be001201be0027fd3700889fbe00c2
:103e00008a9fbe008c9fbe000404b8000506b8005f
:103e10008904460060854e000606b8000a05460083
:103e2000e0854e000706b8008b054600040eb8007a
:103e3000890446000a854e00e0854d00050eb80055
:103e40000a0546008b854e00060eb8008b0546001d
:103e50000416b8000a0546008b854e000516b8000a
:103e60008b054600041eb8008b0546000800be0006
:103e70000a01be004f06be004f05be004f04be0043
:103e80000000060005ff27000582610007003200e0
:103e90000428e100010032002400050006000700ac
:103ea00001003a0044000500040805000200070074
:103eb000f9ff3a00140005006f8261008102700072
:103ec0008502710085027200000006000021ef00eb
:103ed0001108880020088800000006000621ef0075
:103ee00061088800800888001061a90000000600b1
:103ef0000a21ef0071088800900888000000060081
:103f00001421ef00d1088800f00888001e61a90084
:103f1000000006001821ef00e10888000009880071
:043f20000000060097
:020000040000fa
:10000800c2260000c2260000c2260000c226000048
:10001800c2260000c2260000c2260000c226000038
:1000280062270000c2260000c2260000c826000081
:10003800c2260000c2260000c2260000de270000fb
:10004800c2260000c2260000c226000018270000b1
:10005800c2260000c2260000c2260000c2260000f8
:10006800c2260000c2260000c2260000c2260000e8
:10007800c2260000f22700000c280000a02700007c
:10008800c2260000c2260000c2260000c2260000c8
:10009800c2260000c2260000c2260000c2260000b8
:1000a800c2260000c2260000c2260000c2260000a8
:1000b800c2260000c2260000c2260000c226000098
:1000c800c2260000c2260000c2260000c226000088
:1000d800c2260000c2260000c2260000c226000078
:1000e800c2260000c2260000c2260000c226000068
:0800f800c2260000c226000030
:020000040000fa
:10010800c2260000c2260000c2260000c226000047
:10011800c2260000c2260000c2260000c226000037
:1001280062270000c2260000c2260000c826000080
:10013800c2260000c2260000c2260000de270000fa
:10014800c2260000c2260000c226000018270000b0
:10015800c2260000c2260000c2260000c2260000f7
:10016800c2260000c2260000c2260000c2260000e7
:10017800c2260000f22700000c280000a02700007b
:10018800c2260000c2260000c2260000c2260000c7
:10019800c2260000c2260000c2260000c2260000b7
:1001a800c2260000c2260000c2260000c2260000a7
:1001b800c2260000c2260000c2260000c226000097
:1001c800c2260000c2260000c2260000c226000087
:1001d800c2260000c2260000c2260000c226000077
:1001e800c2260000c2260000c2260000c226000067
:0801f800c2260000c22600002f
:020000040000fa
:103f240047750000617200006461000072200000a7
:103f3400656e00003a200000253000003264000065
:103f440020200000004d000065640000696300004b
:103f5400696f00006e2000004e2000002530000034
:103f640032640000202000002000000048610000ae
:103f7400792000002530000032640000204d00004c
:103f84006564000069630000696f00006e650000ed
:103f9400004200006f720000726100007220000095
:103fa4004d650000642000004e20000025640000e0
:103fb400002d00002d2e00002d2d000000250000f6
:103fc40034640000202500007320000025730000e5
:103fd400002500003464000020250000352e000078
:103fe4003266000020250000730000002534000024
:103ff40064200000253500002e32000066200000f9
:0c400400253500002e3200006600000090
:020000040000fa
:104010000000fa000080fa00000006000200fa002a
:10402000000000000000000002cbbf000080fb0089
:10403000000f78001e007800e40f50002d003200c1
:104040001e007800e40f500011003c001e007800b4
:10405000e10f50001e0032001e007800e10f5000fa
:1040600004003c001e0078000000e0001500320053
:10407000530037001e007800e20f50001700320096
:104080001e007800e30f5000170032004c0037008c
:104090001e007800e60f5000300032001e0078004d
:1040a000e60f5000160035001e007800e70f5000a4
:1040b0002d0032001e007800e80f50003e00320054
:1040c0003f00370030c0b30002ebb7003c003700c0
:1040d00060c0b30002ebb7003900370070c0b30016
:1040e00002ebb7003600370040c0b30002ebb70068
:1040f0003300370050c0b30002ebb7003000370088
:1041000066cabf000040e80066eab70067cabf00a1
:104110000080fb00c200dd00408d20008080400058
:10412000110078000000a0008008780067cabf0076
:104130008080fb0068cabf000081fb004208dd00f0
:104140008080e800408d2000008040000208780058
:104150000040eb0002ebb700190037000040eb0015
:1041600002ebb7001600370066cabf000004e0008b
:1041700003003a000040eb0002ebb70010003700ec
:1041800066cabf000040e90066eab70067cabf0020
:104190000080fb00c200dd00408d200080804000d8
:1041a000110078000000a1008008780080c0b300f2
:1041b00002ebb7000200370020c0b30002ebb700eb
:1041c0000080fa00000006000200fa0002cbbf00e7
:1041d0000080fb00000f78001e007800e50f500003
:1041e0001a0032001e007800e50f500007003c0066
:1041f0001e007800e30f50000e0032001e00780011
:10420000e40f50000e0032001b0037001e00780043
:10421000e70f5000130032001e007800e70f500037
:104220000d0035001e007800e80f5000100032002d
:10423000110037000040eb0002ebb7000e00370022
:104240000040eb0002ebb7000b0037000040eb0032
:1042500002ebb7000800370010c0b30002ebb70054
:104260000500370020c0b30002ebb70002003700a2
:1042700020c0b30002ebb7000080fa000000060087
:104280000000fa0002cbbf00e44f50001f003a00cc
:1042900067cabf000040e80067eab70071a62000c7
:1042a0009140780030c6b30080cf50000e00360039
:1042b00010c0b30067eab7000b00370071a62000fa
:1042c0009140780030c6b30080cf500003003a0020
:1042d00010c0b30067eab7000300370067cabf0029
:1042e0000040e80067eab70067cabf000080fb0033
:1042f000c200dd00408d20000080400010007800ea
:1043000061406000e14f5000ecff320002cbbf0083
:10431000e74f50001f003a0067cabf000040e800a6
:1043200067eab70071a620009140780030c6b3005c
:1043300080cf50000e00360010c0b30067eab7000f
:104340000b00370071a620009140780030c6b30002
:1043500080cf500003003a0010c0b30067eab700f6
:104360000300370067cabf000040e80067eab700f3
:1043700067cabf000080fb00c200dd00408d200046
:104380000080400010007800614060000004e00000
:10439000ecff32000080fa00000006000000fa0086
:1043a00002cbbf00e44f50001b003a0067cabf00b9
:1043b0000040e90067eab70067cabf000004e000f8
:1043c0000c003a0030c6b30067eab70009003700b6
:1043d00067cabf00e14f500003003a0030c6b30087
:1043e00067eab7000300370067cabf000040e90072
:1043f00067eab70067cabf000080fb00c200dd00ab
:10440000408d200000804000100078006140600076
:10441000e14f5000eeff320002cbbf00e74f5000eb
:104420001b003a0067cabf000040e90067eab70016
:1044300067cabf000004e0000c003a0030c6b300b9
:1044400067eab7000900370067cabf00e14f5000b4
:1044500003003a0030c6b30067eab7000300370034
:1044600067cabf000040e90067eab70067cabf003b
:104470000080fb00c200dd00408d20000080400075
:1044800010007800614060000004e000eeff3200a0
:104490000080fa00000006000200fa0002cbbf0014
:1044a0000080fb00000f78001e007800e10f500034
:1044b0000a0032001e007800e20f50000a003200ad
:1044c0001e0078000000e000010032000800370004
:1044d00010c0b30002ebb7000500370020c0b300e6
:1044e00002ebb700020037000040eb0002ebb70020
:1044f0000080fa00000006000200fa0002cbbf00b4
:104500000080fb00000f78001e007800e10f5000d3
:104510000a0032001e007800e20f50000a0032004c
:104520001e0078000000e0000100320008003700a3
:1045300020c0b30002ebb700050037000040eb00dd
:1045400002ebb7000200370010c0b30002ebb70067
:104550000080fa00000006000c00fa00889fbe00f0
:104560008a9fbe00d303070002cbbf000080fb0080
:10457000500798005e009000e50f500030003200b8
:10458000de009000e58f500004003c005e029000c9
:10459000e40f52001300320053003700de02900097
:1045a000e78f5200340032005e039000e80f5300a2
:1045b0003f0032004c00370071a620009140780087
:1045c00030c6b30080cf500003003a0010c0b300e3
:1045d00067eab7000300370067cabf000040e80081
:1045e00067eab70067cabf000080fb00c200dd00b9
:1045f000408d200000804000100078006140600085
:10460000e14f5000ecff320067cabf000000fb0022
:10461000018c2000801f780020f92900801f78007d
:104620000100780046ef0700e4875700028c200065
:104630008040eb000040eb007903070036003700b4
:1046400067cabf000000fb00018c2000801f7800bb
:1046500050fa2900801f78000100780038ef070029
:10466000e4875700028c20008040eb000040eb0004
:104670006b0307002800370066cabf000000fb007c
:10468000018c2000801f780080fb2900801f7800ab
:10469000010078002aef0700e4875700028c200011
:1046a0008040eb000040eb005d0307001a0037007c
:1046b00067cabf000000fb00018c2000801f78004b
:1046c00050fa2900801f7800010078001cef0700d5
:1046d000e4875700028c20008040eb000040eb0094
:1046e0004f0307000c00370002cbbf000080fb0027
:1046f0007100b9008000780090a620000080400082
:104700009046880090468000000178008040eb00d1
:104710000040eb004203070002cbbf000080fb001b
:1047200040079800ce039000e68f530082003200cd
:104730004e009000e60f500005003c00ce009000b7
:1047400060804000e40f500088003e0026003700e3
:104750004e029000e70f52000c0032008300370039
:1047600071a620009140780030c6b30080cf500081
:1047700003003a0010c0b30067eab7000300370037
:1047800067cabf000040e80067eab70067cabf0019
:104790000080fb00c200dd00408d20000080400052
:1047a00010007800614060000004e000ecff32007f
:1047b00067cabf000000fb00018c2000801f78004a
:1047c000b0fc2900801f780001007800dcee0700b3
:1047d000e4875700028c200011c0b3000040eb00ba
:1047e0000f0307006d003700a05c800061006000cf
:1047f0000000e0001400320090458000a1458000d8
:1048000005f8070080007800028c2000b0fd290028
:10481000801f7800b0fd2900801f7800811f78007c
:1048200010fe2900801f780002007800c4ee070007
:10483000e8875700028c200011c0b3000040eb0055
:10484000f702070055003700a05c8000620060009e
:104850000000e00019003200f05c8000015d800083
:104860000ef807000004be000205be00904580005f
:10487000a1458000e8f7070080007800028c200046
:10488000b0fd2900801f7800889fbe008a9fbe006f
:10489000811f7800b0fe2900801f78000200780098
:1048a000a7ee0700ee875700028c200011c0b3006e
:1048b0000040eb00da02070038003700105d80008e
:1048c000215d8000f5f70700009fbe000297be0043
:1048d000f05c8000015d8000f0f707000004be007e
:1048e0000205be0090458000a1458000caf7070080
:1048f000018c20003e02be002e03be00849fbe003d
:10490000869fbe00889fbe008a9fbe00801f7800e1
:1049100080ff2900801f78000100780088ee0700e2
:10492000f4875700028c200011c0b3000040eb0058
:10493000bb0207001900370002cbbf000080fb005c
:104940007100b90080007800a0a72000008040001e
:1049500090468800904680000001780011c0b300a6
:104960000040eb00ae0207000c00370002cbbf0096
:104970000080fb007100b9008000780090a6200044
:10498000008040009046880090468000000178003a
:1049900011c0b3000040eb00a10207004f05be00ac
:1049a0004f04be000080fa00000006000200fa007a
:1049b000000f78000080fa00000006000800fa00ee
:1049c0000040eb00b0e8b7000c003700b0c8bf00f3
:1049d0000080fb0080004000008520000080400037
:1049e0001000780001002000e0458800f1458800b3
:1049f000b0c8bf000040e800b0e8b700b0c8bf00d2
:104a0000ef4f5000f1ff3600e0458000f145800097
:104a1000c409de004c0add004401de000201720020
:104a200022079800330798002e009000be009000e7
:104a3000e00f5000e08f5800050035002e00900078
:104a4000be009000b4f70700008fbe0012003700d0
:104a50002e009000610160006000b800030020009b
:104a600002007000838070002e029000be02900051
:104a70008501d1000481d3000200700083807000a2
:104a8000a5f70700008fbe001e01be001e00be007d
:104a9000cdf70700008fbe001e00be0090458800c5
:104aa000a145880090458000a14580007bf7070064
:104ab00084ca2a0015502a00c6ff2f0037f52300ac
:104ac0001ef8070064662600656626006626250037
:104ad000b708240019f807008df8070090458800f2
:104ae000a14588000080fa00000006000000fa00de
:104af0000040eb00a6ebb7000040eb00acebb700ca
:104b000040c6b300abebb700940ba900942ba900ef
:104b10000040eb007cebb7000040eb007debb70002
:104b2000880ba9008c0ba900900ba900882ba8006a
:104b3000842ba800802ba8008c2ba800902ba80009
:104b4000c0142000505c880040012000705c880088
:104b5000c0032000905c8800d105200090f92f0050
:104b6000dafc0700f10f2000d0f92700dbfc07007a
:104b70008080eb00d0f92f00ddfc0700819323003b
:104b8000d0fb2f00defc070081932300d0fb2f0019
:104b9000e0fc0700a1c2bf003040b300a1e2b700b3
:104ba000a0c2bf007f40600001c4b300014070009c
:104bb000a0e2b700a042a800a3c2bf007f406000ef
:104bc000a3e2b700212a200091407800c0c3b300bf
:104bd00000c07000a2e2b700a222a900412a200072
:104be00091407800f0c3b30000c07000a4e2b700a9
:104bf000a5c2bf00f041b300a5e2b700100020003d
:104c0000301588000000eb00501588000080eb0094
:104c100040158800a802a900a822a900a1e2a900c5
:104c20000080200000168800300020003016880028
:104c3000002020009016880050202000f0168800e8
:104c40000201070081e0a90083e0a9001000210013
:104c5000a004880000202100b00488000000230088
:104c6000c004880010002000e0048800001121002a
:104c7000f00488000000eb00200488000000eb0036
:104c8000300488000000eb00400488009088280071
:104c900060048800000e2000700488000000eb0013
:104ca0008004880000003700005c80006200600023
:104cb0000000e00007003200005c8000610060003e
:104cc0000000e000030032003cff0700800ba90059
:104cd000f5ff3700205c8000620060000000e0000b
:104ce00007003200205c8000610060000000e000ee
:104cf0000300320045030700840ba900eaff3700d8
:104d0000405c8000620060000000e00007003200ac
:104d1000405c8000610060000000e00003003200a1
:104d20000dfe0700880ba900dfff3700605c8000e4
:104d3000620060000000e00007003200605c80005c
:104d4000610060000000e000030032009d020700e7
:104d50008c0ba900d4ff3700805c800062006000eb
:104d60000000e000d0ff3200805c80006100600045
:104d70000000e000ccff3200fa020700900ba9000f
:104d8000c9ff37000000fa000080fa00004006006a
:104d9000801f78003400f80000002000a001880087
:104da0000000fa008460a900505c80000000e90067
:104db000505c8800505c80000000e00003003a0076
:104dc000880ba800c0142000505c8800705c800034
:104dd0000000e900705c8800705c80000000e0006a
:104de00003003a008c0ba80040012000705c880092
:104df000905c80000000e900905c8800905c80007e
:104e00000000e00003003a00900ba800c00320005f
:104e1000905c8800f05b80000000e900f05b880097
:104e20000080fa003400f9004f00780000400600ce
:104e3000809fbe00829fbe003400f800000020006a
:104e4000a00188000000fa008560a9000028200069
:104e5000d04588000040eb00b1e8b70010003700f3
:104e6000b1c8bf008081fb00b1c8bf000080fb005b
:104e70004200dd0080007800d045800000804000c6
:104e800010017800838041000085200000804000f0
:104e900002087800b1c8bf000040e800b1e8b700e0
:104ea000b1c8bf00ef4f5000edff3600800ba800e7
:104eb0000080fa003400f9004f01be004f00be0030
:104ec00000400600809fbe00829fbe003400f800b4
:104ed00000002000a00188000000fa007ccbbf0089
:104ee0000040e8007cebb7007ccbbf00ea4f5000ed
:104ef00002003a000040eb007cebb7007ccbbf0027
:104f00008080fb00a00880006101b800c208dd00bd
:104f1000c0b22000008040000288be00840ba800c0
:104f20000000eb00a00888008400a9000080fa00bf
:104f30003400f9004f01be004f00be0000400600e3
:104f4000809fbe00829fbe003400f8000000200059
:104f5000a00188000000fa007dcbbf000040e800ff
:104f60007debb7007dcbbf00ea4f500002003a0056
:104f70000040eb007debb7007dcbbf008080fb00e5
:104f8000c00880006101b800c208dd0040b0200008
:104f9000008040000288be00840ba8000000eb00e7
:104fa000c008880086e0a9000080fa003400f900fb
:104fb0004f01be004f00be00004006003400f80064
:104fc000881f780008002000a80188004f0478009e
:104fd0000000fa0084e0a9000080fa003400f90023
:104fe00000400600801f78003400f8000000200018
:104ff000a00188000000fa0086a0a900942ba80058
:105000000000eb00a00888000080fa003400f900de
:105010004f00780000400600801f78003400f80040
:1050200000002000a00188000000fa0086c0a9004e
:10503000940ba8000000eb00c00888000080fa0074
:105040003400f9004f007800004006000000fa002c
:10505000007d20000903070000c3b3002200070001
:10506000401f20000503070000c3b3001e00070017
:10507000401f20000103070000c3b3001a0007000f
:10508000401f2000fd02070080c3b3000e00070090
:1050900040c1b3000c000700c0c0b3000a00070005
:1050a00010c0b3000800070060c0b300060007008e
:1050b0000040eb00aeebb7000040eb00afebb700f9
:1050c0000080fa00000006000200fa00004f78009d
:1050d0000c000700e082a9001e40780031000700a4
:1050e0000080fa00000006000200fa00004f78007d
:1050f000e082a9001e4078002a0007000080fa0024
:10510000000006000200fa000040eb00004f7800ab
:105110001e003700e082a900d462a800e0a2a80027
:105120000000000000000000d4c2bf006440600026
:105130000004e00002003a0010c0b300004f780005
:10514000000000000000000000000000000000005f
:10515000e0a2a90000000000000000000000000024
:10516000000000000000000000000000e0a2a80015
:10517000000000000000000000000000000000002f
:105180000000000000000000e0a2a9001e04e000f2
:10519000e0ff3200e0a2a900d462a9000080fa007a
:1051a000000006000200fa00004f7800c702a900c4
:1051b000c722a900c742a900c762a900c782a900e7
:1051c000d202a900d222a900d242a900d462a90029
:1051d0001e00fb00610060000004e00002003200dd
:1051e000c902a80001003700c902a9001e00fb0087
:1051f0000000d100610060000004e0000200320005
:10520000c922a80001003700c922a9001e00fb0026
:105210004200de00610060000004e0000200320095
:10522000c942a80001003700c942a9001e00fb00c6
:105230004300de00610060000004e0000200320074
:10524000c962a80001003700c962a9001e00fb0066
:105250004400de00610060000004e0000200320053
:10526000c982a80001003700c982a9001e00fb0006
:105270004500de00610060000004e0000200320032
:10528000d402a80001003700d402a9001e00fb00d0
:105290004600de00610060000004e0000200320011
:1052a000d422a80001003700d422a9001e04e00087
:1052b00002003d00d442a80001003700d442a900fa
:1052c000e0a2a800000000000000000000000000b4
:1052d000000000000000000000000000e0a2a900a3
:1052e00000000000000000000000000000000000be
:1052f0000000000000000000c702a800c722a800ac
:10530000c742a800c762a800c782a800d202a800ae
:10531000d222a800d242a8000080fa0000000600b5
:105320000200fa00004f780076ff0700e082a80034
:105330001e4078009bff07000080fa000000060076
:105340000400fa00000f78002f0037001e007800dc
:1053500010407800f2ff07001e0fe800aecbbf0040
:105360000040e800aeebb700aecbbf00ef4f5000ff
:10537000250036000040eb00aeebb700afcbbf001e
:105380000040e800afebb700afcbbf00e14f5000eb
:10539000020036000040eb00afebb700afcbbf0020
:1053a0000080fb00100798001e0090000000e00045
:1053b000040032001e009000e10f50000400320093
:1053c000050037000040eb00b0ebb70002003700eb
:1053d00000c4b300b0ebb70001bb200091407800df
:1053e000aecbbf0000c04000b0ebb700b0cbbf00f9
:1053f0008040780000c8b30000c04000b0ebb700a8
:10540000b0cbbf0030ff07001e00780010407800ce
:105410000004e000cdff3a000080fa000000060022
:105420000800fa00204798003147980022079800aa
:105430000040eb00004f78002e409000aeebb7002c
:105440003e409000afebb700afcbbf000080fb0049
:10545000300798003e0090000000e0000400320099
:105460003e009000e10f50000400320005003700bc
:105470000040eb00004f78000200370000c4b3008a
:10548000004f7800aecbbf001e4f40009e4078001a
:1054900000c8b30000c04000004f78001e407800f4
:1054a00009ff07002e009000a5ff07000080fa000a
:1054b000000006000000fa0062b520008040eb000a
:1054c0000040eb00d6ff070072b6200011c0b30009
:1054d0000040eb00d2ff07000080fa000000060049
:020000040000fa
:1054e000a60b00000800000000000000560b0000a2
:1054f00022000000020000002020200020202000c8
:10550000202020002020200020202000200020003b
:10551000202020002020200020202000202020000b
:105520002020200000000000ae0b0000040000005e
:1055300000000000780b00001e00000000000000ca
:10554000660a00009e000000020000000001090041
:10555000546f6d00617220004d65640069636900dd
:105560006f6e2000200054006172610072202000e4
:1055700020202000202020002020200000426f005a
:105580007272610072202000202020002020200064
:10559000202000004f6b20007061720061207400b9
:1055a00065726d00696e610072000000000000000d
:1055b00000000000000000000000000000000000eb
:1055c00000626900656e2000616c6d0061636500ba
:1055d0006e616400612000005461720061723f00de
:1055e0002020200020202000202020002000430038
:1055f000616e6300656c6100722020002020200035
:10560000204f6b0000626f007272610064612000c5
:10561000202020002020200020200000000000008a
:10562000500800001602000000000000960b000069
:105630001000000002000000000000000000000058
:10564000000000000000000000000000000000005a
:10565000040b000052000000000000004e0c00008f
:10566000120000000200000001000200000400001f
:105670000800100000000000202b2d002330000047
:10568000600c00000800000002000000686a6c0066
:10569000747a4c0000000000b20b000048000000cb
:1056a0000200000000000000000000002440000094
:1056b0000000000000005900400000000000000051
:1056c00088c34000000000000084d700974100001c
:1056d00080e0370079c3410043176e0005b5b5007f
:1056e000b8934600f5f93f00e9034f00384d32000a
:1056f0001d30f900487782005a3cbf00737fdd00ff
:105700004f157500fa0b0000320000000200000087
:105710004e414e00006e61006e0049004e46000092
:10572000696e6600003031003233340035363700a0
:105730003839610062636400656600003031320010
:105740003334350036373800394142004344450090
:10575000460000002c0c00002200000002000000a7
:105760003031320033343500363738003961620069
:105770006364650066003000313233003435360032
:1057800037383900414243004445460000000000dc
:10579000680c000002000000020000000000000091
:1057a0006a0c00000200000002000000300000004f
:1057b0006c0c00000200000002000000000000006d
:0457c00000000000e5
:020000040000fa
:1057c4000400fa0040168000000f780030168000b4
:1057d4001007980000802100301688000000eb00bc
:1057e4004016880005010700c902a900c922a900c2
:1057f400c942a900a6cbbf000040e800a7ebb70050
:10580400a7cbbf000040e900a7ebb700a7cbbf00c0
:105814000004e00001003a00c902a800a7cbbf00c1
:105824000040e900a7ebb700a7cbbf000004e000ed
:1058340001003a00c922a800a7cbbf000040e9003c
:10584400a7ebb700a7cbbf000004e00001003a00bb
:10585400c942a800a7cbbf0000c0e800a7ebb7006f
:1058640040c6b300a8ebb700c9c2bf0068406000df
:105874000004e000020032000040eb00a8ebb70097
:10588400c9c2bf00704060000004e00002003200a2
:1058940030c0b300a8ebb70081ba20009140780073
:1058a40040c6b30080cf50001f00320071ba200000
:1058b40091407800a8cbbf0000c04000aaebb7001d
:1058c400a1ba200091407800abcbbf0080cf50003c
:1058d40012003a00a9cbbf000040e800a9ebb700d2
:1058e400a9cbbf00f44f50001b003a000040eb006e
:1058f400a9ebb700d1ba20009140780040c6b300ac
:1059040080cf500014003a00abcbbf00acebb70023
:10591400abcbbf00adebb7000f003700aacbbf0085
:10592400abebb7000c00370040c6b300acebb700dc
:1059340040c6b300adebb700a6cbbf000040e80003
:10594400a6ebb700a6cbbf00e34f500002003a001d
:105954000040eb00a6ebb7000080fa000000060050
:105964000200fa00accbbf000080fb00000f7800ff
:105974001e007800e20f5000140032001e00780070
:10598400e20f500007003c001e0078000000e00019
:10599400140032001e007800e10f50000f003200a6
:1059a400150037001e007800e40f50000f0032008d
:1059b4001e007800e40f5000060035001e00780039
:1059c400e50f50000b0032000b00370092f907007e
:1059d4000900370029fa0700070037006efa0700ac
:1059e40005003700abfa070003003700c1fa0700cf
:1059f40001003700f3f9070040c6b300acebb70071
:105a04000080fa00000006000000fa006000b80000
:105a1400d05c8800e15c8800a05c800062006000cb
:105a24000000e00016003a000040eb0054ebb70021
:105a34000f00370054cbbf000080fb00c200dd0024
:105a4400c0b22000008040001000be00b1f3070087
:105a5400d25c8000e35c8000daf30700d05c88004d
:105a6400e15c880054cbbf000040e80054ebb70071
:105a740054cbbf00e94f5000eeff3600070037005b
:105a84007ccbbf000080fb00c200dd00c0b2200060
:105a9400008140006000b8000089be00d05c800036
:105aa400e15c80000200200003122400c2f407001d
