:020000040000fa
:080000000001040000000000f3
:020000040000fa
:100200002f81200000ff2000000188000000000076
:100210000c000700e035200001002000110007005d
:10022000000020000000e000020032000000020098
:100230000000000086020200000000000040da001a
:100240000000fe004440a900000020000000e00083
:100250000300320000002000a00188004440a800f4
:100260000000060091018800800078000000eb008b
:1002700015003700e280400032a0b4009101ba00be
:10028000e280400032a0b4009102ba00e280400057
:1002900032a0b4000002eb00472bde00f507b200ed
:1002a000602ce10004003a000059eb008301e900f2
:1002b000fdff3e00040037006128e100010032002c
:1002c0000082eb00040007001101ba000200e00008
:1002d000e8ff3a00000006003159ba008301e90046
:1002e0000c0032002159ba008301e90008003200f5
:1002f0000400e00003003a00e280400032a0b400b5
:10030000f5ff370011d9ba008301e900faff3a007e
:100310008100e800e180400032a0b4000000060047
:100320000021ef0011088800200888000000060066
:100330000621ef0061088800800888001061a9008c
:10034000000006000a21ef0071088800900888006c
:0403500000000600a3
:020000040000fa
:100008006c0300006c0300006c0300006c0300002c
:100018006c0300006c0300006c0300006c0300001c
:100028006c0300006c0300006c0300006c0300000c
:100038006c0300006c0300006c0300006c030000fc
:100048006c0300006c0300006c0300006c030000ec
:100058006c0300006c0300006c0300006c030000dc
:100068006c0300006c0300006c0300006c030000cc
:100078006c0300006c0300006c0300006c030000bc
:100088006c0300006c0300006c0300006c030000ac
:100098006c0300006c0300006c0300006c0300009c
:1000a8006c0300006c0300006c0300006c0300008c
:1000b8006c0300006c0300006c0300006c0300007c
:1000c8006c0300006c0300006c0300006c0300006c
:1000d8006c0300006c0300006c0300006c0300005c
:1000e8006c0300006c0300006c0300006c0300004c
:0800f8006c0300006c03000022
:020000040000fa
:100108006c0300006c0300006c0300006c0300002b
:100118006c0300006c0300006c0300006c0300001b
:100128006c0300006c0300006c0300006c0300000b
:100138006c0300006c0300006c0300006c030000fb
:100148006c0300006c0300006c0300006c030000eb
:100158006c0300006c0300006c0300006c030000db
:100168006c0300006c0300006c0300006c030000cb
:100178006c0300006c0300006c0300006c030000bb
:100188006c0300006c0300006c0300006c030000ab
:100198006c0300006c0300006c0300006c0300009b
:1001a8006c0300006c0300006c0300006c0300008b
:1001b8006c0300006c0300006c0300006c0300007b
:1001c8006c0300006c0300006c0300006c0300006b
:1001d8006c0300006c0300006c0300006c0300005b
:1001e8006c0300006c0300006c0300006c0300004b
:0801f8006c0300006c03000021
:020000040000fa
:100354000400fa00a0168000104798009016800050
:100364002047980080012000901688000000eb00d0
:10037400a016880020002000bc000700c902a900c4
:10038400c922a900c942a9000ac8bf000040e80068
:10039400004f78001e4fe90000c0eb009e4f100094
:1003a40001003a00c902a8001e4fe90000c0eb009a
:1003b4009e4f100001003a00c922a8001e4fe90018
:1003c40000c0eb009e4f100001003a00c942a80093
:1003d400c9c2bf00684060000004e00002003200af
:1003e40040c0b300004f7800c9c2bf007040600035
:1003f4000004e0000200320080c0b300004f780027
:100404001e04e000030032000ac8bf001e40400082
:100414000be8b7000ac8bf000040e8000ae8b700cc
:100424000ac8bf00e24f50001e0036000040eb0037
:100434000ae8b7000bc8bf000004e00007003a0058
:100444000040eb000ce8b7000040eb0010e8b700f8
:100454000040eb000de8b700120037000bc8bf00e6
:1004640000c0e9000be8b700b1802000914078009b
:100474000cc8bf0080cf500006003a000dc8bf0072
:1004840010e8b7000dc8bf000bc8bf000040eb0068
:10049400004f78001e4078000ce8b7000040eb00e5
:1004a4000be8b70001812000914078000dc8bf001f
:1004b40080cf5000060032000dc8bf000ee8b70020
:1004c4000dc8bf000fe8b7000dc8bf0010e8b700a3
:1004d4002e4090000080fb00901688001e40900083
:1004e4000080fb00a01688000080fa0000000600cf
:1004f4000000fa000ec8bf000040eb000ee8b70091
:100504000080fa00000006000000fa000040eb0042
:100514000ae8b7000040eb000ce8b7000040eb002d
:100524000ee8b7000040eb000be8b7000040eb001a
:1005340010e8b7000040eb000de8b7000408a9007c
:100544000608a9000808a9000428a9000628a9008b
:100554000828a90040c1b30005e8b70030c0b300c3
:1005640007e8b70090c0b30009e8b700f10f200016
:1005740090f92f0069ff07008c60a8005109200042
:1005840091407800f0c8b30000c060000044a000af
:1005940095e0b700f10f2000d0f92f0063ff0700aa
:1005a4008cc0a800710920009140780080cfb3006e
:1005b40000c060000014a00097e0b700f10f200015
:1005c400d0f92f005eff07008ce0a800710920001d
:1005d40091407800f0c8b30000c060000044a0005f
:1005e40097e0b70000003700204080006200600000
:1005f4000000e0000600320020408000610060003e
:100604000000e000020032000408a900f6ff3700f1
:1006140030408000620060000000e000060032000c
:1006240030408000610060000000e0000200320001
:100634000608a900ecff370040408000620060001b
:100644000000e000060032004040800061006000cd
:100654000000e000020032000808a900e2ff3700b1
:100664000000eb000080fa00000006000400fa001d
:10067400100798000b0037000000eb00000f780013
:1006840002003700000000001e0fe80050bd2000eb
:100694009e0f1000fbff34001e0090000000e900d4
:1006a400100798001e0090000000e000f2ff3a00de
:0806b4000080fa0000000600be
:020000040000fa
:1006bc000a0800000800000000000000000800000c
:0c06cc000a000000000000000000000018
:020000040000fa
:0406d8000000fe0020
:00000001FF
