:020000040000fa
:080000000001040000000000f3
:020000040000fa
:100200006f81200000ff2000000188000000000036
:100210000c000700c066200001002000110007004c
:10022000000020000000e000020032000000020098
:1002300000000000aa030200000000000040da00f5
:100240000000fe004440a900000020000000e00083
:100250000300320000002000a00188004440a800f4
:100260000000060091018800800078000000eb008b
:1002700015003700e280400032a0b4009101ba00be
:10028000e280400032a0b4009102ba00e280400057
:1002900032a0b4000002eb00472bde00f507b200ed
:1002a000602ce10004003a000059eb008301e900f2
:1002b000fdff3e00040037006128e100010032002c
:1002c0000082eb00040007001101ba000200e00008
:1002d000e8ff3a00000006003159ba008301e90046
:1002e0000c0032002159ba008301e90008003200f5
:1002f0000400e00003003a00e280400032a0b400b5
:10030000f5ff370011d9ba008301e900faff3a007e
:100310008100e800e180400032a0b4000000060047
:100320000021ef0011088800200888000000060066
:100330000621ef0061088800800888001061a9008c
:10034000000006000a21ef0071088800900888006c
:0403500000000600a3
:020000040000fa
:10000800c2040000c2040000c2040000c2040000d0
:10001800c2040000c2040000c2040000c2040000c0
:10002800c2040000c2040000c2040000c8040000aa
:10003800c2040000c2040000c2040000c2040000a0
:10004800c2040000c2040000c2040000120500003f
:10005800c2040000c2040000c2040000c204000080
:10006800c2040000c2040000c2040000c204000070
:10007800c2040000c2040000c2040000c204000060
:10008800c2040000c2040000c2040000c204000050
:10009800c2040000c2040000c2040000c204000040
:1000a800c2040000c2040000c2040000c204000030
:1000b800c2040000c2040000c2040000c204000020
:1000c800c2040000c2040000c2040000c204000010
:1000d800c2040000c2040000c2040000c204000000
:1000e800c2040000c2040000c2040000c2040000f0
:0800f800c2040000c204000074
:020000040000fa
:10010800c2040000c2040000c2040000c2040000cf
:10011800c2040000c2040000c2040000c2040000bf
:10012800c2040000c2040000c2040000c8040000a9
:10013800c2040000c2040000c2040000c20400009f
:10014800c2040000c2040000c2040000120500003e
:10015800c2040000c2040000c2040000c20400007f
:10016800c2040000c2040000c2040000c20400006f
:10017800c2040000c2040000c2040000c20400005f
:10018800c2040000c2040000c2040000c20400004f
:10019800c2040000c2040000c2040000c20400003f
:1001a800c2040000c2040000c2040000c20400002f
:1001b800c2040000c2040000c2040000c20400001f
:1001c800c2040000c2040000c2040000c20400000f
:1001d800c2040000c2040000c2040000c2040000ff
:1001e800c2040000c2040000c2040000c2040000ef
:0801f800c2040000c204000073
:020000040000fa
:100354000000fa00401f20004b02070000c3b30056
:1003640022000700400620004702070000c3b30034
:100374001e000700400620004302070000c3b3002c
:100384001a000700400620003f02070080c3b300a4
:100394000e00070040c1b3000c000700c0c0b3004a
:1003a4000a00070010c0b3000800070060c0b300d3
:1003b400060007000040eb0012e8b7000040eb0025
:1003c40013e8b7000080fa00000006000200fa00fb
:1003d400004f78000c000700e082a9001e4078005e
:1003e400250007000080fa00000006000200fa0061
:1003f400004f7800e082a9001e4078001e0007002c
:100404000080fa00000006000200fa000040eb0041
:10041400004f780012003700e082a900d462a800df
:10042400e0a2a800d4c2bf00644060000004e00061
:1004340002003a0010c0b300004f7800e0a2a90007
:10044400000000000000000000000000e0a2a8007e
:10045400000000000000000000000000e0a2a9006d
:100464001e04e000ecff3200e0a2a900d462a9005f
:100474000080fa00000006000200fa00004f780035
:10048400c702a900c722a900c742a900c762a900e0
:10049400c782a900d202a900d222a900d242a9008f
:1004a400c902a900c922a900c942a900c962a900b8
:1004b400c982a900d402a900d422a900d442a90067
:1004c400d462a9001e00fb00610060000004e0008b
:1004d40001003200c902a8001e00fb000000d10088
:1004e400610060000004e00001003200c922a8009d
:1004f4001e00fb004200de00610060000004e0001a
:1005040001003200c942a8001e00fb004300de00c7
:10051400610060000004e00001003200c962a8002c
:100524001e00fb004400de00610060000004e000e7
:1005340001003200c982a8001e00fb004500de0055
:10054400610060000004e00001003200d402a80051
:100554001e00fb004600de00610060000004e000b5
:1005640001003200d422a8001e04e00001003d0076
:10057400d442a800e0a2a80000000000000000008f
:1005840000000000e0a2a90000000000000000003c
:1005940000000000c702a800c722a800c742a800a4
:1005a400c762a800c782a800d202a800d222a8006d
:1005b400d242a8000080fa00000006000200fa00ff
:1005c400004f780090ff0700e082a8001e407800ea
:1005d400a9ff07000080fa00000006000400fa00ea
:1005e400000f78002f0037001e00780010407800bc
:1005f400f2ff07001e0fe80012c8bf000040e80029
:1006040012e8b70012c8bf00ef4f500025003600b3
:100614000040eb0012e8b70013c8bf000040e80038
:1006240013e8b70013c8bf00e14f500002003600c2
:100634000040eb0013e8b70013c8bf000080fb00c4
:10064400100798001e0090000000e0000400320033
:100654001e009000e10f5000040032000500370036
:100664000040eb0014e8b7000200370000c4b300f8
:1006740014e8b700418120009140780012c8bf00ff
:1006840000c0400014e8b70014c8bf0080407800e0
:1006940000c8b30000c0400014e8b70014c8bf008d
:1006a4004aff07001e007800104078000004e000b4
:1006b400cdff3a000080fa00000006000800fa00ae
:1006c4002047980031479800220798000040eb002b
:1006d400004f78002e40900012e8b7003e40900092
:1006e40013e8b70013c8bf000080fb003007980070
:1006f4003e0090000000e000040032003e00900044
:10070400e10f500004003200050037000040eb0008
:10071400004f78000200370000c4b300004f780097
:1007240012c8bf001e4f40009e40780000c8b300ae
:1007340000c04000004f78001e40780023ff0700ef
:100744002e009000a5ff07000080fa0000000600bc
:100754000000fa000040eb000ae8b7000040eb009c
:100764000ce8b7000040eb000ee8b7000040eb00d7
:100774000be8b7000040eb0010e8b7000040eb00c6
:100784000de8b7000408a9000608a9000808a90094
:100794000428a8000628a8000828a800d0cdb30083
:1007a40005e8b70040c1b30007e8b700c0c3b30011
:1007b40009e8b700d105200090f92f00d7fe070003
:1007c400f10f2000d0f92f00d8fe070011272000d8
:1007d400d0f92700dafe0700a1c2bf003040b30001
:1007e400a1e2b700a0c2bf007f40600001c4b30013
:1007f40001407000a0e2b700a042a800a3c2bf005d
:100804007f406000a3e2b700212a200091407800d5
:10081400c0c3b30000c07000a2e2b700a222a900c6
:10082400412a200091407800f0c3b30000c070005a
:10083400a4e2b700a5c2bf00f041b300a5e2b7002f
:1008440010002000301588000000eb0050158800cf
:100854000080eb0040158800a802a900a822a90086
:10086400a1e2a8000040eb000ae8b7000500370049
:10087400803e2000040107000ac8bf000040e800d1
:100884000ae8b700a18020009140780030c6b30088
:1008940080cf5000f6ff3600adfe070081e0a900ce
:1008a40083e0a90010002100a0048800002021009a
:1008b400b004880000002300c00488001000200059
:1008c400e004880000112100f00488000000eb001f
:1008d400200488000000eb00300488000000eb00d6
:1008e40040048800908028006004880000082000ec
:1008f400700488000000eb008004880000003700ca
:1009040020408000620060000000e0000600320029
:1009140020408000610060000000e000020032001e
:100924000408a900f6ff3700304080006200600030
:100934000000e000070032003040800061006000e9
:100944000000e000030032003f0007000608a90091
:10095400ebff370040408000620060000000e000d0
:10096400e7ff320040408000610060000000e000ca
:10097400e3ff32009a0007000808a900e0ff3700ef
:100984000000fa000080fa0000400600801f780092
:100994003400f80000002000a00188000000fa00e4
:1009a4008460a90005c8bf000040e90005e8b7005d
:1009b40005c8bf000004e00003003a000408a800d2
:1009c400d0cdb30005e8b70007c8bf000040e90078
:1009d40007e8b70007c8bf000004e00003003a00be
:1009e4000608a80040c1b30007e8b70009c8bf0063
:1009f4000040e90009e8b70009c8bf000004e000ae
:100a040003003a000808a800c0c3b30009e8b7000f
:100a14000080fa003400f9004f007800004006001e
:100a24003400f800881f780008002000a80188001e
:100a34004f0478000000fa008560a9000080fa00e5
:100a44003400f900004006000600fa004016800059
:100a540010079800301680002007980000802100bd
:100a6400301688000000eb004016880010002000bb
:100a740085000700c902a900c922a900c942a9002a
:100a84000ac8bf000040e800004f78001e4fe9008c
:100a940000c0eb009e4f100001003a00c902a800fc
:100aa4001e4fe90000c0eb009e4f100001003a0009
:100ab400c922a8001e4fe90000c0eb009e4f1000a1
:100ac40001003a00c942a800c9c2bf0068406000e2
:100ad4000004e0000200320040c0b300004f780080
:100ae400c9c2bf00704060000004e0000200320090
:100af40080c0b300004f78001e04e0000300320001
:100b04000ac8bf001e4040000be8b7000ac8bf0077
:100b14000040e8000ae8b7000ac8bf00e24f5000ee
:100b24001e0036000040eb000ae8b7000bc8bf0007
:100b34000004e00007003a000040eb000ce8b700b6
:100b44000040eb0010e8b7000040eb000de8b700f0
:100b5400120037000bc8bf0000c0e9000be8b70063
:100b6400b1802000914078000cc8bf0080cf5000b5
:100b740006003a000dc8bf0010e8b7000dc8bf005a
:100b84000bc8bf000040eb00004f78001e40780007
:100b94000ce8b7000040eb000be8b700018120002f
:100ba400914078000dc8bf0080cf5000060032008d
:100bb4000dc8bf000ee8b7000dc8bf000fe8b700ae
:100bc4000dc8bf0010e8b7002e0090003016880052
:100bd4001e009000401688000080fa000000060005
:100be4000200fa000ec8bf000080fb00000f78006e
:100bf4001e007800e40f50001a0032001e00780036
:100c0400e40f500007003c001e007800e20f500083
:100c1400160032001e007800e30f50000b00320073
:100c2400150037001e007800e70f50000b0032005b
:100c34001e007800e80f50000e0032001e007800fd
:100c4400e60f5000030032000b00370000000000e4
:100c54000900370000000000070037000000000012
:100c6400050037000000000003003700000000000a
:100c740001003700000000000040eb000ee8b70060
:100c84000080fa00000006000400fa001007980033
:100c94000b0037000000eb00000f78000200370063
:100ca400000000001e0fe800400220009e0f10000c
:100cb400fbff34001e0090000000e90010079800bc
:100cc4001e0090000000e000f2ff3a000080fa00ed
:040cd4000000060016
:020000040000fa
:100cd8000a080000080000000000000012080000d8
:100ce8000400000000000000000800000a000000e6
:080cf8000000000000000000f4
:00000001FF
