:020000040000FA
:0600000011EF28F01200D0
:06002A000200645000001A
:10003000D00300000F0000005850000040010000F5
:040040000C000000B0
:0C00440006EC19F082E942E8026A036A47
:10005000010ED89003BE03D0025C000E03580CE2E0
:10006000340E0224E96E030E0320EA6E010EEF6ED9
:10007000022A000E0322ECD70301DD6B8AEC20F08C
:10008000B20EE66E030EE66E19DA42E9000904E1EB
:100090000301446B010E01D0000EF36EF46A43E9D4
:1000A00013EF19F06AEC1EF04BE830EC19F0260E55
:1000B00037EC1DF00C6EED500D6E0B0E106E30EC2B
:1000C00019F05AEC20F030EC19F05DEC20F06FECF8
:1000D00019F02A0EFDEC18F0FF0EEE180A6EFF0E56
:1000E000ED180B6E0C500D1004E19FEC1EF009E1B1
:1000F00006D00C500F0B05E09FEC1EF002E11B0E2A
:10010000106E1B0E105C01E195D0105001E192D0F1
:1001100097EC1AF0D5EC0BF044E90E6E020E0E5C73
:1001200001E188D00E5001E07ED030EC19F02A0EAB
:1001300037EC1DF0086EED50096E3F0E0816000EEC
:1001400009160050010A20E0010A70E1080E0818A3
:1001500001E109506BE0106A6D0E116E0F6A0B0E13
:100160000F5C64E256EC20F097EC1FF00F509CEC13
:100170001AF0EF504AEC20F03EEC19F04FE1E2515A
:10018000E0194CE10F2AEBD7030108500A14DF6F86
:1001900009500B14E06FDF51E01148E10F0E081811
:1001A00001E1095043E0106A6D0E116E6FEC19F019
:1001B0001B0E14EC1DF02A0815E00F6A080E0F5CE8
:1001C00011E264EC1DF00EE03F0E125C09E03EEC23
:1001D00019F002E1E251E01903E00B0E106E02D0BB
:1001E0000F2AECD76FEC19F06DEC1FF0080E14EC31
:1001F0001DF02A081BE0105019E1080E0F6E0B0EBF
:100200000F5C14E264EC1DF011E03F0E125C09E09B
:100210003EEC19F002E1E251E01903E00B0E106E22
:1002200005D00F2AECD7015001E1106A0C2A000E0C
:100230000D226BD710504CE913EF19F09BEC1EF018
:1002400048E80E6A7DEC19F0EE50076EED50086E2E
:1002500085EC1AF01D0E14EC1DF002E1070E24D0FF
:100260007DEC19F05AEC20F07DEC19F05DEC20F0FB
:10027000C2EC19F0EE50ED1004E12AEC1EF00BE197
:1002800008D0C2EC19F043EC1EF005E02AEC1EF099
:1002900002E11B0E0E6EB8EC1FF0D5EC0BF044E93A
:1002A000096E095003E00B0E0E6E6CD07DEC19F058
:1002B0000E0E6AEC1DF07DEC19F0020E1CEC1DF028
:1002C0007DEC19F0060E18EC1DF07DEC19F06DECCC
:1002D0001CF07DEC19F00C0EEB6A0D0EEB6A0904B4
:1002E00003E10B0E0E6E38D07DEC19F0060E62ECB9
:1002F0001FF0A4EC1DF065EC20F0BCEC1AF003013B
:10030000DB5105E0EDEC1BF002E0090E3CD003EB05
:10031000D5F304EBD6F30301D7510A1808E1D851FD
:100320000B1805E1D9510C1802E1DA510D1814E04F
:10033000DD6B85EC1AF02BEC19F0EFEC19F08AEC80
:100340001AF002E1080E0E6E0AEBD7F30BEBD8F3AE
:100350000CEBD9F30DEBDAF398EC1DF0EF94770E7C
:10036000005C03E0610E005C07E198EC1DF0EF809B
:1003700098EC1DF0EF9206D098EC1DF0EF9098EC01
:100380001DF0EF820E5049E913EF19F06AEC1EF0F0
:1003900053E8186A30EC19F0EE50196EED501A6EF1
:1003A00019EBE9FF1AEBEAFF47EC20F0020A14E030
:1003B000030A0DE0020A10E1F80E146E15681668C3
:1003C0000F0E176E106811681268136E0ED0F80EBB
:1003D000146E0F0E156E03D0F80E146E1568166AA3
:1003E000176A10681168126A136A30EC19F070EC21
:1003F00020F00C6EEE500D6EEE500E6EEF500F6E44
:100400000CEBE6FF77EC1BF019EBE6FF1AEBE6FFCF
:1004100002EC20F00BE10950111808E10A50121803
:1004200005E10B50131802E1080E1BD019EBE9FF90
:100430001AEBEAFF140E37EC1DF0085CEE50095879
:10044000EE500A58EE500B5802E30A0E186E145084
:10045000085C1550095816500A5817500B5802E3FB
:100460003C0E186E30EC19F0060EFDEC18F008EB9F
:10047000EEFF09EBEEFF0AEBEEFF0BEBEFFFD9CF40
:10048000E9FFDACFEAFFEF06EECFDFF3EF5AEECF68
:10049000E0F3EF5AEECFE1F3EF5AEFCFE2F3D8807B
:1004A000DF55000EE055000EE155000EE25502E268
:1004B00018509BE0185054E913EF19F0CCEC1DF0E4
:1004C00041E8046A01EC19F01D0EFDEC18F0EF6A2A
:1004D00001EC19F0000EEE6E040EED6E72EC23F0DE
:1004E000010805E0060E046E0301446F15D051ECBF
:1004F0001DF016D842E9046E04500EE151EC1DF0D7
:10050000C6D842E9046E045007E101EC19F01D0E53
:10051000FDEC18F0010EEF6E045042E913EF19F0F4
:10052000CCEC1DF046E8066AE8EC1FF024EC20F065
:10053000E3EC1CF005E0080E066E0301446FA3D047
:1005400022EC1EF0086EED50096E11EC1AF000EC72
:100550001FF05DE111EC1AF004EC1FF058E111EC12
:100560001AF0360E14EC1DF0460824E111EC1AF0D6
:10057000360EA5EC1EF01EE111EC1AF0360E08EC5A
:1005800020F018E111EC1AF0360EFDEC18F0030E15
:1005900014EC1DF031080EE111EC1AF0260E14ECEB
:1005A0001DF0290807E13BEC20F06AEC1DF0F0ECAF
:1005B0001DF02AD011EC1AF0520E14EC1DF0460872
:1005C00026E111EC1AF0520EA5EC1EF020E111EC20
:1005D0001AF0520E08EC20F01AE111EC1AF0520E4B
:1005E000FDEC18F0030E14EC1DF0330810E111ECD3
:1005F0001AF0420E14EC1DF0290809E13BEC20F042
:100600006AEC1DF0F3EC1DF0EF6E000E3DD022EC15
:100610001EF0046EED50056E30EC19F000EC1FF08A
:1006200005E130EC19F004EC1FF003E00301040EC7
:1006300028D0ACEC1EF0080E1CEC1DF03BEC20F0BA
:1006400018EC1DF0ACEC1EF0040E14EC1DF0076E5F
:1006500007500B0A10E0070A0EE0080A09E0020A38
:1006600007E0080A05E00F0A0AE1B3EC1EF005D026
:10067000F0EC1DF002D0F3EC1DF0EF6E04D003019E
:10068000050E446F066E065047E913EF19F0CCECE7
:100690001DF053E8106AE8EC1FF03BEC20F062EC30
:1006A0001FF0E3EC1CF003E00301080E11D022EC74
:1006B0001EF0116EED50126ECEEC19F000EC1FF032
:1006C00005E1CEEC19F004EC1FF005E00301030E88
:1006D000446F106E72D1CEEC19F00D0E14EC1DF0BB
:1006E000E66E9BEC1DF0D9EC1DF0CEEC19F00E0E71
:1006F00006EC1DF0030108EC1FF0020E37EC1DF0B4
:100700000CEC1FF0060E26EC20F0100E14EC1DF081
:10071000E66E01EC19F01A0EFDEC18F0D9EC1DF0A4
:10072000CEEC19F0160EF5EC1FF073EC20F037EC60
:100730001DF0ED1005E1CEEC19F0240EF5EC1FF0E4
:1007400086EC1FF02BEC19F001EC19F01A0E14ECEA
:100750001DF0E66EE66A2FEC1EF008EC1FF070EC60
:1007600020F00CEC1FF00A0E26EC20F0110E06EC27
:100770001DF001EC19F0120E5BEC1DF0CEEC19F03F
:10078000130E37EC1DF0ED100CE0CEEC19F0130E4B
:1007900006EC1DF0DF51086EE051096E0A6A0B6A23
:1007A0000CD0CEEC19F0200E37EC1DF0086EEE5098
:1007B000096EEE500A6EEF500B6ECEEC19F00B0E78
:1007C00037EC1DF0136EED50146E1350141009E049
:1007D000010E1314DF6FE06B010EDF1906E1E0512B
:1007E00004E10301030E446FE9D0CEEC19F0FFECF5
:1007F0001FF02BEC19F0200EE66EE66ACEEC19F035
:10080000110EFDEC18F02BEC19F0BDEC25F0E552C3
:10081000E5CFE4F3E7CFE3F3CEEC19F0FFEC1FF004
:10082000EECFE5F3EFCFE6F30301E507E65BE35137
:10083000E525E16FE451E621E26FE1C3E6FFE66EF4
:10084000C4EC1AF05BEC1CF0066A076A04EBE7F3F1
:1008500005EBE8F306EBE9F307EBEAF301EC19F03B
:100860000A0E37EC1DF0E727EE50E823EE50E9239F
:10087000EE50EA23D950080F60EC19F0E751EE5C16
:10088000E36FE851EE58E46FE951EE58E56FEA5135
:10089000EE58E66F3BEC20F0FDEC18F0E351EE244F
:1008A000DF6FE451EE20E06FE551EE20E16FE6519D
:1008B000EE20E26F020EDF27000EE023E123E223A9
:1008C000DF510C6EE0510D6EE1510E6EE2510F6E74
:1008D0009BEC1DF04FEC1BF00CEBE6FF77EC1BF0F4
:1008E0004BEC1BF001EC19F0140E18EC1DF06EEC43
:1008F0001EF00F0EEE58000EEE58000EEE5803E2FA
:10090000B3EC1EF00ED06EEC1EF0FF0EEE58000E93
:10091000EE58000EEE5803E2F0EC1DF002D0F3ECBE
:100920001DF0EF6E01EC19F047EC20F0030816E122
:10093000CEEC19F02C0EFDEC18F0EECF40F3EECF1C
:1009400041F3EECF42F3EFCF43F3F1EC1BF001ECB8
:1009500019F00A0E37EC1DF003011FD00301406BA4
:10096000416B426B436BCFEC1FF0EECFE3F3EFCF65
:10097000E4F30301040EE56FE551E3C3DFF3E4C3E1
:10098000E0F304E0030193EC1BF0FDE1030108EC4C
:100990001FF00A0EFDEC18F0EE500CEC1FF00E0EDE
:1009A00026EC20F00B0E37EC1DF002E1020EED18E4
:1009B00004E0030E106E0301446F105054E913EF6E
:1009C00019F0CCEC1DF044E8046A056A066A076A6F
:1009D00001EC19F0140E06EC1DF05BEC1CF0066A3D
:1009E000076AF1EC1BF0100E1F0B04E003014DEC45
:1009F0001AF0FDE15BEC1CF0E151066EE251076E6E
:100A000001EC19F01A0E06EC1DF047EC1BF0040F78
:100A100060EC19F0DF51EE12E051EE12E151EE12EE
:100A2000E251EE1204EBEBF305EBECF306EBEDF326
:100A300007EBEEF345E913EF19F026EC1EF04CE856
:100A40006FEC19F0E8EC1CF06FEC19F0300E10ECC4
:100A50001FF001EC19F035EC1EF004E0030193ECFB
:100A60001BF0FDE10301DF51096E18EC19F047ECB2
:100A700020F0010A05E0030A03E0010A1BE10DD0A2
:100A80000E500301401908E10F50411905E11050C3
:100A9000421902E1115043190DE018EC19F06DEC08
:100AA0001FF0EFCFE6FF09EBE6FF9EEC25F041E9F2
:100AB000E750096E6AEC1AF0D0EC1DF0BCEC1AF0AD
:100AC000E66A18EC19F02BEC19F009EBDFF3E06B98
:100AD00047EC1BF00A0F60EC19F0EE50BEEC19F079
:100AE000ABEC19F014EC1FF002E1086A02D0010E21
:100AF000086E08504DE913EF19F06AEC1EF04DE84E
:100B0000146A01EC19F047EC20F0010A14E0030A22
:100B10000EE0010A16E11068116812680F0E136EDC
:100B2000F80E0C6E0D680E680F0E0F6E0AD0B8EC42
:100B30001CF00D6804D0B8EC1CF00F0E0D6E0E6AA0
:100B40000F6A025003100410051009E0010E02188C
:100B500009E1035007E1045005E1055003E1020EED
:100B6000146E51D014504FE182EC19F0BFEC1CF020
:100B700002EC20F00BE10950111808E10A5012189C
:100B800005E10B50131802E1010E0FD008500910B7
:100B90000A100B1009E0010E081809E1095007E1DD
:100BA0000A5005E10B5003E1020E146EDBD70C5026
:100BB000085C0D5009580E500A580F500B5802E3AC
:100BC000020E146E24EC20F0E66A82EC19F0BFEC01
:100BD0001CF0ECEC1FF00301DF5110180BE1E051A9
:100BE000111808E1E151121805E1E251131802E170
:100BF000010E146E88EB02F089EB03F08AEB04F02F
:100C00008BEB05F0AFD731EC1AF051EC1DF059EC3D
:100C10001BF0020E145C02E1010E01D0000E4EE941
:100C200013EF19F09BEC1EF056E87DEC19F0EE5036
:100C3000096EED500A6E7DEC19F02C0E37EC1DF0AC
:100C40000F6EEE50106EEE50116EEF50126E7DEC86
:100C500019F0300E37EC1DF0176EEE50186EEE5096
:100C6000196EEF501A6EC2EC19F035EC1EF004E06C
:100C7000030193EC1BF0FDE10301DF511B6E3EEC21
:100C80001FF0010A0DE0030A0BE0010A15E176EC02
:100C90001EF0F80E136E146815680F0E166E0CD049
:100CA0000F5010101110121002E076EC1EF0F80E2A
:100CB000136E1468156A166A005006E1C2EC19F04A
:100CC00043EC1EF001E0ABD01B500AE1C2EC19F07E
:100CD00035EC19F00301100EDF5D000EE05902E261
:100CE000005033E00F5010101110121005E1176A78
:100CF000186A196A1A6A29D0005012E086EC19F0B5
:100D00001B0E14EC1DF061EC1CF0BDEC25F0C2ECE8
:100D100019F02BEC19F0C4EC1AF00301DF5101D0EB
:100D2000010E1C6E1C5011E01FEC1BF08AEC1DF034
:100D3000DF51176EE051186EE151196EE2511A6ED3
:100D4000FAEC1BF002E21C06EDD7FAEC1BF061E2B4
:100D50007DEC19F0300EFDEC18F017EBEEFF18EB00
:100D6000EEFF19EBEEFF1AEBEFFF1FEC1BF068EC48
:100D70001FF0B6EC1BF01750030140191EE118508C
:100D800041191BE11950421918E11A50431915E194
:100D9000ADEC1DF086EC19F00E0E37EC1DF0DF5DAA
:100DA000EE50E059EE50E159EE50E25906E3030EE1
:100DB000E36F3EEC1FF0E35D2FE10301DB5106E042
:100DC000EDEC1BF003E0B4EC1CF030D00301D56B6C
:100DD000D66BDD6B86EC19F02BEC19F0ADEC1DF049
:100DE000ABEC19F0E3EC1CF003E0076A086A0BD0E7
:100DF000005003E075EC1DF005D086EC19F0EE50C4
:100E0000076EED50086E0301D769D869D969DA69B0
:100E100009D00301010EDC6F076A086A03D075EC84
:100E20001DF0086E07EBF3FF08EBF4FF57E913EF33
:100E300019F09BEC1EF04DE8086A0301446B076A49
:100E40000B0E075C14E27DEC19F06DEC1FF0E9CF9E
:100E5000E1F3EACFE2F30750F2EC1AF0D950090FB0
:100E600042EC1BF0075037EC1AF0072AE9D7C2EC26
:100E700019F0EE6AED6AB8EC1FF06FD844E900098A
:100E800014E051EC1DF002EBE6FFD950090F56ECCF
:100E90001DF0C2EC1DF0D5D847E9086E085007E1F7
:100EA000C2EC1DF00AD842E901D0140E086E08EB1E
:100EB00044F308504EE913EF19F0CCEC1DF04DE867
:100EC00001EC19F0260E37EC1DF00D6EED500E6E94
:100ED000D950050FB4EC19F0C3EC0FF044E9046EDF
:100EE000045037E1D9500D0FB4EC19F06AEC0CF056
:100EF00044E9F3500F6EF450106E03EC1CF0030144
:100F0000E16BE26BEDEC1CF01A0E5BEC1DF003ECF8
:100F10001CF0DF6BE06B0F0EE21748EC1DF081EC6C
:100F20001DF0100EC7EC19F0FDE1030148EC1DF0B7
:100F3000EDEC1CF0140EFDEC18F072EC1CF0D95026
:100F40000D0FB4EC19F079DD44E9010802E0090E57
:100F5000046E04504EE913EF19F026EC1EF04BE836
:100F6000010E066E42EC1FF098EC19F00F6EF45073
:100F7000106E0F50101003E11B0E066E5AD00604BF
:100F800056E1076A22EC1EF0096EED500A6EE66A21
:100F900098EC19F00F6EF450106EEDEC1CF0EF5061
:100FA000086E01EC19F0EE2A000EEF22E50E085C47
:100FB00002E0085007E10F50101004E0072A010E6C
:100FC000075CE5E30F5010102CE16FEC19F0300EC8
:100FD000FDEC18F0FBEC1AF00B500301401917E17F
:100FE0000C50411914E10D50421911E10E504319F2
:100FF0000EE16FEC19F0EE50EFCFEAFFE96E47EC2F
:1010000020F0030807E17BEC1EF007E103D07BEC46
:101010001EF003E1020E066EB2D719EC1FF0066A4D
:10102000AED70704ACE1066A19EC1FF0A8D719EC9B
:101030001FF0065002E1010E01D0000E4CE913EF43
:1010400019F006EC19F089E943E8096AABEC1AF0EB
:101050005AEC20F0ABEC1AF05DEC20F0010EE66EDD
:101060000CEC1CF03FEC20F0F3500A6EF4500B6EC9
:101070000A500B1002E11B0EABD00B0EE66EE66AB7
:10108000C2EC1DF09FEC19F03EEC1AF0FFEC26F0DC
:1010900046E9120E005C06E19FEC19F0FFEC1FF030
:1010A000100E05D09FEC19F0FFEC1FF0200EEF6E34
:1010B0009FEC19F00C0EFDEC18F0EF6A9FEC19F0A4
:1010C000140EEB6A150EEB6A9FEC19F01A0EEB6A20
:1010D0001B0EEB6A9FEC19F01C0E6AEC1DF09FECE6
:1010E00019F00D0EFDEC18F0B20EEF6E9FEC19F03A
:1010F0000E0EFDEC18F0780EEE6E720EED6E9FEC9B
:1011000019F0100E1DEC1FF0120E005C14E09FECA5
:1011100019F0120E1DEC1FF09FEC19F0160EFDECED
:1011200018F0790EEE6E720EED6E9FEC19F0180E3F
:101130001DEC1FF012D09FEC19F0120EEB6A130E8B
:10114000EB6A9FEC19F0160EEB6A170EEB6A9FEC38
:1011500019F0180EEB6A190EEB6A9FEC19F01C0ED1
:101160001CEC1DF0ABEC1AF0120E18EC1DF09FEC0D
:1011700019F00E0E06EC1DF0ABEC1AF0170E5BEC3E
:101180001DF09FEC19F0100E06EC1DF0ABEC1AF000
:10119000190E5BEC1DF09FEC19F00B0E14EC1DF01A
:1011A000E66EABEC1AF02A0EF9EC1DF0C2EC19F069
:1011B00035EC19F0ABEC1AF0260E5BEC1DF00CECE4
:1011C0001CF03BDC44E9010802E0090E096E0950FD
:1011D00044E913EF19F006EC19F085E94AE8C2EC8E
:1011E00019F0EE50056EED50066EC2EC19F070EC81
:1011F00020F0076EEE50086EEE50096EEF500A6E4A
:10120000F0EC1FF055D842E90FEC19F00301DF5163
:10121000076EE051086EE151096EE2510A6E075007
:10122000081009100A1002E1150E3FD0ABEC1AF0BD
:10123000C7EC1DF006E1E66AF80EE66E0F0EE66EEC
:1012400008D0ABEC1AF047EC20F0020805E177EC8F
:101250001CF0E66AE66A05D077EC1CF0E6680F0E33
:10126000E66E24EC1BF004EC1EF0FBEC1AF0E66AD0
:10127000A4EC1DF009EBE6FFEFEC19F00EEBE6FF36
:101280005DEC1EF004EC1EF007EBEEFF08EBEEFF4A
:1012900009EBEEFF0AEBEFFF000406E124EC1BF084
:1012A00029EC10F046E901D0000E4BE913EF19F0DC
:1012B000CCEC1DF056E8066A076A086A096A22EC57
:1012C0001EF0046EED50056E01EC19F070EC20F08C
:1012D0000A6EEE500B6EEE500C6EEF500D6E50EC31
:1012E0001FF0010A13E0030A0DE0010A19E1F70EED
:1012F000126E136814680F0E156E1668176818685A
:10130000196E0ED0F70E126E136804D0F70E126E1F
:101310000F0E136E146A156A16681768186A196A30
:10132000020E0A5C000E0B58000E0C58000E0D58F1
:1013300005E2020E0A6E0B6A0C6A0D6A8AEB0EF069
:101340008BEB0FF08CEB10F08DEB11F0EFEC19F054
:101350005FEC1DF07FEC16F046E90FEC19F07CEC29
:101360001CF051E0EFEC19F05FEC1DF08AEC1DF081
:10137000DF51066EE051076EE151086EE251096ED1
:101380000650161809E10750171806E108501818FA
:1013900003E10950191833E006500710081009102E
:1013A00032E0D9500A0F62EC1EF00650121808E124
:1013B0000750131805E10850141802E109501518D8
:1013C0000DE030EC19F0140E37EC1DF00A5CEE5015
:1013D0000B58EE500C58EE500D5805E3020E0A6EF5
:1013E0000B6A0C6A0D6A0A500E18B9E10B500F18FF
:1013F000B6E10C501018B3E10D501118B0E10A6AB3
:101400000B6A0C6A0D6A0AEBEBF30BEBECF30CEBDB
:10141000EDF30DEBEEF357E913EF19F0D9CFE6FF3B
:10142000DACFE6FFE1CFD9FFE2CFDAFF84E948E87F
:10143000480E086E096A0301446B00EBE9FF01EBFB
:10144000EAFF260EE926000EEA22EE50046EED5069
:10145000056E00EBE9FF01EBEAFF160EE926000E30
:10146000EA22EF50010B01E1A3D00301DB510AE0B6
:101470005BEC12F0000906E00301090E446FF3680B
:10148000F468D2D0010EE66EE66AE66AE66AE66ABB
:10149000E66AE66AE66AE66A00EBE9FF01EBEAFF64
:1014A000EECFE6FFEECFE6FF93EC17F04BE9EBC390
:1014B000DFF3ECC3E0F3EDC3E1F3EEC3E2F3D950A5
:1014C000040FE66E000EDA20E66E00EBE6FF01EB9D
:1014D000E6FF00DA44E9F3500A6EF4500B6E0A504E
:1014E0000B100AE103011B0E446F0868096808EB42
:1014F000F3FF09EBF4FF98D00AEBE6FF0BEBE6FFF6
:1015000099D842E9000000EBE9FF01EBEAFF120E77
:10151000E926000EEA22EECFDFF3EECFE0F3EECFC6
:10152000E1F3EFCFE2F30AEBE9FF0BEBEAFF1C0E6E
:10153000E926000EEA22DFC3EEFFE0C3EEFFE1C3BF
:10154000EEFFE2C3EEFF00EBE9FF01EBEAFF2A0E3C
:10155000E926000EEA22EF50E66E0AEBE9FF0BEBFC
:10156000EAFF0B0EE926000EEA22E552E750EF6E85
:10157000D950040FE66E000EDA20E66E00EBE6FFAF
:1015800001EBE6FF1DEC05F044E9000903E0086A01
:10159000096A05D00301090E446F0868096800EB69
:1015A000E9FF01EBEAFF160EE926000EEA22EF90B2
:1015B000066A076A010E065C000E075829E206EB70
:1015C000DFF307EBE0F30301340EE003F3CFE0F3C6
:1015D000340EDF03F3CFDFF3F450E027000E0301F6
:1015E000DF27030E0301E0230301DF51001802E1AE
:1015F000E051011809E1340E0624E96E030E0720BC
:10160000EA6E010EEF6E04D0062A000E0722D2D732
:10161000480E081801E1095002E1086A096A08EB5E
:10162000F3FF09EBF4FF00D049E9E5CFDAFFE7CF9C
:10163000D9FF1200CCEC1DF046E889EC1FF0EECF8C
:10164000DFF31F0E0301DF15046E89EC1FF0C3ECFE
:101650001CF0070EE217050E0BEC1BF004E0030173
:1016600093EC1BF0FDE10301DF51056E01EC19F075
:10167000160E06EC1DF0DF17F80EE017E051E06BD8
:10168000E830E830E8301F0BDF6FDF51066E86EC84
:101690001FF0EECFDFF31F0EDF15076E86EC1FF095
:1016A000C3EC1CF0010EE217050E0BEC1BF004E07E
:1016B000030193EC1BF0FDE10301DF51086E73ECB5
:1016C00020F006EC1DF0DF17FE0EE017E0C3DFF39D
:1016D000E06BD890DF33DF51096E1D0E045C02E22F
:1016E000042A1CD0046A3B0E055C02E2052A16D0CF
:1016F000056A170E065C02E2062A10D0066A1E0E64
:10170000075C02E2072A0AD0010E076E0C0E085C85
:1017100002E2082A03D0010E086E092A0450E66E80
:1017200001EC19F0160EF9EC1DF005500FEC1CF051
:1017300006E00301D890DF37E037E804FBE189ECED
:101740001FF0030181EC1CF00650DF6FE06BDF51EE
:10175000DF6BE834E834E834F80BE06F89EC1FF015
:1017600081EC1CF00750E66E73EC20F0F9EC1DF0F4
:1017700008500FEC1CF006E00301D890DF37E0378B
:10178000E804FBE186EC1FF0030181EC1CF009503A
:10179000DF6FE06BE06FDF6BD890E03786EC1FF017
:1017A00081EC1CF047E913EF19F026EC1EF047E836
:1017B0000C6A01EC19F043EC1EF007E122EC1EF07C
:1017C000ED1003E042EC1FF001D0E66A49EC1EF098
:1017D00018EC19F0EF50096E0650071002E009509E
:1017E00002E1020E04D0E50E095C03E1010E0B6E6E
:1017F0006DD0A0EC1FF0096E086A080E085C05E2C7
:1018000018EC19F020EC1DF0F8D7A0EC1FF0096ED1
:1018100018EC19F0080E14EC1DF00A6E086A030E9D
:10182000085C08E218EC19F0080EFDEC18F020EC4A
:101830001DF0F5D701EC19F035EC19F06FEC19F04B
:10184000260E5BEC1DF018EC19F0EF50096EE50E5A
:10185000095C03E1010E0B6E01D00B6A18EC19F064
:101860001C0E1CEC1DF06FEC19F0120E18EC1DF0A4
:101870004BEC1FF0E1EC04F042E90FEC19F06FECD7
:1018800019F0020EFDEC18F018EC1CF0A0EC1FF0A3
:10189000096E0950E66E6FEC19F02A0EF9EC1DF096
:1018A00009A807D018EC19F00E0EC1EC1FF0100EAD
:1018B00006D018EC19F0160EC1EC1FF0180E06EC4D
:1018C0001DF06FEC19F0190E5BEC1DF00B5048E9A0
:1018D00013EF19F026EC1EF043E842EC1FF049EC40
:1018E0001EF00650071022E018EC19F0EF50086EB9
:1018F000085002E1066A076A065007101AE0E50E72
:10190000085C03E1066A076A14D0A0EC1FF0086EB9
:101910000F0E085C0EE101EC19F0EE2A000EEF222A
:10192000E66A49EC1EF006500710EFE1B4EC1CF03B
:1019300004D006EBF3FF07EBF4FF44E913EF19F0D3
:101940009BEC1EF04AE80A6A7DEC19F0EE500F6E2F
:10195000ED50106E7DEC19F02C0EFDEC18F0FBEC48
:101960001AF07DEC19F0300EFDEC18F0DDEC1DF0F6
:10197000B8EC1FF03FEC20F07EEC1BF005E103011A
:10198000010E446F1B0E54D085EC1AF0EF50096E17
:101990000750081005E0095003E0E50E095C02E17C
:1019A0000B0E1BD085EC1AF00B0E14EC1DF0096E1B
:1019B00085EC1AF0E50EEF6EA4EC1DF0E1EC04F0FE
:1019C00042E90FEC19F0B6EC1BF00A5005E1B8EC57
:1019D0001FF0F7EC1CF003E1010E0A6E20D00B5053
:1019E0000301401908E10C50411905E10D5042195D
:1019F00002E10E50431913E0005011E00FEBE6FF37
:101A000010EBE6FFB6EC1EF00EEBE6FF7DEC05F00A
:101A100046E9000902E0000E01D0010E0A6E0A50EC
:101A200003E10301446B03D00301010E446F0A502C
:101A30004BE913EF19F026EC1EF054E8076A010E8B
:101A4000146E156A0301446B0050011002E1190E77
:101A500090D0E66A9BEC1DF03EEC1AF01BEC1CF0FB
:101A600003E10301120E85D0066A0B0E065C10E23C
:101A70009BEC1DF0EACFE2F30650F2EC1AF0D950DD
:101A8000080F42EC1BF0065037EC1AF0062AEDD78F
:101A900001EC19F0260E37EC1DF0166EED50176EA6
:101AA000146A156AA8EC1FF0010EE66E0AEC1EF02F
:101AB0003EE0066A0B0E065C07E2F3EC19F002E06A
:101AC000010E076E062AF6D707501CE0076A0301CD
:101AD000DC6BE66A0AEC1EF004E10301DC051AE0A7
:101AE00026D021EC1FF0EF5015E0066A0B0E065CC5
:101AF00007E2F3EC19F002E0010E076E062AF6D7B2
:101B0000075003E10301110E34D0076A142A000EB6
:101B10001522DFD796EB14F097EB15F0A8EC1FF029
:101B200029EC20F0D7DE44E985EC1BF003E103014A
:101B30001B0E1FD0066A0B0E065C14E29BEC1DF018
:101B4000E9CFE1F3EACFE2F30650F2EC1AF021EC30
:101B50001FF097EC1FF006504FEC1EF0D9EC1DF073
:101B6000062AE9D729EC20F0F7EC1CF006E1030186
:101B7000090E446FF368F46803D0000EF36EF46A44
:101B800055E913EF19F026EC1EF048E8066A076ADB
:101B9000086A096A010ED89009BE03D0085C000EDD
:101BA00009581DE212EC1BF0EF5015E012EC1BF08F
:101BB000EF6A340EE66EE66A08EBE6FF09EBE6FF35
:101BC000BDEC25F0FE0EE350000F066E41E9030E5A
:101BD000E520076E04D0082A000E0922DBD7065044
:101BE000071003E10301200E10D0E66A18EC19F08B
:101BF0006DEC1FF03EEC1AF01BEC1CF00AE112EC4D
:101C00001BF0010EEF6E0301120E446FB4EC1CF0DA
:101C1000E6D001EC19F0EF500A6E18EC19F0B20E94
:101C2000EE6E030EED6E18EC19F0020E6AEC1DF06C
:101C300018EC19F0060E6AEC1DF018EC19F0260EDF
:101C4000EB6A270EEB6A18EC19F0BDEC1EF018ECED
:101C500019F02C0E66EC1EF018EC19F0300E66EC44
:101C60001EF04BEC1FF0D6EC1AF04BEC1FF052ECD0
:101C700000F046E900096FE10A50520A5BE0200AD1
:101C800059E0330A21E0200A1FE0160A05E0200A85
:101C900003E09DEC1BF08DD06EEC1DF00EEC1EF001
:101CA00001E087D055EC1EF001E083D038EC1FF046
:101CB00002E09DEC1BF00D5001E07BD08BEC19F0A5
:101CC00045EC1AF076E16FD018EC19F0120E1CEC0E
:101CD0001DF019EC1BF014E06EEC1DF038EC1FF059
:101CE00002E09DEC1BF00D5064E18BEC19F00D50FF
:101CF00003E003011A0E446F45EC1AF05AE153D089
:101D00006EEC1DF00EEC1EF054E155EC1EF051E1AE
:101D100038EC1FF002E09DEC1BF00D504AE18BEC1B
:101D200019F00D5003E003011A0E446F45EC1AF050
:101D300040E139D06EEC1DF0720E9FEC1DF045ECC9
:101D40001AF037E118EC19F043EC20F032E1A5EC81
:101D50001FF0EF802ED026EC1FF04BEC1FF0EDD8DB
:101D600044E9770E0A5C09E0570E0A5C06E0610E52
:101D70000A5C03E0410E0A5C1AE10B6A0C6A55EC3E
:101D80001EF017E138EC1FF002E09DEC1BF00D5047
:101D900010E18BEC19F00D5003E003011A0E446FB3
:101DA00045EC1AF006E1A5EC1FF0EF8202D00B0E15
:101DB0000D6EFFEC21F0000903E0A5EC1FF0EF90A1
:101DC0000D5007E012EC1BF0010EEF6E066A076A79
:101DD00002D00301446B06EBF3FF07EBF4FF49E984
:101DE00013EF19F0CCEC1DF00301446BD4EC1FF0A1
:101DF000EECFEBF3EECFECF3EECFEDF3EECFEEF371
:101E000041E913EF19F0CCEC1DF043E84A0E046EE3
:101E1000030E056E0301446BFFEC21F0000903E0A3
:101E20000301180E5FD0E66A56EC20F03EEC1AF083
:101E300051EC1DF079EC13F045E9000903E10301D1
:101E4000120E50D030EC19F0B20EEE6E030EED6EA5
:101E500030EC19F0020E6AEC1DF030EC19F0060EB1
:101E60006AEC1DF030EC19F0260EEB6A270EEB6AD7
:101E700030EC19F0BDEC1EF030EC19F02C0E66ECD5
:101E80001EF030EC19F0300E66EC1EF05FEC1DF029
:101E9000D6EC1AF05FEC1DF052EC00F046E9066E4D
:101EA000065003E003010B0E1DD030EC19F043EC9B
:101EB00020F003E00301130E15D0010EE66E30ECA6
:101EC00019F0260EFDEC18F03EEC1AF05FEC1DF058
:101ED00037DD45E9066E065003E1B4EC1CF005D091
:101EE0000301010E446FF368F46844E913EF19F03D
:101EF000CCEC1DF00301DB5101E0DDDA01EC19F05F
:101F00000E0E6AEC1DF034EC1FF0EB6A0D0EEB6A5E
:101F1000C4EC1EF0020E1CEC1DF001EC19F0060ED4
:101F200018EC1DF00301D56BD66B41E913EF19F0E6
:101F300003014451F36EF46A120026EC1EF046E8E9
:101F400082EB07F083EB08F080EB09F081EB0AF0FD
:101F5000340E066E0B6A06500B5C12E20B5009241D
:101F6000E96E000E0A20EA6EEF50E66E0B50072471
:101F7000E96E000E0820EA6ED9EC1DF00B2AEBD7B3
:101F800047E913EF19F026EC1EF043E8086A6FECFE
:101F900019F0E8EC1CF0BCEC1FF058EC09F042E939
:101FA000C9EC1EF001EC19F018EC1CF001EC19F072
:101FB00021EC19F019EC1BF002E1150E45D018ECDC
:101FC00019F0C7EC1DF012E1E66AF80EE66E0F0E8E
:101FD000E66EE66AE66A3BEC1DF030E1E868E0197F
:101FE0002DE1E1512BE1E25129E126D018EC19F065
:101FF00047EC20F002080FE177EC1CF0E66AE66A95
:102000003BEC1DF01BE1E868E01918E1E15116E135
:10201000E25114E111D077EC1CF0E6680F0EE66E89
:102020003BEC1DF00BE1E868E01908E1E868E11914
:1020300005E10F0EE21902E1090E086E085005E1F4
:1020400060EC20F006D846E9086E085044E913EF2A
:1020500019F06AEC1EF046E80D6A51EC1DF082ECB6
:1020600019F005EBE6FF68EC1FF0030148EC1DF0EA
:102070000301DB5105E0EDEC1BF002E0090E3BD063
:102080000301D56BD66BDD510CE1FCEC1CF030ECA0
:1020900019F02BEC19F0A2EC26F045E90301010E32
:1020A000DD6F086A30EC19F01B0E14EC1DF0085CB3
:1020B00021E20D501FE1E66A30EC19F02BEC19F02B
:1020C0002BEC1FF0EFCFDFF3EE2A000EEFCFE0F3A3
:1020D000EE22EFCFE1F3EE22EFCFE2F3EF22ABEC13
:1020E00019F08DEC21F047E9010802E0090E0D6EB0
:1020F000082AD8D70D5047E913EF19F06AEC1EF003
:1021000044E850EC1FF0010A05E0030A03E0010A6D
:1021100055E11FD0005001100210031009E0010E1C
:10212000001817E1015015E1025013E1035011E1CD
:1021300000EBDFF301EBE0F302EBE1F303EBE2F39F
:1021400030EC19F00A0E37EC1DF00301D0EC1EF054
:1021500032D056EC20F04FEC1BF000EBE3F301EB38
:10216000E4F302EBE5F303EBE6F3020E0301E35FB6
:10217000000EE45BE55BE65BE3C3E6FFE4C3E6FF7A
:10218000E5C3E6FFE6C3E6FF2DEC20F030EC19F0E6
:102190000E0EFDEC18F0EECFE7F3EECFE8F3EECF46
:1021A000E9F3EFCFEAF30301E751DF27E851E0233A
:1021B000E951E123EA51E223E0EC1AF008EBEBF3FA
:1021C00009EBECF30AEBEDF30BEBEEF345E913EF60
:1021D00019F006EC19F085E944E80301446BD80EC8
:1021E000001423E1C2EC19F0260E37EC1DF0056E49
:1021F000ED50066EC2EC19F05AEC20F0C2EC19F06A
:102200005DEC20F05CEC1BF06AEC0CF044E97EEC39
:102210001BF003E103011B0E26D085EC1AF00B0E18
:1022200014EC1DF0080B03E003011F0E1CD0C2ECE0
:1022300019F043EC20F00AE0100E0010E66E85EC79
:102240001AF0FFEC1FF0D9EC1DF006D085EC1AF067
:10225000FFEC1FF000EBEFFF5CEC1BF0F7EC1CF069
:1022600006E10301090E446FF368F46803D0000E21
:10227000F36EF46A45E913EF19F006EC19F08AE9F8
:102280005AE882EC19F060EC1AF0126A216A226AAC
:10229000D9EC1FF0010B05E103011D0E446F090E7F
:1022A0000BD07CEC1CF001E1B0D0FFEC21F0000978
:1022B00005E00301180E446F126EA7D00301DD6B19
:1022C000C8EC1FF0136EED50146EDEEC1FF0196EAB
:1022D000EE501A6EEE501B6EEF501C6E70EC1FF03D
:1022E00003010050D51902E10150D61907E0DB5176
:1022F00003E0EDEC1BF04FE18BEC1CF00301D75138
:10230000151808E1D851161805E1D951171802E13E
:10231000DA51181811E0DB5103E0EDEC1BF03BE162
:102320000301DD6BE8EC1DF005E103011B0E446FBA
:10233000080E126E21EC1CF001EC19F0120E37ECB5
:102340001DF01D6EEE501E6EEE501F6EEF50206E93
:10235000125001E087D07CEC1CF001E183D01950D1
:102360001D180CE11A501E1809E11B501F1806E138
:102370001C50201803E189EC1FF0EF8413504AE150
:10238000020E141847E1010E236E0301DB5106E033
:10239000EDEC1BF003E00301090E20D0136A146A70
:1023A00079EC1FF016E1E251E01913E1C4EC1EF0E4
:1023B000160E14EC1DF0040B09E0E66A51EC1DF05A
:1023C000EBEC08F043E9126E236A03D029EC1BF012
:1023D000126E150E125C04E10301150E446F15D048
:1023E000125018E170EC1FF08BEC1CF0235010E041
:1023F000E8EC1DF00DE103011B0E446F080E126E98
:102400000301D769D869D969DA69B4EC1CF050D0F6
:1024100021EC1CF012509CE10EEBE9FF0FEBEAFF00
:10242000EF50E66E13EBDFF314EBE0F3132A000E2C
:102430001422D1EC1AF0C0EC1BF0A6EC1CF0190F22
:1024400062EC1EF018EC1EF0212A2222D9EC1FF0BB
:10245000040B04E0D9501D0F62EC1EF00301010EC5
:10246000DB6F76D734EC1FF0FDEC18F013EBEEFFCA
:1024700014EBEDFFD4EC1FF019EBEEFF1AEBEEFFBF
:102480001BEBEEFF1CEBEFFFCFEC1FF01DEBEEFFA5
:102490001EEBEEFF1FEBEEFF20EBEFFF5FEC1DF0FE
:1024A00021EBE6FF22EBE6FFC4EC1AF001EC1DF095
:1024B0005BE913EF19F006EC19F082E948E8030133
:1024C000D551086ED651096E11EC1AF0E8EC1CF0EB
:1024D00011EC1AF0060E62EC1FF0D0EC1DF0026E4B
:1024E000E051036EE151046EE251056E11EC1AF0F9
:1024F00052EC20F0020FA9EC1DF0E66A18EC19F07E
:102500002BEC19F082EC19F005EBE6FF14EC1FF050
:1025100002E1090E03D00301DB6B000E49E913EF62
:1025200019F0CCEC1DF00301446BCFEC1FF0EECFA3
:10253000E1F3EECFE2F3EECFE3F3EFCFE4F3DEEC43
:102540001FF00301E11908E1EE50E21905E1EE5038
:10255000E31902E1EE50E41902E0000E01D0010E91
:10256000DF6FE06B800B01E0E06901EC1DF041E9F9
:1025700013EF19F006EC19F08AE955E882EC19F02E
:1025800060EC1AF01C6A1D6A1E6A0301446BC8ECF9
:102590001FF01A6EED501B6EDEEC1FF0126EEE5047
:1025A000136EEE50146EEF50156ED9EC1FF0020B47
:1025B00002E11E0E08D00301DB5107E0EDEC1BF039
:1025C00004E00301090E446F17D003010050D51930
:1025D00002E10150D61915E01A5002E1020E1B1853
:1025E00010E08BEC1CF054EC1FF0B8EC1DF007E190
:1025F0000301080E446F1C6EB4EC1CF077D02AEC7B
:102600001CF07CEC1CF056E001EC19F0120E37ECDB
:102610001DF012180CE1EE50131809E1EE501418D9
:1026200006E1EE50151803E103013D0E23D01A50C8
:1026300026E1020E1B1823E11A6A1B6A79EC1FF0CF
:1026400010E1E251E0190DE101EC19F06DEC1CF024
:1026500029EC1BF01C6E1C5004E003010F0E446FAC
:1026600029D054EC1FF08BEC1CF0B8EC1DF005E108
:102670000301080E446F1C6E1DD02AEC1CF01AEBEF
:10268000DFF31BEBE0F31A2A000E1B22D1EC1AF049
:10269000C0EC1BF0EF50E66E0EEBE9FF0FEBEAFF2C
:1026A000A6EC1CF0120F62EC1EF01D2A1E2218EC84
:1026B0001EF0A7D734EC1FF0FDEC18F01AEBEEFF7C
:1026C0001BEBEDFFD4EC1FF012EBEEFF13EBEEFF74
:1026D00014EBEEFF15EBEFFF5FEC1DF01DEBE6FFDB
:1026E0001EEBE6FFC4EC1AF001EC1DF056E913EF07
:1026F00019F09BEC1EF054E81A6A0B0E1A5C06E205
:102700008CEC1BF0200EEF6E1A2AF7D77DEC19F037
:10271000EF502E083FE07DEC19F0EF503BE0C2ECAB
:102720001DF090EC1CF0096EF4500A6E09500C0874
:10273000000E0A542FE3C2EC1DF09CEC1FF0D0EC0D
:1027400026F044E900EBE6FF9CEC1FF066D843E975
:10275000000920E02E0EE66E9CEC1FF0BCEC26F08B
:1027600043E97EEC1BF00EE085EC1AF0EF6A072AD5
:10277000000E0822A4EC1DF0CAEC1BF00308000EAA
:10278000F45408E39CEC1FF0CAEC1BF00808000EA0
:10279000F45402E2000E3ED01A6A9CEC1FF090EC5A
:1027A0001CF01A5C000EF45413E20301D9500B0F15
:1027B00042EC1BF01A50EA6ADF25E96EE051EA228A
:1027C000EF50E66E8CEC1BF0D9EC1DF01A2AE5D721
:1027D000075008101EE085EC1AF0EF501AE01A6A54
:1027E000A4EC1DF090EC1CF01A5C000EF45411E205
:1027F0001A500724E96E000E0820EA6EEF50E66ECC
:102800008CEC1BF0080EFDEC18F0D9EC1DF01A2A28
:10281000E7D7010E55E913EF19F006EC19F085E939
:1028200045E8096AF0EC1FF090EC1CF0056EF450DE
:10283000066E076A086A06340850061804E6055052
:10284000075C0650085801E37ED033EC1CF0200EE4
:102850000301E76EDF1902E7DF3502D0DF51E75CE5
:1028600004E327EC19F0050844E127EC19F02208ED
:1028700040E027EC19F02B083CE027EC19F02C087D
:1028800038E027EC19F02F0834E027EC19F03A086B
:1028900030E027EC19F03B082CE027EC19F03C085D
:1028A00028E027EC19F03D0824E027EC19F03E0859
:1028B00020E027EC19F05B081CE027EC19F05C081D
:1028C00018E027EC19F05D0814E027EC19F07C08FB
:1028D00010E027EC19F02E0802E109040AE000508C
:1028E0000AE127EC19F02A0804E027EC19F03F0868
:1028F00002E1000E29D027EC19F02E0802E1010EAA
:10290000096E33EC1CF0610EE76EDF1902E7E73465
:1029100002D0E750DF5D13E391EC1DF0EFCFE0F361
:102920007A0EE76EE01902E7E03502D0E051E75C8D
:1029300006E3200EDF6F91EC1DF0DF51EF5E072AFA
:10294000000E082278D7010E46E913EF19F006ECC5
:1029500019F08AE94FE882EB15F083EB16F084EB6F
:1029600017F085EB18F018EC19F0EE50126EED50E0
:10297000136E00EBF3FF01EBF4FFF35001E1F450B1
:1029800028E0020EF31801E1F45012E0010EF318F2
:1029900020E1F4501EE118EC19F00E0E1CEC1DF0B5
:1029A000D950150F60EC19F0030174EC19F011D037
:1029B00015EBE3F316EBE4F317EBE5F318EBE6F3B3
:1029C00018EC19F0120EFDEC18F01CEC1AF0C9EC22
:1029D0001AF00301DB5106E0EDEC1BF003E003010C
:1029E000090EE8D018EC19F0020E10EC1FF018ECEC
:1029F00019F0060EFDEC18F00EEBEEFF0FEBEEFFFC
:102A000010EBEEFF11EBEFFF18EC19F0120E10ECCB
:102A10001FF015500E5C16500F58175010581850D4
:102A2000115803E203011F0EC5D0A5EC1FF0EF946F
:102A300018EC19F00E0EE1DB15EBEEFF16EBEEFFD6
:102A400017EBEEFF18EBEFFFFCEC1CF0E66A15EB62
:102A5000E6FF9FEC1AF0EBEC24F041EC1DF00301D3
:102A6000DF51BCEC1AF0FCEC1CF0E66AEFEC19F05C
:102A700030EC1BF0150F60EC19F01CEC1AF0C9ECEF
:102A80001AF0D6DB0C0EB9DB15EBEEFF16EBEDFF03
:102A90005AEC1EF04FEC1BF0EFEC19F04BEC1BF076
:102AA000CFEC1BF06AEC1AF05AEC1EF04FEC1BF066
:102AB00030EC1BF00A0F60EC19F01CEC1AF0BCECC7
:102AC0001AF0B6DB0A0E99DB0AEBEEFF0BEBEDFF1B
:102AD0000E500F101010111042E06AEC1AF004ECC6
:102AE0001BF014503CE03C0E145C36E1A1DB160EEA
:102AF00014EC1DF0010B19E0AFEC1FF0010E0E18E5
:102B000005E10F5003E1105001E1115005E061ECC7
:102B10001BF0000E86EC1EF0E66A4BEC1FF0EBECAF
:102B200008F043E900091BE017D0AFEC1FF061EC9F
:102B30001BF086EC1EF014500FE17ADB0C0E5DDB0F
:102B4000EE6A020EED6E5AEC1EF0EF04E66E70DBDC
:102B50000A0EF9EC1DF003D003010F0E2BD068DB39
:102B6000060E62EC1FF012EBE6FF13EBE6FF68ECDB
:102B70001FF0CFEC1BF05CDB0A0E06EC1DF0D7EC6F
:102B80001EF0D9500E0F9CDB0A50EE260B50EE22A1
:102B90000C50EE220D50EE220301D56BD66BDD6B8F
:102BA00095EC1CF058DB6AEC1AF08AEC1AF006E19E
:102BB00003011B0E446FF368F4680DD00EEBD7F3DE
:102BC0000FEBD8F310EBD9F311EBDAF30301446BFD
:102BD000000EF36EF46A50E926D39BEC1EF04EE82B
:102BE000146A0D0E145C11E214EBE1F30301E26BC5
:102BF000E36BD950020F64DBE0DB070F42EC1BF004
:102C0000145037EC1AF0142AECD751EC1DF0D950BF
:102C1000070F56EC1DF01BEC0DF044E94FE903D310
:102C20006AEC1EF050E8176A0D0E175C0DE217EB08
:102C3000E1F30301E26BE36BD950030F41DBBDDB32
:102C4000080FDEEC1EF0F0D7176A020E175C0EE2DA
:102C500017EBE1F30301E26BE36BD9CFE9FFDACFC6
:102C6000EAFFABDB150FDEEC1EF0EFD7D950150FE6
:102C700056EC1DF0D950080F56EC1DF0C3EC0DF0CA
:102C800044E951E9D0D2D9CFE6FFDACFE6FFE1CF70
:102C9000D9FFE2CFDAFF85E94EE800EBF6FF01EB62
:102CA000F7FF02EBF8FF126A0D0EF36EF46AF350B1
:102CB000125C000EF45413E209000301D950050F11
:102CC000DF6F000EDA20E06F12500301EA6ADF25A1
:102CD000E96EE051EA22F5CFEFFF122AE5D7D9508D
:102CE000050FE66E000EDA20E66E03EC0FF042E907
:102CF00000D04FE9E5CFDAFFE7CFD9FF12006AEC49
:102D00001EF059E80301DD6B50EC1FF0020A23E0CE
:102D1000030A10E0020A1FE1040ED7DA19681A68E4
:102D20001B680F0E1C6EF80E1D6E1E681F680F0EBE
:102D3000206E18D0030EC9DA09EBDFF3010EA7EC01
:102D40001BF0DF51086E2BEC1FF0D6DBCEEC1CF035
:102D50000F0E1E6E05D0020EB8DACEEC1CF01E6807
:102D60001F6A206A81EC1DF0090E11DBFEE178DAA2
:102D7000F9EC1FF00D6EE0510E6EE1510F6EE25155
:102D8000106E2BEC1FF0ACEC1CF00D1852E1D15181
:102D90000E184FE1D2510F184CE1D351101849E1F0
:102DA00050EC1FF0030866E050EC1FF0020870E0E2
:102DB00057DAC7EC1DF001E09BD076DBD9EC1BF0B5
:102DC00005E0E4EC1EF098DBE706FDE12FDB09509F
:102DD0000A100B100C1018E10301D45103E00EECA3
:102DE00020F039E1FDEC1DF00DEBDFF30EEBE0F32D
:102DF0000FEBE1F310EBE2F3030113EC20F026E01C
:102E000037EC1CF0D5EC1CF04FDBEFCFDFF3030108
:102E1000DCEC1CF007E06CEC1BF065E003013DDB33
:102E2000FEE161D08DEC1EF05EE0030136DBFEE1D9
:102E30005AD0D45103E00EEC20F00DE1FDEC1DF072
:102E400077EC1BF010EBE6FF65DB0EE10301D069C8
:102E5000D169D26BD36B19EBEBF31AEBECF31BEBF1
:102E6000EDF31CEBEEF35DD037EC1CF050EC1FF0F3
:102E700003080AE119DBEE50116EEE50126EEE50AF
:102E8000136EEF50146E34D050EC1FF002080AE1BC
:102E90000BDBEBD90301DF51116EE051126E136AA7
:102EA000146A26D0DDD9C7EC1DF022E1FDDAD9EC99
:102EB0001BF005E0E4EC1EF01FDBE706FDE1B6DAEF
:102EC000F3DAEFCFDFF3DCEC1CF007E06CEC1BF087
:102ED0000AE00301E2DAFEE106D08DEC1EF003E029
:102EE0000301DBDAFEE1D950110FEAD90301FCD965
:102EF0001D50115C1E5012581F501358205014586A
:102F000008E39DEB11F09EEB12F09FEB13F0A0EBAA
:102F100014F011EBEBF312EBECF313EBEDF314EB1A
:102F2000EEF35AE980D172D98DE953E83EEC1FF0F7
:102F300003080FE03EEC1FF002080BE0E7D9C7ECF6
:102F40001DF007E00301EB69EC69ED690F0EEE6F10
:102F500052D13EEC1FF0020A0AE0030A08E0020A1E
:102F60000AE11C681D681E680F0E1F6E04D01C68E5
:102F70001D681E6A1F6A0301DD6B00500EE0E3EC62
:102F80001BF018EC20F006E2EBDA01E1F1D08CEC5A
:102F90001FF0F7D70301D46B29D13EEC1FF0020AD2
:102FA00013E0030A04E0020A0FE1040E0ED0030E40
:102FB000FAD910EBDFF3010ECADBDF510E6ED950E8
:102FC000100F7ED999DA02D0020EEDD940EC1CF038
:102FD000090EDDD9FEE19AD9F9EC1FF0186EE05127
:102FE000196EE1511A6EE2511B6ED950100F68D95B
:102FF000ACEC1CF0181808E1D151191805E1D251B8
:103000001A1802E1D3511B1819E0D4510CE0DBDB94
:1030100018EC20F006E2A4DA01E1AAD08CEC1FF053
:10302000F7D70301D46BFDEC1DF0EBEC1EF01BEBAE
:10303000E6FF70DA01E197D049EC1CF03EEC1FF09E
:10304000030833E101EBDFF30301DF51E66E8FD9B3
:10305000D9EC1DF002EBE0F3DF6BE16BE26B080EE5
:1030600096D9FEE184D9E92A000EEA22DFC3EFFFF8
:1030700003EBE1F30301DF6BE06BE26B100E87D92A
:10308000FEE175D9020EB9D8DFC3EFFF04EBE2F31E
:103090000301DF6BE06BE16B0F0EE217180E77D9BF
:1030A000FEE165D9030EE92612D03EEC1FF00208BE
:1030B00013E15DD901EBEFFF02EBE0F30301DF6BFE
:1030C000E16BE26B080E63D9FEE151D9E92A000EEB
:1030D000EA22DFC3EFFF87D019D9C7EC1DF001E06A
:1030E00082D045D9EF500F6E0E501BE001EBDFF39D
:1030F0000F0E03012CDB040E1F0B03E00301CDD9DF
:10310000FEE10F0E0F140301E36FE46BE56BE66B5A
:10311000E351DF13E451E013E551E113E651E2130B
:1031200003D001EBDFF30301F2EC1EF0A9DB1EEC90
:1031300020F03AEC1EF0105011101210131024E180
:1031400090D92FEC1FF0F6EC1DF012E1FDEC1DF014
:1031500018EBDFF319EBE0F31AEBE1F31BEBE2F30F
:1031600013EC20F00EE10301D069D169D26BD36B6F
:103170001CEBEBF31DEBECF31EEBEDF31FEBEEF3AF
:103180003AD087DBD5EC1CF0F2D8EF500F6E0E5022
:1031900007E088DB040E0301FAD8FEE1030121D029
:1031A00081DB080E0301F3D8FEE103010F0EE36F8C
:1031B000E46BE56BE66BE351DF17E451E017E55193
:1031C000E117E651E217F00E0F14E76FE86BE96BB9
:1031D000EA6BE751DF13E851E013E951E113EA51DB
:1031E000E213F2EC1EF00301010ED46F0301EB6B4E
:1031F000EC6BED6BEE6B54E916D0E926000EEA227B
:10320000120000EBE9FF01EBEAFF1200D9CFE6FF65
:10321000DACFE6FFE1CFD9FFE2CFDAFF1200EBC34E
:10322000DFF3C9EF1EF0E5CFDAFFE7CFD9FF1200D9
:1032300006EBE9FF07EBEAFF1200DFC3EEFF94EFB6
:103240001EF0EECFDFF3EECFE0F331EF20F091ECA4
:103250001DF0EF501200EECFE6FFEECFE6FF1200BA
:1032600004EBE9FF05EBEAFF1200EECFDFF3EFCF4F
:10327000E0F312009CEC1FF04BEF1FF01150E66ED4
:10328000E66AC7EC27F042E9F3CFDFF3F4CFE0F3CF
:10329000F3CFE6FFF4CFE6FF1250E66EE66AC7EC26
:1032A00027F042E9E552E7CFE0F3E552E7CFDFF35D
:1032B000F3CFE1F3F4CFE2F30301F350DF1912008F
:1032C000E96E000EDA20EA6E120002EC1EF0E9DB75
:1032D000BCEC1FF02DEC20F0030148EF1DF002EBD9
:1032E000E9FF03EBEAFF1200DF51EE26E051EE2288
:1032F000E151EE22E251EE22120003EBE9FF04EB72
:10330000EAFF120002EBE6FFC2EF1DF009EBE9FF56
:103310000AEBEAFF1200020E02EC1EF0E66AE66A11
:103320004BEC1FF0A7EC14F048E9F3500D6E1200BF
:10333000B8DBBCEC1FF03FEC20F0F35012000AEBBE
:10334000E9FF0BEBEAFF120097EC1FF00F504FEC78
:103350001EF0EF501200DFC3E6FFE0C3E6FFE1C35B
:10336000E6FFE2C3E6FF1200A1DB51EF1DF0000E05
:103370001024E96E060E1120EA6E1200D0EC1EF049
:10338000E223120001EBE9FF02EBEAFF1200D89002
:10339000E233E133E033DF33E806120011EBE9FFFB
:1033A00012EBEAFF120002EC1EF05DEC1EF0CCDB2B
:1033B0002DEC20F003013AEF1EF0EE50E125F36E04
:1033C000EE50E221F46EEE50E321F86EF4CFF7FFF9
:1033D000F3CFF6FF0800F550E66ED95012000AEB65
:1033E000E6FFB6EF1EF021EC1FF0E9CFE0F3EACFE5
:1033F000E1F306500301EA6AE924E96EE151EA22A9
:10340000EFCFDFF3D950080FE26F000EDA20E36F41
:103410000650EA6AE225E96EE351EA22EF50DF5DE9
:10342000120008EBE9FF09EBEAFF12006ADB030177
:103430001EEC20F048EF1DF00301E351EE5CDF6F5E
:10344000E451EE58E06FE551EE58E16FE651EE5869
:10345000E26FDF5112003FEC20F0F9EC1EF0F410A7
:103460001200010ECFDB24EC20F0E66A1200EA6ABB
:10347000DF25E96EE051EA22D9EF1DF097EC1FF04D
:10348000E9CFE6FFEACFE6FF12000028E96E000E62
:103490000120EA6EEF502B081200D890DF37E0379A
:1034A000E137E237E8061200000E0924E96E060E45
:1034B0000A20EA6E1200DFC3EEFFE0C3EDFF120048
:1034C00005EBE6FFCCDBD7EC1EF086EB0EF087EBCE
:1034D0000FF012000EEBE6FF0FEBE6FF10EBE6FF3E
:1034E00011EBE6FF120040C3EEFF41C3EEFF42C303
:1034F000EEFF43C3EEFF1200D890030EEB32020E34
:10350000EB32010EEB32EF32120007EBE9FF08EB72
:10351000EAFF12001CEC21F046E9000912004DDB25
:10352000BCEC1FF0EBEC08F043E915081200D95091
:103530000C0FBCDA5FEF1DF003014FEF1EF016EB2E
:10354000E6FF17EBE6FF18EBE6FF1200EE6AEE6A05
:10355000EE6AEE6A120005EBE9FF06EBEAFF1200E5
:10356000E66A4BDBD0C3E6FFD1C3E6FFD2C3E6FF7A
:10357000D3C3E6FF14EF1FF00A6EE0510B6EE1516A
:103580000C6EE2510D6E1200AFEC24F0E55236EFF6
:1035900020F0156EE051166EE151176EE251186E73
:1035A000120010EBE9FF11EBEAFF120026EC1FF00E
:1035B0009DEC0FF044E9E66A010EE66E26EF1FF07F
:1035C000DF51086EE051096EE1510A6EE2510B6E57
:1035D0001200EE500E6EEE500F6EEE50106EEF5069
:1035E000116E12000301EA6AE924E96EE251EA224F
:1035F000EF50E66E1200EE500B6EEE500C6EEE5079
:103600000D6EEF500E6E12004BEC1FF0C6EC01F089
:1036100046E9146E1200E36FE351E1C3DFF3E2C346
:10362000E0F31200340E0824E96E030E0920EA6E5E
:1036300012000301DF51E011E111E211120017EB5A
:10364000E6FFC9DB2FEF1FF07FDA2FEC1FF05DEFF5
:103650001EF0010ED7DA25DAC6EC01F046E91200B9
:1036600051EC26F0E552E5CFE6F3E5CFE5F3E5CF03
:10367000E4F3E7CFE3F3D9501200E926010EEA2282
:10368000EF501200DF6F000EDA20E06F1200E16BE6
:10369000E26BD950120049EC25F041EF1DF0EFCF5D
:1036A000E6FF69EF20F0EE2A000EEE22EE22EE2277
:1036B000120039DC4BE91200D950050FF7D9F0EFB1
:1036C0001FF00EEBDFF30FEBE0F310EBE1F311EB88
:1036D000E2F30301DF07120015EBDFF316EBE0F373
:1036E00017EBE1F318EBE2F3040E1F0B12000DEBE6
:1036F000E6FF0EEBE6FF0FEBE6FF1200F350076E5E
:10370000F450086E075008101200F350186EF45071
:10371000196E1850191012001A500124E96E000E8B
:103720000220EA6E1200D890E033DF33E804120082
:10373000E552E750EE6EED6A120003011F0E446F72
:103740000D6812001EEC01F045E90D6E1200DF1746
:10375000E06BE16BE26B1200EFCFE6FF1BEBE6FFE5
:103760009EEC25F041E9E7501B6E12000301DF518A
:103770000B6EE0510C6EE1510D6EE2510E6E1200B7
:103780000301DF51EE24E76EE051EE20EA6EE7CF51
:10379000E9FF1200F1EC26F042E9F9EF1EF0030117
:1037A000DF510E6EE0510F6EE151106EE251116E5D
:1037B0001200EFCFDFF30301DF51116E126A136ABB
:1037C000146A085012000D6AD051146ED151156E52
:1037D000D251166ED351176E12005BEC12F0000935
:1037E000120004EBDFF305EBE0F306EBE1F307EB8C
:1037F000E2F312001350175C145018581550195862
:1038000016501A58120005EBDFF306EBE0F307EB56
:10381000E1F308EBE2F31200E3DB5DEF1EF0E16F92
:10382000E26B050EE1C3DFF3E2C3E0F3000A12002E
:10383000EBC3EEFF79D2A0DB79EC13F045E9000988
:10384000120015EBD7F316EBD8F317EBD9F318EBFF
:10385000DAF3120016EBD7F317EBD8F318EBD9F322
:1038600019EBDAF312005DD9EFCFDFF312000DEBA5
:10387000D0F30EEBD1F30FEBD2F310EBD3F3120036
:1038800010EBDFF311EBE0F312EBE1F313EBE2F3F8
:10389000120018EBD0F319EBD1F31AEBD2F31BEBB8
:1038A000D3F3120001EBDFF302EBE0F303EBE1F300
:1038B00004EBE2F312000301DF51046EE051056EE8
:1038C0001200E66EE66A100EE66EE66A120019EC69
:1038D00007F045E90D6E0D5012000A0EEB6A0B0E53
:1038E000EB6A120009EBEEFF0AEBEDFF1200E66A4D
:1038F000F80EE66EE66812000A500B100C100D1060
:103900001200DF51EE12E051ED121200EE500B6E7C
:10391000ED500C6E120000EBD5F301EBD6F3120064
:10392000F1EC26F042E9F350120012EBE9FF13EB41
:10393000EAFF12000301DF51100B1200FE0EE350EC
:10394000EE24076E41E9E550ED20120032D90E2A2F
:10395000000E0F22D9501200EE52010EEE16EE6A42
:10396000EE6A0301D0511200000EF36EF46A1200E9
:1039700010681168126A136AF80E0C6E120005EBDB
:10398000E6FF51EF1DF06DDBE00EE1171200EF5086
:103990000301E16FE26BE151DF19120019681A6847
:1039A0001B6A1C6AF80E1D6E12000301D02B000E5C
:1039B000D123D223D3231200DF51156E166A176A62
:1039C000186A085012001CEC21F046E901081200A8
:1039D000EE50066EED50076E12000FEBE9FF10EB94
:1039E000EAFF1200B00EEE6E320EED6E12001DEC0C
:1039F00005F044E900091200E66A020EE66EE66A86
:103A00001200DFC3F3FFE0C3F4FF1200FDEC18F077
:103A100035EF19F001EC19F0060E54DA10EBE6FF61
:103A200011EBE6FF65EF20F0FDEC18F0EF5012000F
:103A3000FDEC18F01DEF19F0FDEC18F021EF19F076
:103A400076DA085079DDEF500A6E0A50E66EE66AC3
:103A5000DBEC27F042E9F3500A6E41DC3EDA67DA2C
:103A60000C500C2A69DD0AEBEFFF082A1200FDEC6E
:103A700018F0EE50120024DBAFDAE8680301DF191A
:103A80001200E552E5CFE2F3E5CFE1F336EF20F0A7
:103A9000DF51096EE0510A6EE1510B6EE2510C6E7E
:103AA000120000EBE6FF01EBE6FF1200E66E000EEF
:103AB000DA20E66E1200FDEC18F05BEF1AF004EB72
:103AC000E6FF05EBE6FF1200F1DA3EDCE3DA2A0E50
:103AD000125C1200FDEC18F0A6EF1AF018EC19F0C9
:103AE000260EFDEC18F086EF1CF0200EEADE4ADC14
:103AF0002BEC19F0B2EC24F0BDEC25F007DC9EEFC6
:103B00001CF009EBDFF30AEBE0F30BEBE1F30CEB5A
:103B1000E2F312007FEC16F046E90FEC19F0030116
:103B2000120001500724E96E02500820EA6E1200CC
:103B30007DEC19F0D2D201EC19F06DEF1FF0E66EBA
:103B40003AEC19F0A2EF1BF007EBE6FF08EBE6FFFB
:103B5000120060EC19F074EF19F01BEBDFF30301B6
:103B6000E06B95DD0B0F60EC19F0EE50BEEF19F035
:103B70000301DD6B16DD2BEC19F0E1DC19EBE6FF40
:103B80008AEF1AF003EBE6FF04EBE6FF12001C0ECF
:103B9000FDEC18F0EF04120006EC19F084E91200B5
:103BA0007AD965EF20F0DF2B000EE023E123E2233A
:103BB0001200E552E750EF6E12000BEBEEFF0CEB3C
:103BC000EEFF0DEBEEFF0EEBEFFF010EE66E1200C7
:103BD000E8DC2BEC19F015EBE6FFB1DC8AEF1AF00C
:103BE000F2D9020E1200EFD9030E1200F5D919EF27
:103BF0001BF0FDEC18F098EF1BF0000EE66E060EC1
:103C0000E66E1200E66E65D2E7D9C2EC19F0060E38
:103C1000FDEF18F01EDA33DA85EF1BF0010EE66EC9
:103C20003AEC19F0A0EC0CF045E90D6E0D501200C5
:103C3000D9500A0F60EC19F0EE06000EEE5AEE5A5B
:103C4000EE5A120001EC19F0EE50120006EC19F0D9
:103C500086E91200010EE66E8BD92BEF1AF0BDEC4F
:103C600025F0E55203DA03011200FBD90301040E2B
:103C70000BEF1BF0DF51106EE051116EE151126E2F
:103C8000E251136E120035EC19F00301DF510F0BF6
:103C9000120098EC19F0066EF450076E1200EA6AF2
:103CA000E924E96EE051EA221200E66A3AEC19F0E2
:103CB00067EF1CF03ADE6DEF1FF005EBE6FF06EB59
:103CC000E6FF120060EC19F053EF1BF0FDEC18F06A
:103CD00073EF1AF006EC19F088E9120001EC19F004
:103CE000140EFDEC18F0F50EEE5C120086EC19F0E7
:103CF000F4D8ACEF1BF06FEC19F0060EFDEC18F0E9
:103D00008FEF1AF04EDCE9D8C7EF1CF0E05BE15B07
:103D1000E25BABEC19F004EF1BF015EBDFF30F0ED9
:103D200016DD080E1F0B1200E0C3EEFFE1C3EEFF2D
:103D3000E2C3EEFF120006EC19F087E91200010E53
:103D4000E66E97EC1AF02BEF1AF0FDEC18F0E92A6A
:103D5000EA22EF504108120030EC19F0BE0EE926BD
:103D6000010EEA2212002FD9010E12000BEBE6FF22
:103D70000CEBE6FF0DEBE6FF12002A0EFDEC18F04F
:103D8000200EEE6EED6A120001EC19F0A6DD01EFD7
:103D900019F0ECC3E0F3EDC3E1F3EEC3E2F312007C
:103DA000DF27EE50E023EE50E123EE501200DF510A
:103DB0000A6EE0510B6E0C6A0D6A120063DC17503C
:103DC00037EC1AF0172A1200D950110F60EC19F0D5
:103DD000040EE76E120018EBE6FF19EBE6FF1AEB94
:103DE000E6FF1200DF510F6EB7EC19F00FEBEFFF9B
:103DF0001200F3CFDFF3F4CFE0F30301F35012002E
:103E0000FE0E3BDC55081200FF0E37DCAA0812003C
:103E1000E16BE26B01EF19F0BEEC19F001EF19F064
:103E2000FDEC18F0E9EF1AF08DEC21F047E90009FC
:103E3000120001EC19F072EF1CF0FDEC18F0F2EF3B
:103E40001CF018EBE9FF19EBEAFF12007E0EE66E9C
:103E5000030EE66E1200D950090F60EF19F009EB5E
:103E6000E6FF0AEBE6FF120001EC19F00C0E12005F
:103E7000770E65DE18EC19F043EF20F086EC19F0B0
:103E800047EF20F06FEC19F015D96FEC19F015D948
:103E9000010EE66E120006EBE6FF07EBE6FF1200EE
:103EA00030EC19F047EF20F0B5DD166EE051176EDB
:103EB000E151186EE251196E01EC19F0F3D8160FAA
:103EC000A9EF1DF0FDEC18F02BEC19F02BEF19F019
:103ED0007EEC10F046E90FEF19F01B0EFDEF18F025
:103EE00099DDC9EC1AF001EC19F0DCD8150FA9EF37
:103EF0001DF001EC19F00A0EFDEC18F0EE2AEF228D
:103F000001EC19F00A0E82DD82EF1EF0ECD8FDEF15
:103F100018F001EC19F0E1D00D2A86EC19F0180E1A
:103F200075DD030147EC1BF0140FA9EF1DF0E9CF7D
:103F3000DFF3EACFE0F31200D9500B0F56EF1DF07C
:103F400018EC19F00B0E14EF1DF018EC19F0C5D099
:103F500001EC19F0AFD801EC19F05DEF20F018EC8E
:103F600019F0020E69DD18EC19F0060E18EF1DF0BD
:103F700001EBE6FF82EF19F002EBE6FF03EBE6FF51
:103F8000120044DD6FEC19F0170E95DD18EF19F0F3
:103F900059DE106EED50116E67DF37EF1DF001EC4A
:103FA00019F0120EFDEF18F001EC19F00E0EFDEFF6
:103FB00018F001EC19F0160E14EF1DF001EC19F0D9
:103FC0000E0E37EF1DF001EC19F01C0EFDEF18F08E
:103FD00001EC19F02BEF19F059EC1BF00FEF19F071
:103FE00001EBE6FF02EBE6FF120010DD7CD85BEF91
:103FF0001DF076D80301BEEC19F0DF5112000B0E54
:10400000FDEF18F087DDE0EC1AF0085010181200F0
:10401000FDEC18F0020E08DD5408120031EC1AF025
:104020004EDDF6EF1DF0BFDDABEC19F08AEF1AF0B4
:1040300086EC19F01A0EF8DC0D5C1200B4DD010EEE
:10404000E017E16BE26B1200E66A43D0F1DCCEEFE1
:1040500019F0D950140FB4EF19F051EC26F041EFDC
:104060001DF0EECFE1F3EFCFE2F31200E5CFE0F386
:10407000E7CFDFF3120001EC19F0020E120012EC90
:1040800006F045E912002A0EC1DC9AEF1CF01C0E66
:1040900014EF1DF0116E6FEC19F01FDFA4EC19F096
:1040A000126E12000A0EB2DC47EF1BF030EC19F072
:1040B0006DEF1FF02C0E1CEF1DF0300E18EF1DF0F1
:1040C00087DF2BEC19F04BEF1FF002DF0301DF510C
:1040D0001200E66AE66AE66A1200160EFDEF18F0B4
:0E40E000060E37EF1DF001EC19F0180E12005D
:0240EE008350FD
:1040F000080B080A01E0010E1200F36A020EF46ECA
:104100001200EFC3EBF3F0C3ECF3F1C3EDF3F2C332
:10411000EEF312009586808A929A92881200ADD9A9
:10412000808A1200DADB90EC24F010EBE6FF90ECD2
:1041300024F00FEBE6FF90EC24F00EEBE6FF90ECA2
:1041400024F00DEBE6FFECDB0CEBE6FFE9DB99EC92
:1041500024F002E052DB09E19DD9A2DBFF0E0A5CEC
:104160000CE107500810F8E108D022DB96DB05E1EE
:1041700091D990D90B6E8ED90A6EDBDB010812E162
:104180000A6A096AFF0E095C0DE20A500BE1076832
:10419000086880D985DB0A5003E107500810F9E16F
:1041A000092AF0D763DB030103DB84DB01E1808AAA
:1041B000BAD393DB6BDB10EBE6FF68DB0FEBE6FFBC
:1041C00065DB0EEBE6FF62DB0DEBE6FF5FDB0CEB86
:1041D000E6FF5CDBAEDB02E010DB09E1FDD960DB72
:1041E000FF0E0A5C0CE107500810F8E108D0E0DA95
:1041F00054DB05E1F1D9F0D90B6EEED90A6E99DBEB
:10420000010812E10A6A096AFF0E095C0DE20A5010
:104210000BE107680868E0D943DB0A5003E1075067
:104220000810F9E1092AF0D7E66830DB0301C0DAAB
:1042300041DB01E1808A77D3D7DA88E94CE8010EC7
:104240000F6E02EBDFF303EBE0F304EBE1F305EBBE
:10425000E2F3090E1F0B03E0030130DBFEE1030173
:10426000DF51106EE051116EE151126EE251136E8A
:10427000EBDA04E0E9DA02E0000E4DD00868020E45
:10428000096E400E0A6E0B6A0A500B1004E00A0613
:10429000000E0B5AF9D7FED80E6E0806000E095A0A
:1042A000400E0A6E0B6A0A500B1004E00A06000E5C
:1042B0000B5AF9D7FF0E0E5C03E108500910EBE131
:1042C0000850091003E0FE0E0E5C02E00F6A20D0D9
:1042D000086A096A000E085C020E095817E20050CD
:1042E00001100FE0C9500E6E9E96C9689EA6FED7BB
:1042F00000500824E96E01500920EA6EC9CFEFFF93
:1043000001D0C8D8082A000E0922E4D7AFDAAEDA05
:10431000ADDA808A0F504DE992D266DA89E947E832
:10432000010E0F6E035004100510061004E100503A
:1043300002E10F6A61D003EBDFF304EBE0F305EB7E
:10434000E1F306EBE2F3090E1F0B03E00301B6DA1B
:10435000FEE1DFC3E6FFE0C3E6FFE1C3E6FFE2C341
:10436000E6FF090EE66EDEDE45E9F3500D6EF45011
:104370000E6E0D5002E00F6A3ED0FE0EE66ED0DAF1
:10438000096A0A6A000E095C020E0A5813E2C95053
:104390000C6E9E9601500924E96E02500A20EA6EC6
:1043A000EF50C96E9EA6FED7C9500B6E092A000EAB
:1043B0000A22E8D75BDA5ADA6DD80B6E0F0E0B14AF
:1043C000050802E00F6A16D0096A0A6AC9500C6E25
:1043D0009E96C9689EA6FED7C9500B6E092A000E8C
:1043E0000A220B5003E109500A10F0E109500A10AB
:1043F00001E10F6A3BDA808A0F5048E920D28050F1
:10440000100B01E0010E1200D9CFE6FFDACFE6FF74
:10441000E1CFD9FFE2CFDAFF83E945E880EB03F093
:1044200003500306000921E0DD0E046E040E056E44
:10443000066A076AD950040FE96E000EDA20EA6EA8
:10444000EFCFDFF3EE06000EEFCFE0F3EE5AEFCF43
:10445000E1F3EE5AEFCFE2F3EF5A0301DF51E0113F
:10446000E111E21101E0E6D7DBD7000000D046E918
:10447000E5CFDAFFE7CFD9FF12001200B5D983E903
:1044800041E800EBC9FFC7A0FED7C950036E000E7C
:1044900042E9D5D1C968C7A0FED7C9501200A4D936
:1044A00083E9C76AC66A0050C612C68EC78C93924B
:1044B000949E9380C68A41E9C2D196D983E942E8A5
:1044C00080EB03F0C1688A928B8E9392949E825007
:1044D000800B01E0010E0301DF6F8B50800B01E0C8
:1044E000010EDF5D0BE18150020B01E0010EE06F78
:1044F0008A50020B01E0010EE05D02E0FF0E6AD07F
:10450000C8D903AE02D08B8E01D08B9E94D9FEE128
:104510008A82010E046E8FD9FEE1BBD903AC02D0B2
:104520008B8E01D08B9E87D9FEE18A82010E046EAC
:1045300082D9FEE1AED903AA02D08B8E01D08B9E28
:104540007AD9FEE18A82010E046E75D9FEE1A1D905
:1045500003A802D08B8E01D08B9E6DD9FEE18A829A
:10456000010E046E68D9FEE194D903A602D08B8EA9
:1045700001D08B9E60D9FEE18A82010E046E5BD968
:10458000FEE187D903A402D08B8E01D08B9E53D934
:10459000FEE18A82010E046E4ED9FEE17AD903A2B1
:1045A00002D08B8E01D08B9E46D9FEE18A82010E0D
:1045B000046E41D9FEE16DD903A002D08B8E01D0EB
:1045C0008B9E39D9FEE18A82010E046E34D9FEE158
:1045D0008A92000E43E933D107D982E943E8036A9E
:1045E0008A928B8E9392949E93808250800B01E0EE
:1045F000010E0301DF6F8B50800B01E0010EDF5DC8
:104600000BE18150020B01E0010EE06F8A50020BBA
:1046100001E0010EE05D02E0FF0E62D08A92010E21
:10462000046E09D9FEE18A82010E046E04D9FEE10E
:1046300081B0038E8A92010E046EFDD8FEE18A825B
:10464000010E046EF8D8FEE181B0038C8A92010E4F
:10465000046EF1D8FEE18A82010E046EECD8FEE110
:1046600081B0038A8A92010E046EE5D8FEE18A8247
:10467000010E046EE0D8FEE181B003888A92010E3B
:10468000046ED9D8FEE18A82010E046ED4D8FEE110
:1046900081B003868A92010E046ECDD8FEE18A8233
:1046A000010E046EC8D8FEE181B003848A92010E27
:1046B000046EC1D8FEE18A82010E046EBCD8FEE110
:1046C00081B003828A92010E046EB5D8FEE18A821F
:1046D000010E046EB0D8FEE181B003808A920350CF
:1046E00044E9ADD081D882E945E8010E046E808AA4
:1046F000ECD8C66A026A036A0A0E025C000E03580E
:1047000006E2E668C3D8022A000E0322F5D7809A93
:10471000010EDBD8CAD8E66A4CDDABD8FF0E055CCB
:1047200004E0F70E0514010804E0046A808A0450CE
:104730003DD002680F0E036EB8D8010EE66E39DD6B
:1047400098D80206000E035A055003E002500310E9
:10475000F3E10250031027E0020EB7D8E66A9FDEAD
:1047600041E9A3D8100EE66EDDDC83D8E66A020EBE
:10477000E66EE66AE66A060EE66ED4DC7AD8026871
:10478000036A025003100CE0000EE66EE66A8DD854
:1047900053DD46E9010804E00206000E035AF1D792
:1047A0000250031002E1046A808A045046E947D0AF
:1047B000DE0EDF6F4F0EE06F000EE16FA5D8E5CF84
:1047C000E4F3E5CFE3F3E7CFE2F30301DF51E225C2
:1047D000F36EE051E321F46EE151E421F86EF4CF81
:1047E000F7FFF3CFF6FF1200D9CFE6FFDACFE6FFEF
:1047F000E1CFD9FFE2CFDAFF1200DE0EE56F4F0EF8
:10480000E66F000EE76F80D8E5CFEAF3E5CFE9F376
:10481000E7CFE8F30301E551E825F36EE651E9211E
:10482000F46EE751EA21F86EF4CFF7FFF3CFF6FF0D
:1048300050D8010812000450040600091200E5CF08
:10484000DAFFE7CFD9FF120010EBE6FF11EBE6FF2E
:1048500012EBE6FF13EBE6FF070EE66E63DC45E9BD
:10486000F3500C6EF4500D6E0C501200E66890EF91
:1048700024F045E9F350056EF450066E1200F62A56
:104880005CD80C6E118C11EBE6FF120016DE41E9CC
:1048900012008A92010E046E12001BD80208120048
:1048A0000A6E0706000E085A1200E66AE66AE66A11
:1048B000E66A1200030EF6269DEF24F0D890DF374B
:1048C000E037E137E237E8061200E66E9DDD41E9A8
:1048D0001200020EF6269DEF24F086DF87E94BE8F2
:1048E000080E076E086A809A030162DF0800F5501F
:1048F000116E80EB0DF081EB0EF082EB0FF083EB8D
:1049000010F056DF3FEF24F0040EE66EE66AE66A2A
:1049100004EBE6FFE66AE66AF1EC25F0E5521200E8
:10492000ADDD41E912000AEBF3FF0BEBF4FF4CE9BC
:1049300086D703013DDF69EF24F0000EF722F8224D
:064940000800F550120012
:0A49460043E8D9CFE6FFDACFE6FF21
:10495000E1CFD9FFE2CFDAFF89E9066A1200F3DF7F
:10496000068003D0F0DF01D00682056A046A100ECB
:10497000E76ED89002360336043605360050045CE4
:104980000150055805E30050045E0150055A022A03
:10499000E72EF0D706B2120006B006D084EB00F086
:1049A00085EB01F006A004D082EB00F083EB01F070
:1049B000E552E5CFDAFFE7CFD9FF45E9120045E838
:1049C000D9CFE6FFDACFE6FFE1CFD9FFE2CFDAFFBA
:1049D0008FE90C6A1200F3DF0C8001D0F0DFE86A87
:1049E00003AEFCEF24F0006C011E021E031E012228
:1049F000022203220CB00C7E07AE07EF25F0046CF8
:104A0000051E061E071E0522062207220C7E4EECFE
:104A100025F007BE38EF25F00CAE0FD0046C051E54
:104A2000061E071EE86A052206220722086C091ED8
:104A30000A1E0B1E09220A220B220CB00AD088EB98
:104A400000F089EB01F08AEB02F08BEB03F00CA095
:104A500008D084EB00F085EB01F086EB02F087EBE9
:104A600003F0E552E5CFDAFFE7CFD9FF49E9000CC3
:104A70000CBE0EEF25F0E1DFFF0C45E8D9CFE6FFD5
:104A8000DACFE6FFE1CFD9FFE2CFDAFF8FE90C6A98
:104A90001200F3DF0C8003D0F0DF01D00C820B6A30
:104AA0000A6A096A086A200EE76ED890043605364D
:104AB00006360736083609360A360B360050085CCB
:104AC0000150095802500A5803500B5809E300508E
:104AD000085E0150095A02500A5A03500B5A042A20
:104AE000E72EE4D70CB212000CB00AD088EB00F02D
:104AF00089EB01F08AEB02F08BEB03F00CA008D0FD
:104B000084EB00F085EB01F086EB02F087EB03F01D
:104B1000E552E5CFDAFFE7CFD9FF49E9120042E8D5
:104B2000D9CFE6FFDACFE6FFE1CFD9FFE2CFDAFF58
:104B300086E9036A1200F3DF038003D0F0DF01D0BF
:104B40000382026A080EE76ED890013602360050E2
:104B5000025C02E3026E012AE72EF7D703B21200CD
:104B600003B081EB00F003A082EB00F0E552E5CF4B
:104B7000DAFFE7CFD9FF43E9120044E8D9CFE6FFD7
:104B8000DACFE6FFE1CFD9FFE2CFDAFF8AE980EBA7
:104B900004F081EB05F082EB06F002500402F450C1
:104BA000016EF350006E0350076E0502F450036E61
:104BB000F350026E07500402F3500126F450022213
:104BC000E86A032206500502F3500126F45002223F
:104BD000E86A0322E552E5CFDAFFE7CFD9FF46E9DD
:104BE000000C46E8D9CFE6FFDACFE6FFE1CFD9FFE8
:104BF000E2CFDAFF8EE980EB06F081EB07F082EB83
:104C000008F085EB0BF084EB0AF083EB09F003501E
:104C10000602F450016EF350006E04500702F45087
:104C2000036EF350026E04500602F3500126F45056
:104C30000222E86A032209500702F3500126F450C9
:104C40000222E86A032205500602F3500226F450BD
:104C5000032205500702046AE86A0422F35003267F
:104C6000F450042209500802F3500226F4500322A3
:104C7000056AE86A042205220A500802F350032656
:104C8000F4500422E86A05220B500802F35004266F
:104C9000F4500522E552E5CFDAFFE7CFD9FF49E925
:104CA000000C44E8D9CFE6FFDACFE6FFE1CFD9FF29
:104CB000E2CFDAFF8EE980EB08F081EB09F082EBBE
:104CC0000AF083EB0BF004500802F350006EF4502E
:104CD000016E04500902F3500126000EF420026E0A
:104CE00004500A02F3500226000EF420036E045012
:104CF0000B02F350032605500802F3500126F4502E
:104D00000222000E032205500902F3500226F4503D
:104D1000032205500A02F350032606500802F350FE
:104D20000226F450032206500902F35003260750CE
:104D30000802F3500326E552E5CFDAFFE7CFD9FFAB
:044D400048E9000C32
:0C4D4400FE0EE3CFE9FFFF0EE3CFEAFF15
:104D5000E9CFF3FFEACFF4FFFB0EE35003E1FC0ED3
:104D6000E35009E0FB0EE30602E2FC0EE306FD0E53
:104D7000E350EE6EF1D71200FE0EE3CFE9FFFF0E17
:104D8000E3CFEAFFFD0EE350EF5C05E0EE66FAD7F5
:104D9000F36AF46A04D0E9CFF3FFEACFF4FF12001C
:104DA000D9CFE6FFDACFE6FFFA0EE3CFD9FFFB0E4D
:104DB000E3CFDAFFFC0EE3CFE9FFFD0EE3CFEAFF1E
:104DC000E9CFF3FFEACFF4FFDECFEFFFEE66FCD7CB
:104DD000FF0EE3CFDAFFE552FF0EE3CFD9FFE55236
:104DE0001200FE0EE3CFE9FFFF0EE3CFEAFFF36A06
:104DF000F46AEE5203E0F34AF42AFBD71200D9CF4B
:104E0000E6FFDACFE6FFFA0EE3CFD9FFFB0EE3CFE2
:104E1000DAFFFC0EE3CFE9FFFD0EE3CFEAFFE9CFB7
:104E2000F3FFEACFF4FFF80EE35003E1F90EE3508D
:104E30000BE0F80EE30602E2F90EE306DECFEFFF29
:104E4000EE66F1D7DD52EFD7FF0EE3CFDAFFE55282
:0A4E5000FF0EE3CFD9FFE552120078
:064E5A002A0EF66E000EA8
:104E6000F76E000EF86E01010900F550196F090088
:104E7000F5501A6F03E1196701D03DD00900F550D4
:104E8000146F0900F550156F0900F550166F0900F1
:104E90000900F550E96E0900F550EA6E09000900B5
:104EA0000900F550176F0900F550186F0900090047
:104EB000F6CF1BF1F7CF1CF1F8CF1DF114C1F6FFAF
:104EC00015C1F7FF16C1F8FF0101175302E118538E
:104ED00007E00900F550EE6E1707F8E21807F9D75A
:104EE0001BC1F6FF1CC1F7FF1DC1F8FF0101190727
:084EF000000E1A5BBFD712008F
:084EF800929A9392949E958614
:104F00009380D390D392060ECB6E040ECA6E77ECCC
:104F100020F00009FCE072EC23F022EC00F0F3CF6B
:104F2000DFF3F4CFE0F30301F350F410F6E0540E96
:104F3000E66E500EE66E000EE66E4A0EE66E500EFF
:104F4000E66E000EE66E10EC16F046E9F3CF08F1BF
:104F5000F4CF09F1F3CFE6FFF4CFE6FF0B0EE66ED8
:104F6000E66A010EE66EE66A400EE66E010EE66E39
:104F70003DEC11F048E9F3CF12F1F4CF13F108C181
:0E4F8000E6FF09C1E6FF0EEC0AF042E9FFD79A
:024F8E00FF0E14
:104F9000E124E96EFF0EE220EA6EEDCFF4FFEFCFE1
:104FA000F3FFF46607D0400EF36404D05B0EF360A9
:104FB00001D0F38A1200FF0EE124E96EFF0EE22019
:104FC000EA6EEDCFF4FFEFCFF3FFF46607D0600E8B
:0E4FD000F36404D07B0EF36001D0F39A12005C
:024FDE0000953C
:104FE000000001F9000009AF00010A1B00010CC319
:104FF00000000DAF020010FF000011FF000112FFC2
:10500000000118FF000119FF000120FF000021FF2F
:10501000000026DF0100377300003A2503003B251E
:0250200000008E
:0E50220012EE00F022EE00F0F86A2DEC27F0FE
:0C5030002BEC28F07CEC27F0FBD71200E2
:04503C0000EE00F092
:0A5040000F0EEE6AEA62FDD71200BF
:06504A005061756C6F2E31
:0650500074787400770083
:02505600120046
:08505800486F6C61204D756E7C
:04506000646F210058
:0C506400FFFF0000000000FFFFFFFF0046
:035070000000003D
:00000001FF
