:020000040000fa
:080000000001040000000000f3
:020000040000fa
:10020000afd2200000f720000001880000000000ad
:100210000c00070000d3220001002000110007009d
:10022000000020000000e000020032000000020098
:100230000000000084290200000000000040da00f5
:100240000000fe004440a900a01720000000e000cc
:100250000300320000002000a00188004440a800f4
:100260000000060091018800800078000000eb008b
:1002700015003700e280400032a0b4009101ba00be
:10028000e280400032a0b4009102ba00e280400057
:1002900032a0b4000002eb00472bde00f507b200ed
:1002a000602ce10004003a000059eb008301e900f2
:1002b000fdff3e00040037006128e100010032002c
:1002c0000082eb00040007001101ba000200e00008
:1002d000e8ff3a00000006003159ba008301e90046
:1002e0000c0032002159ba008301e90008003200f5
:1002f0000400e00003003a00e280400032a0b400b5
:10030000f5ff370011d9ba008301e900faff3a007e
:100310008100e800e180400032a0b4000000060047
:100320000000000000000000881f78000204780030
:1003300014000700080040004f0478000000060089
:100340000000fa00881f7800000478003fb9970089
:10035000ea81570080007800401920001000070053
:10036000800078000000e000020035000040eb0053
:1003700000f47800010078004f0478000080fa0053
:10038000000006008001eb000200370061f07900f8
:100390008301e800828f5100fcff3a000000060054
:1003a0006200fa00889fbe008a9fbe000004be0063
:1003b000020578008300780060f92f000f004000ec
:1003c000b000070088979f0099979f000000eb00fe
:1003d000a09f9f009a4578000b80fb000000ea0078
:1003e000cf04de0050c2b30080cf550002003200bf
:1003f00009047800010037000904e9000800e00062
:100400000b0034001f909700080178008a007800e4
:100410008f9197000300010090979f000000e0007b
:10042000930032002f98970000004400a09f9f0087
:100430000905450050c2b30080cf550004003200ca
:100440000b04e000e3ff3a002f9897008900370083
:100450000000eb00809f9f00f0979f00e0979f00b7
:10046000d0979f00c0979f00b0979f00c09f9f00ac
:1004700009003700a0d0200000805000000040009c
:10048000e1cf2000e10078004f9897000100700054
:10049000c09f9f000a05e8001a4478008800fb000e
:1004a000a0d020007c000700800078000000e00061
:1004b000f0ff3a00a0c2b300804f54000e003a0093
:1004c000bf8897000180e900b08f9f00100078007e
:1004d000b09f9f000000e00005003d000000ea0022
:1004e000b09f9f004f9897000020a000c09f9f00e2
:1004f0000a05e80010003700b19f9f00090037008f
:10050000bf989700f0ff2700808f50000400320052
:100510006a08b9000000410003004000b09f9f003e
:100520000a05e8001a01fb0003fd2f00030041004b
:10053000e90f5000f2ff3600e0c2b3009a4f1000fe
:10054000040032000080eb00909f9f008a04780036
:100550001c0037008a04e800a0c2b300994f1000c5
:1005600007003a00bf8897000180e900b08f9f0024
:1005700010007800909f9f008a84e80011003700e7
:100580000000eb00909f9f00090037009f989700a4
:10059000f0ff2700808f5000040032006a08b90085
:1005a0000000410003004000909f9f008904e80084
:1005b0001901fb0003fd2f0003004100e90f50006b
:1005c000f2ff3600194478008800fb00e0d12000db
:1005d000310007000000e00002003a00004478000b
:1005e000010037008904e800a87f9f0080c6b3009f
:1005f000804f540004003a00994f14000a003a005a
:100600006640500006003700c0c6b300804f54005b
:1006100005003a00994f140003003a00654040007d
:10062000a07f9f008904e8000905e800cbfb2f00ac
:100630008f8545001901fb0060f92f000f00400075
:100640000084e8008b0178008000780008007800c2
:100650001a0007000000e00005003a008b00780057
:1006600008007800880107000000e00059ff3d0005
:100670000080eb004f05be004f04be000080fa0072
:10068000000006000200fa00f1bf9f000108780098
:100690000080fa0000000600040037000204e000b9
:1006a00001003a00000005000000e8001041780059
:1006b000814f5100f9ff3a0000000600889fbe00fc
:1006c0008a1f7800000478000102780082447800d4
:1006d0000305780070c6b300804f510021003c0034
:1006e00000c0e900804f5100de003d007240500024
:1006f000804f5100410132000d003c006c40500021
:10070000804f510054013c0000c0e900804f51006f
:10071000d4003d0050c2b300804f51004b01320065
:100720007c404000804f51004b013a00cd00370023
:1007300010c6b300804f5100ca00320004003c00d4
:1007400069405000804f510043013a007200370069
:1007500030c6b300804f5100180032000040e8005e
:100760000900370000c7b300804f51001401320068
:1007700008003c0000c0e900804f5100da00320060
:1007800065003c006540500080cf540032013a00c3
:100790000f00370050c7b300804f51005e00320099
:1007a00063404000804f51005b00320065405000c4
:1007b000804f510028013a00100137009180e90074
:1007c000010a7800780090009171780028013700c4
:1007d000a8609000c0c6b30080cf50000a003a0065
:1007e0009400780064805000000a78001000be0079
:1007f0004f89de00cf91de000002be0002037800c8
:10080000820378001300370010c7b30080cf500078
:1008100003003200a0c6b30080cf500006003a00ab
:100820009400780068805000000a78003002be0012
:100830002003be00070037001480e900000a78009a
:100840001000780000027800cfa2de0005037800d7
:1008500086037800049cbe000694be00a860900049
:1008600080c6b30080cf50000e00320020c6b30017
:1008700080cf500005003a000400fb00cf80de006e
:1008800001017800820178000a00370040c7b300f8
:1008900080cf5000030032006640400080cf5000ff
:1008a00006003a0004007800cf80de0001017800e5
:1008b00082017800009cbe000294be003800be0099
:1008c0002801be00e00f5000e08f5800e00f5900f3
:1008d000e08f590003003d0078009000d1c2b300c2
:1008e0000a003700081090000018a300030032002f
:1008f00078009000b1c2b300040037000008a300e4
:10090000530032007800900001c2b30001757800f6
:100910000000e8004d003700a8609000c0c6b3009a
:1009200080cf500006003a009400780064805000a8
:10093000000a78001002be006033b80013003700d0
:1009400010c7b30080cf500003003200a0c6b30030
:1009500080cf500006003a00940078006880500074
:10096000000a78003002be002003be0007003700f6
:100970001480e900000a7800100078000002780076
:10098000050020000600200007002000049cbe0097
:100990000694be00a860900080c6b30080cf5000cf
:1009a0000e00320020c6b30080cf500005003a0090
:1009b0000480fb0001002000020020000300200052
:1009c0000a00370040c7b30080cf50000300320058
:1009d0006640400080cf500006003a0004007800d6
:1009e000010020000200200003002000009cbe0047
:1009f0000294be00081090000038a30014003200da
:100a00003800be002801be00e00f5000e08f580003
:100a1000e00f5900e08f59000d00320080c7b3008d
:100a200080cf54000300320080c5b30080cf540053
:100a300007003a007800900001c3b3000175780008
:100a40008000e80009f578000080e8007004980054
:100a5000780090000000450060049800894078000c
:100a6000630037001400780068015000020a780023
:100a70003200be001201be00009cbe000294be0007
:100a8000380090000000e00003003d007800900076
:100a9000d1c2b3000a003700081090000018a3006c
:100aa0000300320078009000b1c2b30004003700a8
:100ab0000008a300050032007800900001c2b300d6
:100ac000017578000000e80070049800780090003c
:100ad0000000450060049800894078000800780014
:100ae0003301070064003700a8609000c0c6b3005f
:100af00080cf5000250032000a003c0064405000c6
:100b000080cf50002800320000c0e80080cf5000a5
:100b1000140032006840500080cf500022003a009c
:100b20000a00370040c7b30080cf50001e003200db
:100b30006640400080cf50001b00320069405000ea
:100b400080cf500018003a00060037001480e900fa
:100b5000000a780010007800485c9000084878008f
:100b6000450037001480e900000a78001002780080
:100b700068089000cf80de000101780082017800d3
:100b8000009abe000292be003b0037001480e900cc
:100b9000000a78001001780068089000cf80de001d
:100ba0000089be00340037001480e900000a780094
:100bb00010007800680c9000080878002e003700bc
:100bc0001180e9008008780010007800cf80de00f6
:100bd0000101780082017800009cbe000294be00f2
:100be00078009000000045006004980081c7b300c1
:100bf00008007800170307001f0037001480e90081
:100c0000000a7800100078006004980058099000ed
:100c10000200e00002003d009b04070009003700cd
:100c20008000eb009f040700800078000000e000d7
:100c3000030032006800900000805000010037007f
:100c400058089000100c98000b00370078009000b6
:100c5000027578000600370078009000800045009b
:100c60000904e00001003a0059c2b3008948780045
:100c70000000e800700498000000eb004f057800c9
:100c80004f04be00000006000400fa00889fbe006a
:100c90008a9fbe008c1f780000047800010678004f
:100ca00070089000f8009000010050008808900043
:100cb000010050009808900001005000a808900022
:100cc00001005000b808900001005000c8089000d2
:100cd000810550000002220090bf9f000003230006
:100ce000a0bf9f00081090000028a30018003a0041
:100cf0000b00e000160034008b0478000905780032
:100d0000e28f5400020036002a0020000200370063
:100d10000900e0000b00340058009000c80190006a
:100d20000a017800ee80570003000100500498008b
:100d30000000e000960032006808900000004500c6
:100d4000600c98008a8454004240a900ebff3c00ec
:100d5000780190000200e0000b0034005800900081
:100d6000c80190008c007800030001005004980036
:100d70000000e0008600320068089000f800900053
:100d800001004000600c9800880c90000900e00011
:100d90001500340009057800e28f54000200360087
:100da0002a002000020037000900e0000b00340098
:100db00058009000c80190000a017800ec805700ac
:100dc00003000100500498000000e00070003200b1
:100dd0006808900000004500600c98008a84540068
:100de0004240a900ebff3c00180990000200e0001f
:100df0000b003400e800900058009000c8019000fb
:100e000003000100500498000000e0006000320080
:100e1000680890009808900001004000600c98005d
:100e2000a80c90000900e0001500340009057800c6
:100e3000e28f5400020036002a0020000200370032
:100e40000900e0000b00340058009000c801900039
:100e50000a017800ec80570003000100500498005c
:100e60000000e0004a0032006808900000004500e1
:100e7000600c98008a8454004240a900ebff3c00bb
:100e8000380990000200e0000d003400e8009000f6
:100e9000180890008080400058009000c801900021
:100ea00003000100500498000000e0003800320008
:100eb00068089000b808900001004000600c98009d
:100ec000c80c90000900e000150034000905780006
:100ed000e28f5400020036002a0020000200370092
:100ee0000900e0000b00340058009000c801900099
:100ef0000a017800ec8057000300010050049800bc
:100f00000000e00022003200680890000000450068
:100f1000600c98008a8454004240a900ebff3c001a
:100f2000081090000028a3001b0032000b00e00016
:100f3000190034008b04780009057800e28f540012
:100f4000020036002a002000020037000900e000fd
:100f50000b00340058009000c80190000a0178008e
:100f6000ee80570003000100500498000000e000ec
:100f7000070032006808900000004500600c9800ef
:100f80008a8454004240a90003003400eaff37007d
:100f90000080eb00010037000000eb004f067800f6
:100fa0004f05be004f04be000080fa00000006009e
:100fb0008f04b000889fbe008a9fbe008c9fbe0039
:100fc0008e1f7800f0b79f0081f79f005001be0090
:100fd0004000be00f0979f00819f9f00929f9f005e
:100fe000a39f9f0010c6b3000ff19700804f5100e0
:100ff0001600320010c4b300804f510013003200bd
:10100000ffb19700530890000000e00003003d008e
:1010100060002000d00998000c0037000000e000bc
:101020000a003a0070c6b3000ff29700804f5200da
:101030000300320070c4b300804f520003003a0036
:1010400010002000ffb29700d00a9800ffb0970070
:10105000c0fa2f000f0040009c03070080017800b9
:10106000e20f500015003a0030002000ffb097005a
:101070009008980010c6b3000ff19700804f510000
:101080000a00320064404000804f510007003200e7
:101090000040e800804f510004003200a1ca200047
:1010a0000040e800804f510001003a00e1ca2000f2
:1010b000ffb1970063009000160037000000e000c9
:1010c00018003400300020007fb29700100a98000a
:1010d00010c6b3008ff2970080cf52000a00320092
:1010e0006440400080cf5200070032000040e8001a
:1010f00080cf52000400320021cb20000040e800e5
:1011000080cf520001003a0061cb20007fb19700f0
:10111000620090003158780031587800114878000a
:10112000c601370014c6b3008ff2970084cf520077
:101130000300320010c4b30080cf520013003a0005
:101140007fb09700600190008200780000c3b30078
:1011500080587800ffb29700e102980080c7b30082
:101160008ff2970084cf52000100320080c5b30097
:10117000804878000280e800ffb09700e000980007
:10118000710090000080e800f00098000300e0008b
:1011900005003a00e3979f0064fb2f000f01420017
:1011a00003077800a0013700a5cb2000e5b79f001a
:1011b00010c6b3008ff0970080cf500005003200ba
:1011c00010c4b30080cf5000a7003a00b2cc20007a
:1011d000e2b79f00ffb19700530890001e02200065
:1011e0000000e000010035000007e8000e02e80002
:1011f000d4b79f006022b8006033b8007f9097009a
:101200008f9897001f999700af9997004b08070098
:10121000ffb097003102be002103be000000e000d5
:1012200004003d000400be000601be0003f0a20061
:10123000020037000400be000601be00f0979f00c8
:10124000819f9f00929f9f00a39f9f006f91970097
:1012500064015100e2979f00c3fa2f008f81410083
:101260006a8041000048eb006b824100c4b79f00d8
:1012700031003700c201200003002000e5fa2f00f2
:101280000f8042003d0307007f9497008f9c9700da
:101290001f9d9700af9d97000800be000a01be0089
:1012a0002b0807000006be005fb1970067015100e0
:1012b000d2b79f004240a9000a003400500807003e
:1012c0000002be000203be000800be000a01be000c
:1012d0004e080700f0979f00819f9f00929f9f00fc
:1012e000a39f9f00cfb1970067804100710020004d
:1012f000050037006f6066004c6add004466de0062
:101300000c067200c4eede00e00f5600e08f5e00b7
:10131000050034008100e900e18f4000f5ff3a004c
:10132000010037000060eb008100e900fdff3b0099
:1013300067004000c0b79f00dfb297000500e000e3
:10134000090034006022b8006033b8007f90970035
:101350008f9897001f999700af9997002d08070065
:101360000000e000c3ff3c0060fb2f008f00400046
:101370004fb19700010051000000e9008e0f5000ae
:1013800001003d00000778000e00e00003003d0072
:1013900073fb2f000f8141002c003700800f570096
:1013a00005003d000e80400010409000f3c0b300e7
:1013b000e74f500001003c008041eb00c4fa2f00d1
:1013c0000f0242000e0042006a0040008e007800ca
:1013d000010037000000e9008100e90010417800b9
:1013e000834f5100fbff32000107e800efcf5100af
:1013f00001003a000248e8000100e0000300350067
:1014000075fb2f000f814200060037000e07e80031
:101410006f90970064004000e0979f0061fb2f00f1
:101420000f8140008e0041008e01780003003700dc
:101430001100fb006fb29700e44878008301e900d7
:101440008100e9000300e000f9ff3d00ffb29700d2
:10145000550890000000e000f3003d000e00e90098
:10146000d00a9800f00037007f9497008f9c970077
:101470001f9d9700af9d97006022b8006033b800b1
:101480000800be000a01be00ac0707000000e00033
:1014900005003d000bf0a200f8979f00899f9f0078
:1014a0009a9f9f00ab9f9f006f90970072592700f3
:1014b0000280b900026a280013002000da07070042
:1014c000e4005000e1979f0015003b00e38010000e
:1014d000c0ff2f00008460000800ea00e0979f0032
:1014e0007f9097008f9897001f999700af9997006a
:1014f00029c62000070037000808a30003003200b7
:101500003902be002903be00040607000884d1008a
:10151000e88444000800e000f7ff3c001b003700af
:101520000100e0001d003400c0ff2f0000806000bb
:10153000e0979f00000478006000b80002002000df
:1015400003ff230029c62000070037000808a30076
:10155000030032003902be002903be00ef05070078
:101560000884d100e88444000800e000f7ff3c0054
:101570000002be000203be007f9097008f98970084
:101580001f999700af999700b6070700f0979f0043
:10159000819f9f00929f9f00a39f9f00ffb0970095
:1015a0005109900060c6b3008ff1970080cf5100c1
:1015b000040032006100200060c4b30080cf5100fd
:1015c00002003a006f929700ea00420001074100d2
:1015d000f30f5700010034003e01200000c3b300a8
:1015e000e0779f0075fb2f008f824200b5b79f0008
:1015f000330037000800be000a01be005407070090
:101600000006be00680757004240a9000e003400e3
:101610007b0707000002be000203be000800be00f8
:101620000a01be00790707006022b80046782d0045
:1016300077192400b9050700f0979f00819f9f004c
:10164000929f9f00a39f9f003fb0970068044000b7
:10165000890020000d003700a400200005002000b4
:101660000c01be00e0fd2f000f004000bc0207008f
:101670007fa897008fb097001fb19700afb1970078
:1016800004c3b300046441000006be00e00f56002e
:10169000e08f5e00060034008904e900e18f440019
:1016a000edff3a000200370000c3b3000064780089
:1016b0008904e900fcff3b0068044400b8b79f00c0
:1016c0000e00e0000b0034007f9497008f9c970081
:1016d0001f9d9700af9d97006022b8006033b8004f
:1016e0000800be000a01be004a0707000000e00033
:1016f000c0ff3c00c5fa2f008f8242006a80420082
:10170000bfb09700008050008001e9006f91970002
:10171000e70041006b814200010037000201e80050
:1017200000c3b300924f1000fcff320074fb2f0087
:101730000f00420080804000828050000080410005
:1017400002025000e1979f00ffb29700d509900078
:1017500060c6b3008ff2970080cf520003003200c2
:1017600060c4b30080cf520002003a008100e8005c
:101770000a00370050c6b3008ff0970080cf5000aa
:10178000050032008000eb0050c4b3008ff29700d8
:1017900080cf520001003a00110020000187410073
:1017a0008e0f520001003d00040778000e00e0009b
:1017b0001d003500840f570005003d00e2407f000a
:1017c00095c3b30040c3b30080cf500001003c007c
:1017d00005c3b3000e0041008000e9008e017800cf
:1017e000010037008100e9008301e900114278001f
:1017f000854f5200fbff32000307e80090c3b3009f
:1018000080cf520001003a008448e8000300e00065
:1018100005003d000201e9000e07e8006f90970007
:101820000000e800e0979f006f9297008e0178001b
:101830008ff097007fb09700660207004f0778008f
:101840004f06be004f05be004f04be008f04b1001e
:10185000000006002f03b000889fbe008a9fbe00d4
:101860008c9fbe008e1f780000077800d0ce20002d
:10187000c0b79f0080c5b30080cf50000800320081
:10188000c2cd2000c2b79f007740400080cf5000fb
:1018900003003a0083002000b3b79f000a0037001e
:1018a00080c7b30080cf500005003200a4002000a4
:1018b000b4b79f0080c5b30080cf500002003a004b
:1018c00005012000b5b79f003e04be002e05be00f6
:1018d00040c6b30080cf5000030032006540400096
:1018e00080cf50000b003a00e00f5400e08f5c0006
:1018f000e00f5d00e08f5d0006003d006000b80075
:101900006011b80008045000898458000a05590085
:101910008b8559003fb19700e80f5100030032005a
:10192000f00f510045003a00020037003c00200053
:10193000010037004c002000e00f5400e08f5c00f5
:10194000e00f5d00e08f5d0005003a005e0890004a
:1019500083012000a3b79f000000e00008003200d0
:101960003fb297000400e90008006000cfb2970082
:101970006540780090df9f0070012000a0b79f00b5
:101980008c0078008100e900050033008b05d10050
:101990000a85d3008984d3000884d300f9ff370077
:1019a000089fbe000a97be002fb197000200e90011
:1019b00023fc2f008f814100008441001400370078
:1019c0002fb097000000e900a0b79f003fb197003b
:1019d0000200e90004006000cfb197006354780072
:1019e0003e00be002e01be000c0278000402e90099
:1019f000050033008381d1000281d3008180d300b0
:101a00000080d300f9ff3700009fbe000297be00a0
:101a10003e02be002e03be00e00f5200e08f5a00cf
:101a2000e00f5b00e08f5b00da0034002fb097001e
:101a30000000e000e2ff3c00d6003700ae609000fe
:101a400080c6b30080cf50000b00320006003c007f
:101a50000104e000080032006640500080cf5000d2
:101a600073003a0004003700c0c6b30080cf5000b6
:101a70006f003a0031003700080178000800e000ec
:101a800005003a005e08900081012000a1b79f0088
:101a90000000e00009003200bfb19700110009000a
:101aa0000381d8008000fd004fb2970064407800a9
:101ab00090df9f0075012000a5b79f003fb29700ff
:101ac000110009000481d80080017800afb29700ae
:101ad0000500e90021fc2f008f80400000824000bb
:101ae0000c003700bfb29700110009008501d80033
:101af000000178002fb097000000e900a0b79f0018
:101b00000590b90000805100cfb097006152780075
:101b1000820178000300e000030034002fb1970039
:101b20000200e000efff3c0003007800cf80de0001
:101b300001017800820178003a0037000806be00f3
:101b4000e00f5400e08f5c0005003a005e08900052
:101b500083012000a3b79f000000e00009003200cd
:101b60003fb297006121b9000c00be009706070044
:101b7000cfb297006540780090df9f007001200091
:101b8000a0b79f003fb297006121b9000c00be00d2
:101b9000910607000006be00afb297000500e900fd
:101ba00021fc2f008f8040008080400091b79f0073
:101bb000110037003fb197006114b9000801be0061
:101bc0000c00be00180607000005be00afb197006c
:101bd0008301e900a3b79f000801be0008030700c6
:101be000000056001fb29700cfb2970065527800f0
:101bf00094b79f000a06be00e00f5600e08f5e001b
:101c0000030034002fb097000000e000e9ff3c0023
:101c10004feade00cfa2de000c00be000401780017
:101c200084017800009fbe000297be005900370073
:101c3000e00f5400e08f5c00e00f5d00e08f5d007e
:101c400005003a005e08900081012000a1b79f00c6
:101c50000000e0000d0032003fb197000202780062
:101c6000cfa2de0005037800860378000800be00de
:101c70000a01be00e90607004fb2970064407800f1
:101c800090df9f0075012000a5b79f003fb197002e
:101c900002027800cfa2de000503780086037800f8
:101ca0000800be000a01be00d5060700009fbe0066
:101cb0000297be00afb197000300e90024fc2f009b
:101cc0000f0242000006420024003700bfb2970016
:101cd00005047800cfc4de00090578008a05780085
:101ce0000802be000a03be005fa89700efa8970095
:101cf0007fa997008fb19700cc060700d0b79f004f
:101d0000e1b79f00f2b79f0083bf9f002fb09700fd
:101d10000000e900a0b79f000802be000a03be0051
:101d20005fb09700efb097007fb197008fb9970031
:101d3000440707005faa970000005200cfb2970047
:101d4000655678005fb09700efb097007fb19700bd
:101d50008fb99700009fbe000297be003e00be00f4
:101d60002e01be00d0af9f00e1af9f00f2af9f00f9
:101d700083b79f00e00f5000e08f5800e00f59003c
:101d8000e08f590003003400afb097000100e0007d
:101d9000ceff3c003fb19700e80f510013003a001e
:101da0000e1090000038a30010003200afb1970071
:101db000f78f510006003e0024fc2f000f02420066
:101dc0008300420000c3b300914f100007003200af
:101dd000afb297008502e900a5b79f0000c3b3002a
:101de00021fc2f008f80400080f07a00afb1970077
:101df00078811100120f98006e00900024fc2f00d3
:101e00000f024200830042005ef907001e099000a5
:101e10005e089000800f510006003d000200500057
:101e2000000f98000e1090000040a10000179800cd
:101e30000f0037000000e0000d003d000e10900084
:101e400074006000f00f500009003a007e08900016
:101e5000fe009000010050008e089000010050002c
:101e6000020050004240a90001003400000f980019
:101e70004f0778004f06be004f05be004f04be005e
:101e80002f03b10000000600800078000100370039
:101e90000000e8001004e000fdff3a0001005000df
:101ea000000006008001eb00040037008301e80019
:101eb00090cf1000040032000000e800828f510033
:101ec000faff3a000000eb0000000600889fbe0009
:101ed000800478006684400000ff2700180060003e
:101ee0004401de00f07f2000800f51000e003a0018
:101ef000800ceb00180478006f0064001c003a00ae
:101f0000210090000000e00019003a00110090004c
:101f10000000e00016003a00100020001100e00070
:101f200014003200120037000200e00005003c00ff
:101f300001007800db010700000178000000e000ec
:101f400008003c00f00028001800600001fe23009b
:101f5000010c700020c02f00800c41000080eb00bd
:101f600004003700800ceb000000eb00010037009c
:101f7000200020004f04be0000000600889fbe0025
:101f80008a1f78008c9fbe00000478000206be0005
:101f9000e6044000190178000200d0004505de008b
:101fa0008a007800f07f2000800f55000c003a0076
:101fb0006f00610065003a00280090000000e0001a
:101fc00062003a00180090000000e0005f003a0054
:101fd000100020001800e0005d0032005b003700b8
:101fe0000a00e00007003a0008007800ad01070091
:101ff000800078000000e000020034000a00780051
:10200000530037006108b9000c0140008d81480081
:10201000e07f2000800f5100e08f59000d00340058
:102020001900e00004003d006000b800020020003c
:1020300003ff2f00030037006000b80002002000fb
:1020400003ff2700009cbe000294be001000200089
:102050003f003700e00f5100e08f590005003400c9
:10206000f000280019006000c410dd00810c700031
:1020700034003700190078000100280001036000d7
:102080006f0060000040a000800c780061015100ea
:10209000e0815900c0fc2f00f1ff2f00800f51009c
:1020a000818f59000d003d00860c78000000eb0088
:1020b0002004980010049800000c780024003700d9
:1020c0008880e800110c78006400440090087800d3
:1020d00019087800800ceb0070014100f00f4100fe
:1020e000f7ff34008202ea00150032008881e80020
:1020f00070821200980078008508de0013007800d6
:102100000400dd00008c700064014400930078003e
:102110008508de00120078000400dd008089700070
:10212000920078008508de00190078000400dd00c8
:1021300000897000190078000500de00800c78002e
:10214000990c73000080eb00010037002000200094
:102150004f06be004f0578004f04be000000060089
:102160000400fa00889fbe008a9fbe008c1f780082
:102170000006780092bf9f00a3bf9f000404be002a
:102180000401be001fb89700afb89700a60407006f
:102190000005be000001be000800be009801070057
:1021a0001fb99700afb99700000051008180590016
:1021b00020069800310698000a8ebe000c007800b8
:1021c0004f0678004f05be004f04be000080fa00a5
:1021d000000006000e00fa00889fbe008a9fbe0025
:1021e0008c9fbe000004780001457800020678004c
:1021f00083047800840678000300e00002003c00bd
:10220000190020006cd2200060c6b300804f55003a
:102210000e00320060c4b300804f55000b00320046
:1022200070c6b300804f55000300320070c4b30085
:10223000804f55009c003a00e48f46008000350036
:1022400058089000808f56007d003d008d05e80005
:1022500060c6b300804f55001000320060c4b30068
:10226000804f55000d003200081090000038a30088
:1022700004003a0058089000808f540001003d008f
:10228000590c9800580890000b005000500c980012
:1022900002003b000000eb00500c98000b00e00037
:1022a00027003c00180990006800900001c3b300ab
:1022b000017079008201e800130c98005808900022
:1022c0000000e00003003c00081090000038a3006c
:1022d0000500320068009000e1c2b30001f079000f
:1022e0000280e800100c9800d80890000b00ea006b
:1022f000808f500001003d008105ea000b00ea00dc
:10230000200c980001804500500c9800890f500067
:1023100001003d0080047800390c980068009000ae
:102320009808900001004000090178008c007800b6
:1023300014f8070058089000090050001a003700f0
:1023400098089000680090008b8f540018003d00a2
:1023500001004000090178008c00780009f80700ae
:102360001808900000814400120c98000980550064
:10237000200c9800580890000000e00003003c008a
:10238000081090000038a30006003200e80090001a
:10239000e0c2b30080707900380890000000e800c7
:1023a000300c980058089000400c9800a6003700a8
:1023b000010040000b0178008c007800f1f7070065
:1023c0001808900000814500120c98008b8454007e
:1023d000580890000000e00003003c000810900046
:1023e0000038a3000500320068009000e1c2b3008d
:1023f000017079000200e800100c98005808900065
:10240000890f500001003d008004780068009000b2
:1024100098089000010040008b00460009017800f8
:10242000d8f707001808900000804400100c9800ae
:102430005808900009005000200c980082003700d6
:1024400070c6b300804f55000300320070c4b30063
:10245000804f550014003a0058089000808f5400b7
:1024600004003d00081090000038a30001003a006d
:10247000590c9800580890000000e900500c980092
:1024800002003b000000eb00500c980070c6b30047
:10249000804f550002003a005ac6b3000b003700c7
:1024a0005ac4b3000900370010c6b300804f55006e
:1024b00002003a000ac7b3000400370010c4b3009a
:1024c000804f550001003a000ac5b300180990007a
:1024d000680090003c7079008201e800130c9800bd
:1024e0000c027800580890000000e00003003c0057
:1024f000081090000038a30017003200e800900098
:10250000e0c2b30080f079008280e800110c9800ee
:10251000580890000000e0000f0034008904e90032
:10252000890f500001003d00800478006800900091
:1025300000804000090178008400780091f70700ce
:102540001808900000804400100c98005808900073
:1025500009005000200c9800680090009808900036
:10256000010040000086e8000a58780080007800ea
:102570000d00e00004003500b0c2b30080487800d0
:102580008c04780004003700d0c2b3008048780083
:102590008c0478008d06ea008005eb000a00370005
:1025a000a20020008d00780070805700890007008d
:1025b0000fb897009fb897007a81550001f17f000e
:1025c0008b05e800800678000d00e000f4ff3c0079
:1025d000e18f550009003c0050c6b300804f550004
:1025e0000300320050c4b300804f550003003a008e
:1025f00000c3b300005e78008c0478000b00e0009c
:10260000040032000b00e900fa805700008040000f
:102610000600370000c3b300805c78000500370077
:102620008b05e90002c3b300a05c41000b00e00091
:10263000fbff3c00680090009808900001004000fb
:1026400000805400300c9800081090007400600066
:10265000f00f50000e003a007800900098089000ab
:1026600001004000a808900001004000b808900058
:1026700001004000c80890008100400078089000e8
:10268000808f500002003d0001005000000c9800b7
:102690004f06be004f05be004f04be000080fa008a
:1026a0000000060000027800e602400015007800f5
:1026b00001002800810360006f006000800a78003c
:1026c00012003a00240090000000e0000f003a00e1
:1026d000140090000000e0000c003a0016002000fa
:1026e0001400e0003800320008003700e400420027
:1026f000910a78000480e8009008780014087800b7
:10270000000aeb00700353000100370016002000a0
:102710001500e000f5ff32001300370064014200ad
:1027200080004000120078004f00de00808a7000b8
:102730008481e800920078008180400013007800d6
:102740004f00de0000897000930078008180400017
:10275000140078004f00de008089700014007800bb
:10276000000a40000603e90015007800ef0f500052
:10277000eaff3600100037000481e8009400d10021
:10278000120078004f00dd00008a7000e400420073
:102790009201d100110078004f00dd000089710026
:1027a0001101d100150078004f00dd008008710094
:1027b000950ad1000603e80015007800ff0f5000cd
:1027c000edff3e00ef0a6000958a73000600780076
:1027d0000000060002027800809fbe001100090080
:1027e0008200d800000178004f00be0002a2b900ac
:1027f0008480500011009800020878000000060054
:10280000020ab900001bb9000200b80081004200b2
:10281000810043000000060014002000df013700a3
:102820000001be00f80107000470a70003f0a1003a
:102830006509b100160032000d0035006828e1007e
:1028400006003500f0ff2f00f1ff27000300e00035
:1028500013003b00010028000000050000004000bc
:10286000818048008502e900fcff3a00080037003b
:10287000f88f420002003c008000eb0000000500e1
:102880008100d1000080d3008502e800fcff3a00ff
:102890000300e00002003b0060001000e080180030
:1028a0000000060081037800d70107000001be0088
:1028b0006000b8000478a30013003a006220e10031
:1028c00015003e000d0039008301d1000281d300c4
:1028d0008180d3008301d1000281d3008180d300a5
:1028e0008301d1000281d3008180d3000538b0007c
:1028f000c42add00f300b2008381720007f0a70054
:1029000003f0a00000000600f3ff2700f2ff2f00f5
:102910006110b900fbff370003ff2700f7ff370006
:10292000889fbe008a9fbe00010578000100e0007c
:102930000400350008003c000000e00020003200e8
:102940000500370060001000e080180002003b0026
:1029500001f02c001a0037000004be006011b8001e
:102960006b0920000982cf00020039000882cf00e5
:102970000441b000694252000e00320008003b00e2
:1029800082817100610164008904d1000884d30050
:102990008b05e8000442e800f9ff3a000500370023
:1029a0000804440089844c008b05e9000442e900d6
:1029b000fbff3a00a90107000af0a70001f0a00000
:1029c0004f05be004f04be000000060003f0a20049
:1029d000889fbe008a9fbe008c1f7800c50107003b
:1029e000cc0133006450e1004f0032006420e1006c
:1029f0005200320003826c0007003b000905d00042
:102a00000306d000820f54000c065d00020039005e
:102a100002003200890178000306780085825500a3
:102a200004003d000003fd008103fd008502ea0073
:102a30008b854200840f720002003b006000100092
:102a4000e08018006011b8000005eb007a28e10072
:102a50000a00390006007800c75ddd00f707b20004
:102a6000878075002d003700828171000a0178008f
:102a7000610560008180d1000080d3008502e900fb
:102a8000f9ff3b00060440008784480002003b0039
:102a900060041400e0841c000988a30007003200d1
:102aa0008a81710082817100610164008904d10012
:102ab0000884d3008b05e800170037000978a300cd
:102ac00013003a000b00e000130034008b05e9000e
:102ad0000804440089844c000a4474000978a30067
:102ae0000d003a000b00e000070034008b05e90000
:102af0000804440089844c0001003a000b002000c7
:102b00000978a300f7ff32000001eb000200370054
:102b1000828171000a017800500107000cf0a700c3
:102b200001f0a000840137006420e10002003a00b7
:102b3000838f6c00840133000801be000200be00d8
:102b40007d013700889fbe008a9fbe008c1f7800e1
:102b5000680107006f01330003866c006450e100d8
:102b60002e0032006420e100330032006150e100a9
:102b70002f0032006120e1003100320085855500d0
:102b8000eb07b00009002000080420000500370012
:102b90000804440089844c000a0031000603430005
:102ba00087834b000001530081815b00f8ff3300f5
:102bb0000203be000800a0000804440089844c0001
:102bc000f6ff3900c639dd008301730001003200d1
:102bd000130020008904d1000884d3000998a300c1
:102be000050032000800a7000300a0008904d100fe
:102bf0000884d3008b05e8008904d1000884d30041
:102c00000001eb000281d2001401070001f0a100d5
:102c10000cf0a70001f0a000470137006420e1009c
:102c2000490132000801be000200be00f7ff370074
:102c30006120e100440132006000b800f3ff37007a
:102c40000000200001f82700f0ff3700889fbe0039
:102c50008a9fbe008c1f7800260107002d013300db
:102c600003866c006450e100240032006420e1001f
:102c7000270032006150e100220032006120e100b3
:102c8000210032008b854200eb07b1000134b8000f
:102c9000003ab8000804420089844a00013ab800aa
:102ca0000030b8008880400009014a000400330069
:102cb0000000400081804800020149008b05e900c6
:102cc000c909dd00830170000100320013002000fb
:102cd000c814de004814dd004709de001200b2000f
:102ce000c808de0008847000dc00070001f0a100c5
:102cf0000cf0a70001f0a0000f0137006120e100f7
:102d0000110132000801be000200be00f7ff3700cb
:102d10006150e100fcff3a000b0137002800fa0087
:102d2000889fbe008a9fbe008c9fbe0003866b00fa
:102d3000080107000028a30064003a000128a3004e
:102d400067003a000008a30062003a000108a300ef
:102d500065003a001e009000be0890008106400009
:102d6000ed3fb100f4805700ee019000111ab80059
:102d70008e099000311bb8009e099000311cb800ec
:102d8000511db800f485570046000700fe01900071
:102d90003a0007008b85e8003e0007008e0990008e
:102da00040000700ee019000340007008b85e8002a
:102db000380007008e099000400007009e0990002f
:102dc0001b18b800890440000a854800fe019000e5
:102dd000340007008b85e80038000700ee01900002
:102de000300007008e0990001b18b80089044000cd
:102df0000a8548000a98a30008003a00040242002d
:102e000085824a0006034b0087834b0008044c0070
:102e100089844c000a054d008d06e9008482720009
:102e2000850273004c3add00850272000100320019
:102e300015002000443ade001400b2004538de00e0
:102e4000cb45dd000b007000c540de00cb4ddd0042
:102e50008b8070004549de00cb55dd000b01710011
:102e6000c551de000d037800d300070003f0a10078
:102e70000cf0a70003f0a000ca0037001b18b80030
:102e80008502400006834800e0834b0060044c004c
:102e9000070037001b18b80006034000878348006e
:102ea000faff37001b18b800870340000884480069
:102eb000e0844c0060054d00000006001b18b800bf
:102ec0000804400089844800faff37000108a30085
:102ed000b1003a005800be005801be00e3ff3700c1
:102ee0000008a300ac003a0009047800f9ff37009d
:102ef0001400fa00889fbe008a9fbe008c9fbe000f
:102f00000005be000206be00680047000c90be002f
:102f10000a90be00d40007006400e1001a003200ed
:102f200016003e006100e1001a0032006e049000bd
:102f3000fe0490000e0b90009e0b90006011b800f4
:102f40009e0590000b38b100d501200082817100f0
:102f5000610164008703d1000683d3008984d30014
:102f60000884d3008502e900f8ff3a003b0007001f
:102f70000df0a70001f0a0008a003700f1ff270044
:102f8000f0ff2f008700370001f827000000200025
:102f9000f7ff37006000b800f5ff3700889fbe00dc
:102fa0008a9fbe00841f7800520007004f007800ff
:102fb00011003300f0ff2f00838f6c0006003b00f0
:102fc000040565000a00a7000800370009f0a60004
:102fd0001000200008003700820f5400838f5c002f
:102fe000030039001000200001003e000000200016
:102ff00009f0a7000000ea004f05be004f04be0024
:103000000000e00000000600c70ade00f107b20081
:10301000f50fb20008003200e1cf4200020032009a
:103020000170a00024000500810f70000100320033
:103030000408050044000500810f700002003a00fa
:10304000140005008502e9000000400081c048002e
:10305000fcff3b000170a00024000500810020005f
:10306000618055000b003d000b00200061fe2f0029
:103070000100e1001d0034008281710061016400e3
:103080008904d1000884d3000000e800faff3a0068
:103090007100200061006400030070000200600005
:1030a0000900320061044400e0844c000988a50056
:1030b000050032008b05e8006808e10002003a00d4
:1030c0008904d1000884d300f20f20000258e100e7
:1030d00005003d00c75ddd00f907b200898075007d
:1030e00008007800000006000bf827008b0078002d
:1030f000000005000004be00c3ff07000003be007f
:103100000405be000200be00bfff0700844f75002b
:10311000000006000200be006450e1000500360019
:103120006420e100020036000968a30001003a00b3
:103130000800be000160a0004f0678004f05be00e9
:103140004f04be0000000600f0ff2f00f1ff270033
:10315000f9ff3700680447000294be000094be00e7
:10316000fc0447008694be008494be0009007800e9
:103170003d000700080078003b0007009900780038
:10318000814f70000b003b000800be005d0007008f
:103190004f00b10003003700f3ff2700f2ff2f00bc
:1031a0006110b9004f06be004f05be004f04be00bf
:1031b0000080fa00000006001800200057002000e0
:1031c000080453000d003d000600200097fc2f006e
:1031d0000740e1001e00340084827200610260003a
:1031e0008301d1000281d3008180d3000080d3000d
:1031f0000804e800f8ff3a0047002000610460007e
:1032000005047400040464000d00320061004000f5
:10321000e080480060014900e081490003b8a50052
:10322000070032000603e8006538e10004003a00b8
:103230008301d1000281d3008180d3000080d300bc
:10324000f87f20000830e100030035000803780013
:103250006000b8006011b8004433dd00f300b20034
:103260008301730000000600800078005002be0059
:103270005003be004439de00f700b200f37f2000a7
:1032800003016100090032000218e10016003a0053
:1032900085017200830173008381730000082000a0
:1032a00015003a004000200013003700850172002d
:1032b000830173008381730005003a0004a8be00f7
:1032c00006a8be00100020000b0037000201e90034
:1032d0000402420085824a0006034b0087834b00ac
:1032e0000748a300f9ff32000740a00004a8be0071
:1032f00006a8be00200020008000980092009800e0
:1033000000000600e48240001078a30007003200ad
:10331000640240001178a3003400be001401be0016
:10332000040032000330a700000006003500be0094
:103330001501be000330a000000006008f1fd10061
:10334000ee0107008f87e9000000e00000000600a2
:103350001400fa00889fbe008a9fbe008c9fbe00aa
:103360000004be000205be00680047000a90be00cf
:103370000890be00bcff07000070a7000bf0a10082
:10338000304320009e02900080825200b0fe2f0049
:103390000028e10011003d00b0fc2f000028e100f2
:1033a000150034001e0990008e0890007e009000e9
:1033b0000501b0000201d1008180d3000080d3005c
:1033c0008502e800fbff3a000b00e00075ff3b00c0
:1033d00060001000e080180072ff3700f0ff2f003f
:1033e000f1ff27000b00e0006eff3b00010028000a
:1033f000000020006bff37006000b80069ff370055
:103400004f89de0082017800e501370007f0a20055
:103410001a023700809feb00b80107008f87e90090
:103420000000e00000000600839f68000100e0004b
:1034300002003d0060001000e08018000300e00082
:1034400002003d0060011100e081190062000700e8
:103450004f00e00002003b0060001000e080180018
:10346000000006002800fa00889fbe008a9fbe0068
:103470008c9fbe0003866b0036ff07006400e100ee
:10348000440032006408e1004a0032006100e100bb
:10349000460032006108e10049003200ec064700b6
:1034a0006000b8003d02be003d03be00f486570038
:1034b0006011b8003d04be003d05be007d03200044
:1034c0000b0037000000a0008d06e9001300320059
:1034d0000402420085824a0006034b0087834b00aa
:1034e00000004000818048000201490083814900ba
:1034f0000802520089825a000a035b008b835b003a
:10350000f0ff3b000802420089824a000a034b0098
:103510008b834b008d06e900edff3a008482720038
:1035200086827200f707b2008782720001003200c3
:10353000150020001e0490003e0b9000060354006e
:10354000e63fb0000368a300070032000000a700b8
:103550000500a0008301d1000281d3008180d30047
:103560000080d3000603e8008301d1000281d3006c
:103570008180d3000080d3000002eb000482d200df
:103580000dff070003f0a1000cf0a70003f0a0005e
:1035900004ff3700640247006408e100fefe3200c9
:1035a0003400be003401be00f6ff37006108e100c0
:1035b000f9fe32006011b8006000b800f1ff37007a
:1035c00003ff270002002000fbff37000200070076
:1035d0000400be00000006006022b80006022000c1
:1035e0000000d0008180d2000482d2008582d20007
:1035f0000000a0000202520083825a000300310042
:103600000202420083824a000000a1000603e90092
:10361000f3ff3a0000000600881f780000047800dd
:103620005001be004000be000400400085804800fc
:103630000601490087814900009cbe000294be003b
:103640000400e1000588e1000690e1000798e10030
:1036500002003100680044001008e8004f047800c0
:1036600000000600f4874700889fbe008a9fbe00c6
:103670008c9fbe008e1f78000205be000004be00b5
:10368000d4b79f00e5b79f00f6b79f0087bf9f00a4
:103690000000eb00c0b79f00b0b79f00a0b79f002d
:1036a00090b79f0080b79f000d042000bfb0970027
:1036b0004fb09700000140000000e0000f003d0007
:1036c0004f08de0000007100c0b79f009e00070099
:1036d00001003d0012002000a100070001003d0094
:1036e00012002000a6000700b1000700b600070086
:1036f0000f004000c8ff0700220037004f08de001f
:1037000000067100ccb79f008f00070001003d004c
:10371000120020009200070001003d00120020006e
:1037200097000700a20007000fb297009fb2970012
:103730002fb39700bfb39700a90007000000520005
:1037400081805a0002015b0083815b0080b79f008b
:1037500091b79f00a2b79f00b3b79f000007eb008f
:103760009f0007000020e10001a8e10002b0e10095
:1037700003b8e100010031001e0020000e005600d9
:10378000c0b79f004fb297000400e000070035006b
:1037900010002000010020006011b8000804700033
:1037a000898470000a0571008b8571008d06e9001f
:1037b000beff3a000400e00003003d008200070065
:1037c0000f00400094ff07004fa897000000e000a2
:1037d00004003a000fb497009fb497002fb59700ec
:1037e000bfb59700940007004f0778004f06be0052
:1037f0004f05be004f04be004f01b100000006009f
:10380000881f780018002000881f780095ff0700a7
:103810008f87e9004f04780000000600801feb004e
:1038200090ff07008f87e90000000600889fbe0018
:103830008a9fbe008c1f78006e00070007003d00c5
:1038400073000700e00f5b00e08f5b0007003d00a6
:10385000320007000006eb000400370034000700c8
:1038600002003d002a0007001c0020007200070033
:10387000e3ff07000203be000002be000c00e000f0
:1038800001003200220007000400be000601be0055
:103890004f0678004f05be004f04be000000060032
:1038a000889fbe008a9fbe008c1f780051000700d1
:1038b00005003d0056000700e00f5b00e08f5b0055
:1038c00006003d00040037001900070003003d001a
:1038d0006000b8006011b800100007005600070033
:1038e000ceff07000203be000002be000c00e00095
:1038f00001003200060007000400be000601be0001
:103900004f0678004f05be004f04be0000000600c1
:103910006000b8006011b8000000370004025000d9
:10392000858258000603590087835900000006006d
:103930000006eb00e00f5200e08f5a00e00f5b0042
:10394000e08f5b00000006000180400090b79f0000
:103950000001eb008fb097000100e00000000600be
:103960000200700090b79f000180400080b79f0068
:103970000001eb00ffa897000100e0000000060036
:103980000200700080b79f00018040006faa97007e
:10399000cf20de0001007000f0af9f000402420063
:1039a000250007004f18de0000027200000006002c
:1039b000e4af9f000804440089844c000a054d00d0
:1039c0008b854d00000006003fb29700cfb29700f4
:1039d0005fb39700efb3970000fe2f0000000600d2
:1039e0003fb09700cfb097005fb19700efb197005d
:1039f000000006000205be000004be00e00f5000fb
:103a0000e08f5800e00f5900e08f590000000600d9
:103a10006000b8006011b8000804500089845800a4
:103a20000a0559008b8559001c002000e00f520048
:103a3000e08f5a00000006000800be000a01be0028
:103a400000000600889fbe008a9fbe008c1f780081
:103a50000205be000004be000006eb00e00f5000af
:103a6000e08f5800e00f5900e08f590007003d003b
:103a70006000b8006011b800080450008984580044
:103a80000a0559008b8559001c002000e00f5200e8
:103a9000e08f5a00e00f5b00e08f5b0002003d000a
:103aa0000f0007000c00a2000800be000a01be00c3
:103ab000ef0007000203be000002be000c00e000a1
:103ac00001003200060007000400be000601be002f
:103ad0004f0678004f05be004f04be0000000600f0
:103ae0006000b8006011b8000402500085825800e0
:103af000060359008783590000000600889fbe0016
:103b00008a9fbe008c9fbe000404be000605be0056
:103b1000809fbe00829fbe00f70007000406780069
:103b20000800be000a01be00f3000700840678000a
:103b30004f03be004f02be008d4f76007fb097004e
:103b400013003300f0ff2f008b8f6b0006003b004b
:103b50000d0666000c00a7000a00370007f0a6005b
:103b6000100020000a003700880f5200898f5a0089
:103b70008a0f5b008b8f5b00030039001000200070
:103b800001003e000000200007f0a7000000ea004e
:103b90004f06be004f05be004f04be0000000600e9
:103ba000889fbe00830478000300e0002c003500ed
:103bb00003003c0000827000040271002600320005
:103bc00036432000c50020008383cf000a0039005f
:103bd0000541b1008283cf00070039000541b100e3
:103be0008183cf00040039000541b1008083cf00fc
:103bf000010039000541b10085c353006022b800bf
:103c0000120032000a003b008482720061026000f0
:103c10008301d1000281d3008180d3000080d300d2
:103c20000603e8008743e800f7ff3a000700370083
:103c30000000400081804800020149008381490062
:103c40000603e9008743e900f9ff3a005afd07003f
:103c500009f0a70003f0a0004f04be00000006001a
:103c600060001000e080180060011900e081190078
:103c7000d3ff3b00033e2c00f7ff37002800fa007b
:103c8000889fbe008a9fbe008c9fbe0007067800fa
:103c9000878669000c003b000304780087047800e5
:103ca00008f0a10009f0a100840f5000858f580092
:103cb000860f5900890f5c00030033000cf0a2004e
:103cc00001003a000cf0a10022fd07006400e100b1
:103cd0005f003200780147006408e10061003200b3
:103ce0006c014700748557003200be001201be000f
:103cf0003a04be001a05be001e039000be0a9000e2
:103d00008503530006003d000004fd008104fd0012
:103d10000205fd008305fd008703ea000503780026
:103d20000df8a3000400320060041400e0841c00bd
:103d300060051d00e0851d006022b8007d032000a5
:103d40000d38e1008006eb000b0039004433dd0044
:103d5000f300b200830173003900370084827200df
:103d60000d027800e10664008b85d1000a85d3003e
:103d70008984d3000884d3008703e900f7ff3b0060
:103d800008004000898048000a0149008b814900f1
:103d900004003b0060001000e08018006001190082
:103da000e08119000358a300090032008d827200df
:103db00084827200610260008301d1000281d3001d
:103dc0008180d3000080d3000603e8001b00370089
:103dd0000348a30017003a000600e0001700340073
:103de0000603e9000d00a3000000480081804800a0
:103df00002014900838149000348a3000f003a00f3
:103e00000600e000090034000603e900000040005d
:103e100081804800020149008381490001003a0085
:103e20000003eb000348a300f5ff32006022b80056
:103e3000020037008482720061826600defc0700a7
:103e400003f0a1000cf0a70003f0a000d5fc3700a0
:103e5000640147006408e10002003a000df8a30085
:103e6000cdfc3a003200be001201be00cdfc37008e
:103e7000889fbe008a9fbe008c9fbe000404b800cd
:103e80000506b8008904460060854e000606b800a5
:103e90000a054600e0854e000706b8008b0546007f
:103ea000040eb800890446000a854e00e0854d00e6
:103eb000050eb8000a0546008b854e00060eb800b8
:103ec0008b0546000416b8000a0546008b854e0097
:103ed0000516b8008b054600041eb8008b05460089
:103ee0000800be000a01be004f06be004f05be001e
:103ef0004f04be000000060005ff27000582610098
:103f0000070032000428e10001003200240005000f
:103f10000600070001003a004400050004080500ff
:103f200002000700f9ff3a00140005006f826100eb
:103f30008102700085027100850272000000060097
:103f4000800090000101e900c00090000000200006
:103f5000028009008018780000000600881f7800a1
:103f60008a1f78004400f800080f2000280288000b
:103f70003400f8003305900008f02f000a40e100fb
:103f800004003200280280004800b30028028800a4
:103f9000aa0188004600f8004800f8004a00f8002e
:103fa0004c00f8004e00f8008a0a2c003a02880003
:103fb00023049000580288001304900048028800ef
:103fc000530590007a028800430590006a02880039
:103fd000811f780063059000030290006302520085
:103fe0000000e9000080080006000000320d7800a3
:103ff0004618c300048009004618c4004218c400d3
:104000001201c4003100cd00ea0198004f00780091
:104010004e00f9004c00f9004a00f9004800f90090
:104020004600f9003400f9004400f9004f0578001b
:104030004f047800000006000021ef0011088800fe
:1040400020088800000006000621ef0061088800b3
:10405000800888001061a900000006000a21ef0016
:104060007108880090088800000006001421ef0005
:10407000d1088800f00888001e61a9000000060031
:104080001821ef00e1088800000988000000060000
:104090000de2a9008d20a9008d40a9008520a9006e
:1040a0008540a900000006008700a9008720a9001c
:1040b000e7416000010a20009140780082cfb30000
:1040c00082c0600083c070008000fd00a0e0b700e7
:1040d0008000fd0001c7b30081416000010a20009b
:1040e00091407800f2c8b30082c0600083c07000c5
:1040f0008000fd00a0e0b7008000fd0068016000c6
:104100004311de00f1082000914078000104a10075
:1041100082c070008000fd008fe0b7008000fd00cd
:104120000008b2004700de0000404000f108200017
:10413000914078000114a10080c070000100780057
:104140008fe0b70000000600f2108800b010880071
:08415000c11088000000060008
:020000040000fa
:10000800322b0000322b0000322b0000322b000074
:10001800322b0000322b0000322b0000322b000064
:10002800fa2b0000322b0000322b00004a2b000074
:10003800322b0000322b0000322b0000d82c00009d
:10004800322b0000322b0000322b00009a2b0000cc
:10005800322b0000322b0000322b0000322b000024
:10006800322b0000322b0000322b0000322b000014
:10007800322b0000ec2c00000e2d0000682c000034
:10008800322b0000322b0000322b0000322b0000f4
:10009800322b0000322b0000322b0000322b0000e4
:1000a800322b0000322b0000322b0000322b0000d4
:1000b800322b0000322b0000322b0000322b0000c4
:1000c800322b0000322b0000322b0000322b0000b4
:1000d800322b0000322b0000322b0000322b0000a4
:1000e800322b0000322b0000322b0000322b000094
:0800f800322b0000322b000046
:020000040000fa
:10010800322b0000322b0000322b0000322b000073
:10011800322b0000322b0000322b0000322b000063
:10012800fa2b0000322b0000322b00004a2b000073
:10013800322b0000322b0000322b0000d82c00009c
:10014800322b0000322b0000322b00009a2b0000cb
:10015800322b0000322b0000322b0000322b000023
:10016800322b0000322b0000322b0000322b000013
:10017800322b0000ec2c00000e2d0000682c000033
:10018800322b0000322b0000322b0000322b0000f3
:10019800322b0000322b0000322b0000322b0000e3
:1001a800322b0000322b0000322b0000322b0000d3
:1001b800322b0000322b0000322b0000322b0000c3
:1001c800322b0000322b0000322b0000322b0000b3
:1001d800322b0000322b0000322b0000322b0000a3
:1001e800322b0000322b0000322b0000322b000093
:0801f800322b0000322b000045
:020000040000fa
:10415800546f00006d610000722000004d65000082
:1041680064690000636900006f6e00002020000091
:1041780000540000617200006172000020200000fd
:104188002020000020200000202000002020000027
:1041980020000000426f000072720000617200008f
:1041a8002020000020200000202000002020000007
:1041b80020200000004f00006b200000706100000c
:1041c8007261000020740000657200006d690000d3
:1041d8006e61000072000000646500006c20000041
:1041e8007472000061630000746f000072200000a8
:1041f8002020000020200000006200006965000007
:104208006e200000616c00006d61000063650000b5
:104218006e6100006461000020000000546100002d
:1042280072610000723f0000202000002020000082
:104238002020000020200000202000000043000073
:10424800616e0000636500006c6100007220000070
:104258002020000020200000204f00006b000000fc
:10426800626f00007272000061640000612000004b
:104278002020000020200000202000002020000036
:10428800004f0000706300002e20000041760000ff
:10429800616e00007a610000646100007320000014
:1042a80020000000436100006d62000069610000a9
:1042b8007220000052610000646900006f20000055
:1042c80020200000004900006e67000072650000b1
:1042d8007365000020560000616c00006f720000da
:1042e800206400006500000064650000206c000088
:1042f800612000006d61000071750000696e0000aa
:1043080061200000202000000000000000000000e4
:104318000000000000000000000000000000000095
:1043280000000000000000000000000047750000c9
:10433800617200006461000072200000656e000078
:104348003a200000253000003264000020200000e0
:10435800004d00006564000069630000696f00009b
:104368006e2000004e20000025300000326400005e
:104378002020000020000000486100007920000093
:104388002530000032640000204d00006564000004
:1043980069630000696f00006e650000004200005c
:1043a8006f72000072610000722000004d6500000d
:1043b800642000004e200000253000003264000018
:1043c8002000000072610000646900006f20000096
:1043d800656e0000206300006d3a00002025000093
:1043e8003032000064200000002d00002d2e000057
:1043f8002d2d000000250000346400002025000059
:1044080073200000257300000025000034640000bc
:1044180020250000352e000032660000202500000f
:1044280073000000253400006420000025350000da
:104438002e32000066200000253500002e320000d4
:04444800660000000a
:020000040000fa
:10444c000000fa000080fa00000006000400fa00e8
:10445c000000000000000000f4cfbf000080fb0053
:10446c006101b900028fbe00d000200001002000c5
:10447c001e01be00800f5100818f59006b003e0061
:10448c001e00be00006001000d0037000f00370059
:10449c0011003700130037001500370017003700e4
:1044ac0032003700380037004b0037004d00370022
:1044bc004f003700510037005300370057003700ca
:1044cc0030c0b300f4efb7005800370060c0b30041
:1044dc00f4efb7005500370070c0b300f4efb7002d
:1044ec005200370040c0b300f4efb7004f00370064
:1044fc0050c0b300f4efb7004c003700e6cfbf005c
:10450c000040e800e6efb700e7cfbf000080fb00fb
:10451c0080004000608720008080400011407800bf
:10452c000000a00080487800e7cfbf000081fb00ae
:10453c00e8cfbf008080fb00f0ff27008080600088
:10454c000201410060872000000141001200780048
:10455c00818040006100600001007000000978005b
:10456c000040eb00f4efb70030003700607f8000b4
:10457c00717f8000807f8800917f88000040eb0075
:10458c00f4efb70029003700e6cfbf000004e000cd
:10459c0003003a000040eb00f4efb70023003700b3
:1045ac00e6cfbf000040e900e6efb700e7cfbf0061
:1045bc000080fb008000400060872000808040006d
:1045cc00114078000000a1008048780080c0b30042
:1045dc00f4efb7001500370020c0b300f4efb700bc
:1045ec0012003700a0c0b300f4efb7000f00370083
:1045fc00c0c0b300f4efb7000c003700d0c0b3005c
:10460c00f4efb70009003700ebcfbf00e9efb700bc
:10461c000040eb00f4efb70004003700ebcfbf0015
:10462c00eaefb7000040eb00f4efb7000080fa00af
:10463c00000006000400fa00f4cfbf000080fb006d
:10464c006101b900d0ff2f00f1ff2f0002014000e3
:10465c0083814800028fbe00a000200001002000d2
:10466c001e01be00800f5100818f590027003e00b3
:10467c001e00be00006001000a0037000c0037006d
:10468c000e003700100037001200370014003700fe
:10469c001e003700150037001400370016003700d5
:1046ac00180037000040eb00f4efb700170037009c
:1046bc000040eb00f4efb700140037000040eb00b3
:1046cc00f4efb7001100370010c0b300f4efb700df
:1046dc000e00370020c0b300f4efb7000b0037001a
:1046ec0020c0b300f4efb7000800370090c0b3004f
:1046fc00f4efb70005003700a0c0b300f4efb7002b
:10470c0002003700b0c0b300f4efb7000080fa002d
:10471c00000006000200fa00f4cfbf000080fb008e
:10472c00000f78001e007800e70f50002c003200bc
:10473c009e007800e78f500004003c001e007800bb
:10474c00e40f5000060032004f0037009e00780046
:10475c006c805000e10f50004b003e0040003700d1
:10476c00e7cfbf000040e800e7efb70071fe200084
:10477c009140780020c3b30080cf50000e0036006b
:10478c0010c0b300e7efb7000b00370071fe20003c
:10479c009140780020c3b30080cf500003003a0052
:1047ac0010c0b300e7efb70003003700e7cfbf003e
:1047bc000040e800e7efb700e7cfbf000080fb0048
:1047cc00800040006087200000804000904078000e
:1047dc0061c06000e14f5000ecff32002a0037004e
:1047ec00e7cfbf000040e800e7efb70071fe200004
:1047fc009140780020c3b30080cf50000e003600eb
:10480c0010c0b300e7efb7000b00370071fe2000bb
:10481c009140780020c3b30080cf500003003a00d1
:10482c0010c0b300e7efb70003003700e7cfbf00bd
:10483c000040e800e7efb700e7cfbf000080fb00c7
:10484c00800040006087200000804000904078008d
:10485c0061c060000004e000ecff32000a00370089
:10486c00ebcfbf000040e800ebefb700b1fe20003b
:10487c009140780030c6b30080cf50000200360063
:10488c0010c0b300ebefb7000080fa000000060088
:10489c000200fa00f4cfbf000080fb00000f78008c
:1048ac001e007800e70f5000280032009e007800b0
:1048bc00e78f500004003c001e007800e40f50000d
:1048cc0006003200450037009e0078006c805000d6
:1048dc00e10f500041003e0038003700e7cfbf0029
:1048ec000040e900e7efb700e7cfbf000004e000ad
:1048fc000c003a0020c3b300e7efb7000900370003
:10490c00e7cfbf00e14f500003003a0020c3b300d3
:10491c00e7efb70003003700e7cfbf000040e90026
:10492c00e7efb700e7cfbf000080fb00800040003e
:10493c0060872000008040009040780061c06000db
:10494c00e14f5000eeff320024003700e7cfbf00ec
:10495c000040e900e7efb700e7cfbf000004e0003c
:10496c000c003a0020c3b300e7efb7000900370092
:10497c00e7cfbf00e14f500003003a0020c3b30063
:10498c00e7efb70003003700e7cfbf000040e900b6
:10499c00e7efb700e7cfbf000080fb0080004000ce
:1049ac0060872000008040009040780061c060006b
:1049bc000004e000eeff320008003700ebcfbf0030
:1049cc000040e900ebefb700ebcfbf000004e000c4
:1049dc0002003a0030c6b300ebefb7000080fa00db
:1049ec00000006000200fa00f4cfbf000080fb00bc
:1049fc00000f78001e007800e20f50001a00320001
:104a0c001e007800e20f500007003c001e007800ea
:104a1c000000e0000e0032001e007800e10f500094
:104a2c000e0032001b0037001e007800ea0f500009
:104a3c00130032001e007800eb0f50001300320000
:104a4c001e007800e90f50000a00320011003700f8
:104a5c0010c0b300f4efb7000e00370020c0b30055
:104a6c00f4efb7000b00370090c0b300f4efb700c1
:104a7c00080037000040eb00f4efb70005003700ea
:104a8c00b0c0b300f4efb70002003700a0c0b30011
:104a9c00f4efb7000080fa00000006000200fa00f4
:104aac00f4cfbf000080fb00000f78001e007800e0
:104abc00e20f50001a0032001e007800e20f500086
:104acc0007003c001e0078000000e0000e003200e1
:104adc001e007800e10f50000e0032001b00370062
:104aec001e007800ea0f5000130032001e00780000
:104afc00eb0f5000130032001e007800e90f50003d
:104b0c000a0032001100370090c0b300f4efb70078
:104b1c000e0037000040eb00f4efb7000b0037003d
:104b2c0010c0b300f4efb7000800370020c0b3008a
:104b3c00f4efb70005003700b0c0b300f4efb700d6
:104b4c0002003700a0c0b300f4efb7000080fa00f9
:104b5c00000006000c00fa00889fbe008a9fbe0071
:104b6c0000000000f4cfbf000080fb00500798004d
:104b7c005e009000e80f500055003200de009000ff
:104b8c00e88f50000a003c005e029000e50f5200d6
:104b9c0033003200de029000e78f52003e003200fc
:104bac005e039000e40f53001600320066003700dd
:104bbc00de039000ea8f5300630035005e00900026
:104bcc00eb0f500050003400de009000ed8f5000d1
:104bdc005d003c005400370071fe200091407800cd
:104bec0020c3b30080cf500003003a0010c0b300c4
:104bfc00e7efb70003003700e7cfbf000040e80045
:104c0c00e7efb700e7cfbf000080fb00800040005b
:104c1c0060872000008040001042780061406200f4
:104c2c00e14f5000ecff3200e7cfbf000000fb006b
:104c3c0021862000801f7800a0192a00801f780090
:104c4c0001007800bbed0700e487570022862000a6
:104c5c008040eb000040eb00ce050700460037001b
:104c6c00e7cfbf000000fb0021862000801f7800ea
:104c7c00d01a2a00801f780001007800aded0700e3
:104c8c00e4875700228620008040eb000040eb00b8
:104c9c00c005070038003700e6cfbf000000fb005e
:104cac0021862000801f7800001c2a00801f7800bd
:104cbc00010078009fed0700e48757002286200052
:104ccc008040eb000040eb00b20507002a003700e3
:104cdc00e7cfbf000000fb0021862000801f78007a
:104cec00d01a2a00801f78000100780091ed07008f
:104cfc00e4875700228620008040eb000040eb0048
:104d0c00a40507001c00370060152a00a04388008a
:104d1c00a0438000000178008040eb000040eb00d5
:104d2c009c0507001400370070162a00a043880069
:104d3c00a0438000000178008040eb000040eb00b5
:104d4c00940507000c003700f4cfbf000080fb0077
:104d5c007100b90080007800c00a2a000080400071
:104d6c00a0438800a0438000000178008040eb0045
:104d7c000040eb0087050700f4cfbf000080fb006c
:104d8c0040079800ce029000e98f52004c00320090
:104d9c004e039000e90f53000f003c00ce0390002f
:104dac00e68f5300ad0032004e009000e60f50002d
:104dbc0005003c00ce00900060804000e40f5000e5
:104dcc00c3003e003e0037004e029000e70f520039
:104ddc0016003200be003700ce029000eb8f52005e
:104dec00b30032004e039000eb0f5300a8003500c7
:104dfc00ce039000ed8f5300b5003c00220037002d
:104e0c0071fe20009140780020c3b30080cf500089
:104e1c0003003a0010c0b300e7efb70003003700ff
:104e2c00e7cfbf000040e800e7efb700e7cfbf00d7
:104e3c000080fb0080004000608720000080400064
:104e4c009040780061c060000004e000ecff32008c
:104e5c00e7cfbf000000fb0021862000801f7800f8
:104e6c00301d2a00801f78000100780031ed07000a
:104e7c00e48757002286200011c0b3000040eb00ed
:104e8c00440507009e003700ebcfbf000000fb007d
:104e9c0021862000801f7800601e2a00801f780069
:104eac000100780023ed0700e487570022862000dc
:104ebc0011c0b3000040eb0036050700900037002e
:104ecc00607f8000717f80006011b8004ff6070092
:104edc000000e00001003500030037006000b8005e
:104eec00607f8800717f8800e4cfbf006140600064
:104efc000004e00014003200607f8000717f8000ad
:104f0c0044f607008000780022862000901f2a00bb
:104f1c00801f7800901f2a00801f7800811f780066
:104f2c00f01f2a00801f78000200780001ed0700b6
:104f3c00e88757002286200011c0b3000040eb0028
:104f4c00140507006e00370050c8bf000004e000d5
:104f5c003e003a00e4cfbf00624060000004e00075
:104f6c001900320040518000515180004af6070070
:104f7c000004be000205be00607f8000717f8000cf
:104f8c0024f607008000780022862000901f2a005b
:104f9c00801f7800889fbe008a9fbe00811f78000a
:104fac0090202a00801f780002007800e1ec0700b6
:104fbc00ee8757002286200011c0b3000040eb00a2
:104fcc00f40407001e00370060518000715180000e
:104fdc0031f60700009fbe000297be0040518000d2
:104fec00515180002cf607000004be000205be00e3
:104ffc00607f8000717f800006f60700218620000c
:10500c003e02be002e03be00849fbe00869fbe00e3
:10501c00889fbe008a9fbe00801f780060212a00f6
:10502c00801f780001007800c2ec0700f48757005d
:10503c002286200011c0b3000040eb00d50407000d
:10504c0030c0b30050e8b7002d00370050c8bf0087
:10505c000040e90050e8b70029003700f4cfbf004a
:10506c000080fb007100b90080007800d00b2a0092
:10507c0000804000a0438800a0438000000178001d
:10508c0011c0b3000040eb00c20407001c00370045
:10509c00000f2a00a0438800a04380000001780084
:1050ac0011c0b3000040eb00ba0407001400370035
:1050bc0080172a00a0438800a043800000017800dc
:1050cc0011c0b3000040eb00b20407000c00370025
:1050dc00f4cfbf000080fb007100b90080007800a5
:1050ec00c00a2a0000804000a0438800a043800032
:1050fc000001780011c0b3000040eb00a5040700cc
:10510c004f05be004f04be000080fa0000000600f0
:10511c000200fa00000f78000080fa000000060080
:10512c000800fa006000b800f042880001438800d3
:10513c00a04280000000e00003003a0000032000c1
:10514c00b042880003003700a0428000700050007d
:10515c00b04288000040eb0051e8b700190037005e
:10516c00b042800080004000a08d200000804000f4
:10517c00100078006101b900f0428000014380000a
:10518c000200400083804800f04288000143880000
:10519c00b1428000f0032000808f500003003600e5
:1051ac000000eb00b042880003003700b0428000e2
:1051bc000000e800b042880051c8bf000040e80081
:1051cc0051e8b70051c8bf00ef4f5000e4ff360064
:1051dc00f0428000014380002007980031079800be
:1051ec002e029000be029000e00f5200e08f5a0099
:1051fc00050035002e009000be009000c5f507009c
:10520c00008fbe00120037002e009000610160007c
:10521c006000b80003002000020070008380700062
:10522c002e029000be0290008501d1000481d300b3
:10523c000200700083807000b6f50700008fbe007e
:10524c001e01be001e00be00def50700008fbe0072
:10525c0002002000031824001e00be0036f60700d2
:10526c00607f8800717f8800607f8000717f800084
:10527c0052fe2f00f3a9230071f607000200200054
:10528c00c32524006ef60700607f8800717f8800bc
:10529c00607f8000717f8000827f8000937f800020
:1052ac00c7f50700607f8800717f88000080fa00d6
:1052bc00000006000000fa0000000000a000200022
:1052cc00d0108800000000000080fa0000000600ea
:1052dc000000fa0000d1200016fb070000d12000ce
:1052ec00a28d2000a19520008001780000042000f0
:1052fc0017fb07000080fa00000006000000fa000f
:10530c000040eb00f6efb7000040eb00fcefb700fd
:10531c0040c6b300fbefb70030c0b30050e8b70095
:10532c00e40fa900e42fa900e46fa900e44fa90041
:10533c000040eb00c4efb7000040eb00c5efb70036
:10534c000040eb0060eab7000040eb005feab700fa
:10535c00e4afa900e48fa9000000eb00a042880094
:10536c00c80fa900d00fa900d40fa900cc0fa90019
:10537c00d80fa900dc0fa900e00fa900d42fa800ba
:10538c00d02fa800c82fa800cc2fa800d82fa80079
:10539c00dc2fa800e02fa800c0142000d07e8800cd
:1053ac0040012000f07e8800c0032000107f8800a0
:1053bc00d105200090f92f001cfb0700f10f2000f5
:1053cc00d0f927001dfb070051c32000d0f92f0096
:1053dc001ffb070081932300d0fb2f0020fb07004d
:1053ec0081932300d0fb2f0022fb0700112a200001
:1053fc0091407800c0cfb30000c06000a1e2b700bc
:10540c00a0c2bf007f40600001c4b3000140700027
:10541c00a0e2b700a042a800a3c2bf007f4060007a
:10542c00a3e2b700212a200091407800c0c3b3004a
:10543c0000c07000a2e2b700a222a900412a2000fd
:10544c0091407800f0c3b30000c07000a4e2b70034
:10545c00a5c2bf00f041b300a5e2b70010002000c8
:10546c00301588000000eb00501588000080eb0020
:10547c0040158800a802a900a822a900a1e2a80052
:10548c000080200000168800700020003016880074
:10549c00002020009016880040202000f016880084
:1054ac00c7020700f7fa070010f12f00fbfa0700fc
:1054bc0002042000d1752f0000f22d001ffb070005
:1054cc0081e0a90083e0a90010002100a00488005d
:1054dc0000202100b004880000002300c0048800d4
:1054ec0010002000e004880000112100f004880066
:1054fc000000eb00200488000000eb003004880062
:10550c000000eb00400488009088280060048800ac
:10551c00000e2000700488000000eb00800488005e
:10552c0000003700a07e8000620060000000e000f8
:10553c0007003200a07e8000610060000000e000e7
:10554c0003003200c3030700d40fa900f5ff370096
:10555c00407e8000620060000000e0000700320026
:10556c00407e8000610060000000e000030032001b
:10557c0057ff0700c80fa900eaff3700807e8000a4
:10558c00620060000000e00007003200807e8000b6
:10559c00610060000000e00003003200e0fe070044
:1055ac00d00fa900dfff3700607e80006200600032
:1055bc000000e00007003200607e800061006000a7
:1055cc000000e000030032003aff0700cc0fa900f6
:1055dc00d4ff3700c07e8000620060000000e00055
:1055ec0007003200c07e8000610060000000e00017
:1055fc000300320057fd0700d80fa900c9ff370080
:10560c00e07e8000620060000000e00007003200d5
:10561c00e07e8000610060000000e00003003200ca
:10562c007d040700dc0fa900beff3700007f80005f
:10563c00620060000000e000baff3200007f8000d2
:10564c00610060000000e000b6ff3200da040700e1
:10565c00e00fa900b3ff37003400f800881f780072
:10566c0008002000a80188004f0478000000fa0010
:10567c000000000000000000000000000080fa00a4
:10568c003400f90000400600801f78003400f80058
:10569c0000002000a00188000000fa008460a9002e
:1056ac00d07e80000000e900d07e8800d07e800093
:1056bc000000e00003003a00d80fa800c01420003e
:1056cc00d07e8800f07e80000000e900f07e88002b
:1056dc00f07e80000000e00003003a00dc0fa80020
:1056ec0040012000f07e8800107f80000000e9005f
:1056fc00107f8800107f80000000e00003003a005b
:10570c00e00fa800c0032000107f8800307e8000ce
:10571c000000e900307e88000080fa003400f900b7
:10572c004f00780000400600809fbe00829fbe00a4
:10573c003400f80000002000a00188000000fa00ee
:10574c008560a90000282000e04288000040eb00a2
:10575c0052e8b70013003700a342800052c8bf00c4
:10576c000080fb000000400080007800e0428000d8
:10577c000080400010007800000178008380410018
:10578c00a08d20000080400002087800a04280001c
:10579c000000e800a042880052c8bf000040e800aa
:1057ac0052e8b70052c8bf00ef4f5000eaff360076
:1057bc00a1428000f0032000808f500002003600d0
:1057cc000000eb00a0428800c80fa800d00fa80072
:1057dc00cc0fa8000080fa003400f9004f01be0085
:1057ec004f00be0000400600809fbe00821f780064
:1057fc003400f80000002000a00188000000fa002e
:10580c00207f8000640060000000e00001003a008e
:10581c00e42fa900207f8000640060000000e000fd
:10582c0005003200e48fa900e44fa9000000eb0052
:10583c00a008880003003700c4cfbf000040e80078
:10584c00c4efb700207f8000700060000000e00013
:10585c0003003a00c4cfbf000040e8005feab70085
:10586c00c4cfbf00f04f500005003a000040eb00e1
:10587c00c4efb70000c1b3005feab700e48fa80023
:10588c00c4cfbf008080fb00a0088000000178001e
:10589c008180400000a020000080400002087800b9
:1058ac00d40fa8000000eb00a00888008400a90019
:1058bc000080fa003400f9004f0178004f00be0060
:1058cc0000400600809fbe00821f78003400f80064
:1058dc0000002000a00188000000fa00207f80005a
:1058ec00680060000000e00001003a00e40fa9002d
:1058fc00207f8000680060000000e000050032009e
:10590c00e4afa900e46fa9000000eb00c008880018
:10591c0003003700c5cfbf000040e800c5efb7005b
:10592c00207f800001022000010060000000e000e8
:10593c0003003a00c5cfbf000040e80060eab700a2
:10594c00c5cfbf00f04f500005003a000040eb00ff
:10595c00c5efb70000c1b30060eab700e4afa80020
:10596c00c5cfbf008080fb00c0088000000178001c
:10597c0081804000009e20000080400002087800da
:10598c00d40fa8000000eb00c008880086e0a90036
:10599c000080fa003400f9004f0178004f00be007f
:1059ac00004006003400f800881f78000800200032
:1059bc00a80188004f0478000000fa0084e0a900d8
:1059cc000080fa003400f90000400600801f7800c7
:1059dc003400f80000002000a00188000000fa004c
:1059ec0086a0a9000040eb00c4efb700e48fa9002b
:1059fc00e44fa800e42fa8000000eb00a0088800ea
:105a0c000080fa003400f9004f00780000400600d6
:105a1c00801f78003400f80000002000a0018800ee
:105a2c000000fa0086c0a9000040eb00c5efb700eb
:105a3c00e4afa900e46fa800e40fa8000000eb009d
:105a4c00c00888000080fa003400f9004f0078008c
:045a5c000040060000
:020000040000fa
:105a6000c00f00002600000000000000380a0000ff
:105a70002200000002000000202020002020200042
:105a800020202000202020002020200020002000b6
:105a90002020200020202000202020002020200086
:105aa00020202000000000005a0a0000040000002e
