:020000040000fa
:080000000001040000000000f3
:020000040000fa
:100200002f8d200000ff200000018800000000006a
:100210000c000700607a2000010020001100070098
:10022000000020000000e000020032000000020098
:1002300000000000ec030200000000000040da00b3
:100240000000fe004440a900000020000000e00083
:100250000300320000002000a00188004440a800f4
:100260000000060091018800800078000000eb008b
:1002700015003700e280400032a0b4009101ba00be
:10028000e280400032a0b4009102ba00e280400057
:1002900032a0b4000002eb00472bde00f507b200ed
:1002a000602ce10004003a000059eb008301e900f2
:1002b000fdff3e00040037006128e100010032002c
:1002c0000082eb00040007001101ba000200e00008
:1002d000e8ff3a00000006003159ba008301e90046
:1002e0000c0032002159ba008301e90008003200f5
:1002f0000400e00003003a00e280400032a0b400b5
:10030000f5ff370011d9ba008301e900faff3a007e
:100310008100e800e180400032a0b4000000060047
:100320000021ef0011088800200888000000060066
:100330000621ef0061088800800888001061a9008c
:10034000000006000a21ef0071088800900888006c
:0403500000000600a3
:020000040000fa
:10000800fa040000fa040000fa040000fa040000f0
:10001800fa040000fa040000fa040000fa040000e0
:10002800fa040000fa040000fa04000000050000c9
:10003800fa040000fa040000fa040000fa040000c0
:10004800fa040000fa040000fa0400005005000059
:10005800fa040000fa040000fa040000fa040000a0
:10006800fa040000fa040000fa040000fa04000090
:10007800fa040000fa040000fa040000fa04000080
:10008800fa040000fa040000fa040000fa04000070
:10009800fa040000fa040000fa040000fa04000060
:1000a800fa040000fa040000fa040000fa04000050
:1000b800fa040000fa040000fa040000fa04000040
:1000c800fa040000fa040000fa040000fa04000030
:1000d800fa040000fa040000fa040000fa04000020
:1000e800fa040000fa040000fa040000fa04000010
:0800f800fa040000fa04000004
:020000040000fa
:10010800fa040000fa040000fa040000fa040000ef
:10011800fa040000fa040000fa040000fa040000df
:10012800fa040000fa040000fa04000000050000c8
:10013800fa040000fa040000fa040000fa040000bf
:10014800fa040000fa040000fa0400005005000058
:10015800fa040000fa040000fa040000fa0400009f
:10016800fa040000fa040000fa040000fa0400008f
:10017800fa040000fa040000fa040000fa0400007f
:10018800fa040000fa040000fa040000fa0400006f
:10019800fa040000fa040000fa040000fa0400005f
:1001a800fa040000fa040000fa040000fa0400004f
:1001b800fa040000fa040000fa040000fa0400003f
:1001c800fa040000fa040000fa040000fa0400002f
:1001d800fa040000fa040000fa040000fa0400001f
:1001e800fa040000fa040000fa040000fa0400000f
:0801f800fa040000fa04000003
:020000040000fa
:100354000000fa00007d2000e802070000c3b3009b
:1003640022000700401f2000e402070000c3b3007e
:100374001e000700401f2000e002070000c3b30076
:100384001a000700401f2000dc02070080c3b300ee
:100394000e00070040c1b3000c000700c0c0b3004a
:1003a4000a00070010c0b3000800070060c0b300d3
:1003b400060007000040eb00cce8b7000040eb006b
:1003c400cde8b7000080fa00000006000200fa0041
:1003d400004f78000c000700e082a9001e4078005e
:1003e400310007000080fa00000006000200fa0055
:1003f400004f7800e082a9001e4078002a00070020
:100404000080fa00000006000200fa000040eb0041
:10041400004f78001e003700e082a900d462a800d3
:10042400e0a2a8000000000000000000d4c2bf0049
:10043400644060000004e00002003a0010c0b30011
:10044400004f7800000000000000000000000000e1
:1004540000000000e0a2a90000000000000000006d
:100464000000000000000000000000000000000088
:10047400e0a2a8000000000000000000000000004e
:10048400000000000000000000000000e0a2a9003d
:100494001e04e000e0ff3200e0a2a900d462a9003b
:1004a4000080fa00000006000200fa00004f780005
:1004b400c702a900c722a900c742a900c762a900b0
:1004c400c782a900d202a900d222a900d242a9005f
:1004d400d462a9001e00fb00610060000004e0007b
:1004e40002003200c902a80001003700c902a900b5
:1004f4001e00fb000000d100610060000004e00069
:1005040002003200c922a80001003700c922a90054
:100514001e00fb004200de00610060000004e000f9
:1005240002003200c942a80001003700c942a900f4
:100534001e00fb004300de00610060000004e000d8
:1005440002003200c962a80001003700c962a90094
:100554001e00fb004400de00610060000004e000b7
:1005640002003200c982a80001003700c982a90034
:100574001e00fb004500de00610060000004e00096
:1005840002003200d402a80001003700d402a900fe
:100594001e00fb004600de00610060000004e00075
:1005a40002003200d422a80001003700d422a9009e
:1005b4001e04e00002003d00d442a8000100370000
:1005c400d442a900e0a2a80000000000000000003e
:1005d4000000000000000000000000000000000017
:1005e400e0a2a900000000000000000000000000dc
:1005f400000000000000000000000000c702a80086
:10060400c722a800c742a800c762a800c782a800e2
:10061400d202a800d222a800d242a8000080fa0088
:10062400000006000200fa00004f780076ff070081
:10063400e082a8001e4078009bff07000080fa00bb
:10064400000006000400fa00000f78002f003700b5
:100654001e00780010407800f2ff07001e0fe8002b
:10066400ccc8bf000040e800cce8b700ccc8bf004d
:10067400ef4f5000250036000040eb00cce8b700f7
:10068400cdc8bf000040e800cde8b700cdc8bf002a
:10069400e14f5000020036000040eb00cde8b70007
:1006a400cdc8bf000080fb00100798001e0090001a
:1006b4000000e000040032001e009000e10f500032
:1006c40004003200050037000040eb00cee8b7001c
:1006d4000200370000c4b300cee8b700e18c20006c
:1006e40091407800ccc8bf0000c04000cee8b700fd
:1006f400cec8bf008040780000c8b30000c04000ee
:10070400cee8b700cec8bf0030ff07001e00780057
:10071400104078000004e000cdff3a000080fa00a9
:10072400000006000800fa002047980031479800ae
:10073400220798000040eb00004f78002e40900004
:10074400cce8b7003e409000cde8b700cdc8bf006c
:100754000080fb00300798003e0090000000e0009d
:10076400040032003e009000e10f5000040032000b
:10077400050037000040eb00004f7800020037000e
:1007840000c4b300004f7800ccc8bf001e4f400027
:100794009e40780000c8b30000c04000004f7800bd
:1007a4001e40780009ff07002e009000a5ff0700f7
:1007b4000080fa00000006000000fa00628a2000af
:1007c4008040eb000040eb00d6ff07000080fa00f9
:1007d400000006000000fa000040eb00c4e8b70087
:1007e4000040eb00cae8b70040c6b300c9e8b70050
:1007f400be08a900c008a900c208a900be28a80014
:10080400c028a800c228a80000c0eb00bfe8b700b9
:1008140040c1b300c1e8b700c0c3b300c3e8b70028
:10082400d105200090f92f00bcfe0700f10f200035
:10083400d0f92f00bdfe070011272000d0f92700b2
:10084400bffe0700a1c2bf003040b300a1e2b70061
:10085400a0c2bf007f40600001c4b300014070002b
:10086400a0e2b700a042a800a3c2bf007f4060007e
:10087400a3e2b700212a200091407800c0c3b3004e
:1008840000c07000a2e2b700a222a900412a200001
:1008940091407800f0c3b30000c07000a4e2b70038
:1008a400a5c2bf00f041b300a5e2b70010002000cc
:1008b400301588000000eb00501588000080eb0024
:1008c40040158800a802a900a822a900a1e2a80056
:1008d4003000200030168800002020009016880088
:1008e40050202000f016880099fe070081e0a9003e
:1008f40083e0a90010002100a0048800002021004a
:10090400b004880000002300c00488001000200008
:10091400e004880000112100f00488000000eb00ce
:10092400200488000000eb00300488000000eb0085
:10093400400488009080280060048800000820009b
:10094400700488000000eb008004880030882000d8
:100954008046880080468000000178008040eb00db
:100964000040eb006fff070000003700f0458000f7
:10097400620060000000e00007003200f0458000e3
:10098400610060000000e000030032001e01070067
:10099400be08a900f5ff3700004680006200600031
:1009a4000000e000070032000046800061006000a3
:1009b4000000e0000300320042000700c008a90064
:1009c400eaff370010468000620060000000e0008b
:1009d400e6ff320010468000610060000000e00085
:1009e400e2ff32009f000700c208a900dfff3700c2
:1009f4000000fa000080fa0000400600801f780022
:100a04003400f80000002000a00188000000fa0073
:100a14008460a900bfc8bf000040e900bfe8b70078
:100a2400bfc8bf000004e00003003a00be08a800ed
:100a340000c0eb00bfe8b700c1c8bf000040e90038
:100a4400c1e8b700c1c8bf000004e00003003a00d9
:100a5400c008a80040c1b300c1e8b700c3c8bf00c4
:100a64000040e900c3e8b700c3c8bf000004e000c9
:100a740003003a00c208a800c0c3b300c3e8b7002b
:100a8400e04580000000e900e04588000080fa00ad
:100a94003400f9004f007800004006003400f800ec
:100aa400881f780008002000a80188004f047800ff
:100ab4000000fa008560a9000080fa003400f90003
:100ac400004006000400fa0040168000000f780081
:100ad400301680001007980000802100301688002e
:100ae4000000eb0040168800e5000700c902a900d9
:100af400c922a900c942a900c4c8bf000040e80037
:100b0400c5e8b700c5c8bf000040e900c5e8b700a4
:100b1400c5c8bf000004e00001003a00c902a800f3
:100b2400c5c8bf000040e900c5e8b700c5c8bf009c
:100b34000004e00001003a00c922a800c5c8bf00b3
:100b44000040e900c5e8b700c5c8bf000004e000e4
:100b540001003a00c942a800c5c8bf0000c0e800af
:100b6400c5e8b70040c6b300c6e8b700c9c2bf00b5
:100b7400684060000004e000020032000040eb0026
:100b8400c6e8b700c9c2bf00704060000004e000be
:100b94000200320030c0b300c6e8b700618c200008
:100ba4009140780040c6b30080cf50001f0032004f
:100bb400518c200091407800c6c8bf0000c040009e
:100bc400c8e8b700818c200091407800c9c8bf00f4
:100bd40080cf500012003a00c7c8bf000040e800b0
:100be400c7e8b700c7c8bf00f44f50001b003a0065
:100bf4000040eb00c7e8b700b18c200091407800ba
:100c040040c6b30080cf500014003a00c9c8bf00ea
:100c1400cae8b700c9c8bf00cbe8b7000f00370067
:100c2400c8c8bf00c9e8b7000c00370040c6b3000d
:100c3400cae8b70040c6b300cbe8b700c4c8bf00d9
:100c44000040e800c4e8b700c4c8bf00e34f500048
:100c540002003a000040eb00c4e8b7000080fa004c
:100c6400000006000200fa00cac8bf000080fb00b2
:100c7400000f78001e007800e20f500014003200cc
:100c84001e007800e20f500007003c001e007800b0
:100c94000000e000140032001e007800e10f500054
:100ca4000f003200150037001e007800e40f5000da
:100cb4000f0032001e007800e40f500006003500db
:100cc4001e007800e50f50000b0032000b003700c7
:100cd400110007000900370015000700070037005e
:100ce400160007000500370017000700030037004f
:100cf4002d000700010037000a00070040c6b300ba
:100d0400cae8b7000080fa00000006000000fa00fc
:100d14000080fa00000006000000fa000080fa00db
:100d2400000006000000fa000080fa00000006003f
:100d34000000fa000080fa00000006000000fa003b
:100d44000080fa00000006000200fa00a5c8bf00f7
:100d54000000fb00000f78001e007800e10f500037
:100d64000a0032001e007800e20f50000a00320030
:100d74001e0078000000e000010032000800370087
:100d840010c0b300a5e8b7000500370020c0b300c9
:100d9400a5e8b700020037000040eb00a5e8b70063
:100da4000080fa00000006000200fa00a5c8bf0097
:100db4000000fb00000f78001e007800e10f5000d7
:100dc4000a0032001e007800e20f50000a003200d0
:100dd4001e0078000000e000010032000800370027
:100de40020c0b300a5e8b700050037000040eb00c1
:100df400a5e8b7000200370010c0b300a5e8b700ab
:100e04000080fa00000006000000fa006afe0700f5
:100e1400a5c8bf000000fb007100b9008000780085
:100e240000852000008040008046880082468000c3
:100e34008000eb000000eb003afe0700a5c8bf00ed
:100e44000000fb007100b9008000780000852000dc
:100e54000080400080468800824680008000eb00cd
:100e64000000eb002ffe07000080fa0000000600df
:100e74000000fa00000000000080fa0000000600f4
:100e84000000fa0000000000000000000000000064
:100e9400000000000000000000000000000000004e
:100ea400000000000000000000000000000000003e
:100eb400000000000000000000000000000000002e
:100ec40000000000000000000080fa00000006009e
:100ed4000200fa000040eb00004f780002003700e7
:100ee400000000001e4fe80060c2b3009e4f1000d7
:100ef400fbff34000080fa00000006000400fa0042
:100f0400100798000b0037000000eb00000f78007a
:100f140002003700000000001e0fe800400220001d
:100f24009e0f1000fbff34001e0090000000e9003b
:100f3400100798001e0090000000e000f2ff3a0045
:080f44000080fa000000060025
:020000040000fa
:100f4c00c40800000800000000000000a608000013
:100f5c0012000000020000002020200020202000b1
:100f6c002020200020202000202020002000000035
:100f7c00cc0800000400000000000000b8080000cd
:100f8c000c0000000000000050080000560000009b
:100f9c0002000000546f6d00617220004d6564000a
:100fac00696369006f6e200020005400617261005b
:100fbc007220200020202000202020002020200053
:100fcc0000436f006e6669006775720061636900ab
:100fdc006f6e2000202000005461720061723f008f
:100fec002020200020202000202020002000430072
:100ffc00414e4300454c410052202000202020004f
:10100c00204f4b0000010000d0080000020000003f
:08101c000000000000000000cc
:00000001FF
