:020000040000fa
:080000000002040000000000f2
:020000040000fa
:100400006f7322000e7f24000e01880000000000a0
:100410000c000700a05f2000110020001100070061
:10042000000020000000e000020032000000020096
:1004300000000000e6f10200000000000040da00c9
:100440000000fe004440a900209520000000e000cc
:100450000300320000002000a00188004440a800f2
:100460000000060091018800800078000000eb0089
:1004700015003700e280400032a0b4009101ba00bc
:10048000e280400032a0b4009102ba00e280400055
:1004900032a0b4000002eb00472bde00f507b200eb
:1004a000602ce10004003a000059eb008301e900f0
:1004b000fdff3e00040037006128e100010032002a
:1004c0000082eb00040007001101ba000200e00006
:1004d000e8ff3a00000006003159ba008301e90044
:1004e0000c0032002159ba008301e90008003200f3
:1004f0000400e00003003a00e280400032a0b400b3
:10050000f5ff370011d9ba008301e900faff3a007c
:100510008100e800e180400032a0b4000000060045
:100520007877040000000000a477040000000000b9
:1005300042f2040000000000e4f2040000000000a9
:10054000d6f304000000000006f3040000000000e1
:100550006af20400000000000040da000000fe0023
:100560008000780043c2bf000028a30001003a00c9
:10057000f10fb200411288000000060003f0a20053
:10058000889fbe008a9fbe008c1f78005201070022
:10059000590133006450e1004f0032006420e10053
:1005a0005200320003826c0007003b000905d000b6
:1005b0000306d000820f54000c065d0002003900d3
:1005c0000200320089017800030678008582550018
:1005d00004003d000003fd008103fd008502ea00e8
:1005e0008b854200840f720002003b006000100007
:1005f000e08018006011b8000005eb007a28e100e7
:100600000a00390006007800c75ddd00f707b20078
:10061000878075002d003700828171000a01780003
:10062000610560008180d1000080d3008502e9006f
:10063000f9ff3b00060440008784480002003b00ad
:1006400060041400e0841c000988a3000700320045
:100650008a81710082817100610164008904d10086
:100660000884d3008b05e800170037000978a30041
:1006700013003a000b00e000130034008b05e90082
:100680000804440089844c000a4474000978a300db
:100690000d003a000b00e000070034008b05e90074
:1006a0000804440089844c0001003a000b0020003b
:1006b0000978a300f7ff32000001eb0002003700c9
:1006c000828171000a017800c80007000cf0a700c1
:1006d00001f0a000110137006420e10002003a009f
:1006e000838f6c00110133000801be000200be00c0
:1006f0000a013700889fbe008a9fbe008c1f7800c9
:10070000f5000700fc00330003866c006450e10034
:100710002e0032006420e100330032006150e1001d
:100720002f0032006120e100310032008585550044
:10073000eb07b00009002000080420000500370086
:100740000804440089844c000a0031000603430079
:1007500087834b000001530081815b00f8ff330069
:100760000203be000800a0000804440089844c0075
:10077000f6ff3900c639dd00830173000100320045
:10078000130020008904d1000884d3000998a30035
:10079000050032000800a7000300a0008904d10072
:1007a0000884d3008b05e8008904d1000884d300b5
:1007b0000001eb000281d2008c00070001f0a100d3
:1007c0000cf0a70001f0a000d40037006420e10085
:1007d000d60032000801be000200be00f7ff37005d
:1007e0006120e100d10032006000b800f3ff370063
:1007f0000000200001f82700f0ff3700839f680009
:100800000100e00002003d0060001000e0801800e0
:100810000300e00002003d0060011100e0811900ca
:10082000f90007004f00e00002003b0060001000ec
:10083000e0801800000006001400200002013700cc
:10084000f4ff2f00000137000001be008d000700fb
:100850000470a70003f0a1006509b1001600320082
:100860000d0035006828e10006003500f0ff2f007c
:10087000f1ff27000300e00013003b000100280007
:100880000000050000004000818048008502e9006a
:10089000fcff3a0008003700f88f420002003c00dd
:1008a0008000eb00000005008100d1000080d30033
:1008b0008502e800fcff3a000300e00002003b0074
:1008c00060001000e0801800000006000001be007b
:1008d0006c0007000470a70003f0a10003f8a30058
:1008e00013003a006509b10010003200090035001c
:1008f0006928e10002003500010028000000050021
:1009000000004000818048008502e900fcff3a00b9
:1009100000000600f88f4200050035008100d1007c
:100920000080d3008502e800fcff3a0000000600ca
:100930008000eb0000000500889fbe008a9fbe007b
:10094000010578000100e0000400350008003c00cb
:100950000000e000200032000500370060001000b9
:10096000e080180002003b0001f02c001a00370064
:100970000004be006011b8006b0920000982cf009e
:10098000020039000882cf000441b00069425200e1
:100990000e00320008003b0082817100610164009a
:1009a0008904d1000884d3008b05e8000442e800e4
:1009b000f9ff3a00050037000804440089844c0020
:1009c0008b05e9000442e900fbff3a00070007003d
:1009d0000af0a70001f0a0004f05be004f04be00c2
:1009e000000006000400200097003700810020006e
:1009f000618055000b003d000b00200061fe2f00c0
:100a00000100e1001d003400828171006101640079
:100a10008904d1000884d3000000e800faff3a00fe
:100a2000710020006100640003007000020060009b
:100a30000900320061044400e0844c000988a500ec
:100a4000050032008b05e8006808e10002003a006a
:100a50008904d1000884d300f20f20000258e1007d
:100a600005003d00c75ddd00f907b2008980750013
:100a700008007800000006000bf827008b007800c3
:100a800000000500c70ade00f107b200f50fb20052
:100a900008003200e1cf4200020032000170a000e5
:100aa00024000500810f70000100320004080500d9
:100ab00044000500810f700002003a001400050098
:100ac0008502e9000000400081c04800fcff3b00b7
:100ad0000170a000240005000004be00e9ff07002b
:100ae0000003be000405be000200be00e5ff0700d3
:100af000844f7500000006000200be006450e10053
:100b0000050036006420e100020036000968a300f9
:100b100001003a000800be000160a0004f06780006
:100b20004f05be004f04be0000000600f0ff2f007e
:100b3000f1ff2700f9ff3700889fbe008a9fbe00a3
:100b40008c1f7800e4ff0700ebff330003866c0086
:100b50006450e100240032006420e10027003200ec
:100b60006150e100220032006120e10021003200ea
:100b70008b854200eb07b1000134b800003ab800a1
:100b80000804420089844a00013ab8000030b800e5
:100b90008880400009014a00040033000000400042
:100ba00081804800020149008b05e900c909dd0088
:100bb000830170000100320013002000c814de0021
:100bc0004814dd004709de001200b200c808de004c
:100bd0000884700085ff070001f0a1000cf0a70059
:100be00001f0a000cdff37006120e100cfff32000f
:100bf0000801be000200be00f7ff37006150e100af
:100c0000fcff3a00c9ff37006022b800060220004e
:100c10000000d0008180d2000482d2008582d20000
:100c20000000a0000202520083825a00030031003b
:100c30000202420083824a000000a1000603e9008c
:100c4000f3ff3a0000000600889fbe008a9fbe00a6
:100c5000841f7800a0ff07004f00780011003300c8
:100c6000f0ff2f00838f6c0006003b000405650039
:100c70000a00a7000800370009f0a60010002000b5
:100c800008003700820f5400838f5c000300390096
:100c90001000200001003e000000200009f0a70025
:100ca0000000ea004f05be004f04be000000e00057
:100cb00000000600800078001104b1000300350038
:100cc0009101b10001003c000050a00000000600ae
:100cd000800078001106b100030035009101b100d9
:100ce00001003c000050a100000006008001eb0064
:100cf00002003700817178008301e800828f510083
:100d0000fcff3a0000000600800078003004e0009c
:100d1000feff3a00010050000000e900000006005c
:100d20000003780080027800020278008001eb0066
:100d3000080037000402e90063c07800805a780098
:100d40008301e8000004e00002003a008000eb00ac
:100d500006003700828f5100f6ff3a00fbff370094
:100d60000040eb0080f07a008100e800848f5000a2
:100d7000fbff3a0006007800000006000c00fa00b5
:100d8000889fbe0000047800cfb09700f0ff2700d6
:100d9000d0bf9f008004eb0099bf9f0088bf9f00d9
:100da000a8bf9f00200c2000b0bf9f007881570093
:100db00070805700080007000fb8970009487800b6
:100dc0000fb8970008045000080078004f04be00d8
:100dd0000080fa0000000600fe874700889fbe00e2
:100de0008a9fbe008c9fbe008e1f7800f0b79f00c8
:100df0000107780082bf9f000000eb00a0b79f00b2
:100e00009f0237008006eb0050c2b30080cf500035
:100e1000090032000100fb00ffb09700a3020700a9
:100e2000e10f400096023200afb097008100e80069
:100e3000a1b79f00920237009e407800d0c2b30055
:100e400080cf50000c00320007003c006d40500085
:100e500080cf50000a0032006b40400080cf50002d
:100e60000e003a000800370000c3b30080cf5000e6
:100e70000a003a00060037000d30a00005003700d8
:100e80000d00a000030037000d10a0000100370086
:100e90000d20a0000e07e800e7ff37000d18a300a3
:100ea000010032000d00a1000d38a3000100320046
:100eb0000d20a1000100fb0002fd2f0002004000f8
:100ec000e90f50000e003e000002eb00c4b79f0087
:100ed00082017800cfb297006a28b9001e01fb009a
:100ee0000001410003014100c2b79f005e00fb000a
:100ef00003004000e90f50000b003e00f5ff3700f3
:100f00000006eb00ccb79f00a0c2b30080cf50001a
:100f100005003a000fb89700c000780080bf9f001e
:100f2000c1b79f000e07e8000001eb00b2b79f00b9
:100f3000e0c2b3009e4f100018003a000de0a00080
:100f40008e00e80064405000914f10000200320013
:100f5000010778000c0037000fba9700c402780030
:100f600084bf9f00b5b79f000e87e8000b003700d5
:100f70003fb697006a60b9000000410003004000de
:100f8000b0b79f000e07e8001e01fb0003fd2f0015
:100f900003004100e90f5000f5ff3600be40780025
:100fa000e1d79f00c0c6b30080cf500022003200be
:100fb0000f003c006940500080cf500077003200a5
:100fc00004003c000104e000310232006b4050009c
:100fd0000f00370040c6b30080cf500093003200ae
:100fe0006540400080cf50008b003a008f003700f2
:100ff00030c7b30080cf50001a00320007003c0019
:101000006440500080cf5000110032000040e800e2
:1010100080cf500080003a000f00370050c7b30067
:1010200080cf5000800032006340400080cf5000ed
:1010300079003a0009003700000028000d48a3009d
:1010400001003a000001200080867600d3ff3700bf
:101050000d60a000750037000d50a0000d70a000bd
:10106000720037008fb897004100780081bf9f0061
:10107000000478000000e00001003a00e866220069
:101080008004eb00010037008104e800890078004b
:10109000088044001004e000fbff3a003fb19700d5
:1010a0000200e00003003200890f5100010031000e
:1010b000820478000002eb00e4af9f00cfb29700fb
:1010c000898f52000200360009805200e0af9f0075
:1010d0004368de00e10660001b003a000d06780060
:1010e00009003700ffb0970000022000ef01070061
:1010f000e10f4000030032002fb097000000e8002d
:10110000a0b79f000c06e800efa89700810f5600db
:10111000f4ff3a000081eb00e2af9f000a003700c5
:10112000880078003100fb0001047800ffb09700d0
:10113000de010700e10f4000030032002fb29700ec
:101140000402e800a4b79f000900e90080047800c9
:10115000e10f4000f2ff3a000006eb000d00e00056
:101160000a003a00c6013700ffb0970000022000d5
:10117000ce010700e10f400003003200afb297003c
:101180008502e800a5b79f000c06e8006fa897004d
:10119000800f5600f4ff3a00b90137008fb897006e
:1011a0004100780081bf9f00cf80de000101780000
:1011b000820178000205be000004be000203be00ea
:1011c0000002be004822de00482edd000402760048
:1011d000e4d79f000d48a3000a0032000404e00099
:1011e00008003200e14f42000600320071fd2f007e
:1011f000018047000448780018409800290020002a
:1012000002003700f0d79f001900200072fd2f0068
:1012100002844700a1ff370064fd2f0004844700cb
:10122000190020009dff37000d0cb3000d00780061
:10123000000cb20028003a000d00e00005003d005f
:101240008fba97004505be004504be0085bf9f00cc
:10125000140037000d48a3000b0032000fbe9700aa
:101260004c00be008cbf9f004f89de00cf91de0096
:101270000002be0002037800820378000605be006b
:101280000404be00070037008fb8970041007800c3
:1012900081bf9f0000047800cfc4de0009057800fc
:1012a0008a057800e00f5400e08f5c00e00f5d00dd
:1012b000e08f5d001f003d003d00b3006000b800fe
:1012c0006011b80008045000898458000a055900cc
:1012d0008b855900170037000d00e00005003d0028
:1012e0000fb997004205be004204be0082bf9f00b6
:1012f000100037000d48a300070032000fba970016
:101300004400be0084bf9f006011b8000205be000b
:101310000004be00070037008fba97004500780030
:1013200085bf9f0000047800090020000a0020000b
:101330000b0020003fb697000c00e00007003a00c9
:10134000e00f5400e08f5c00e00f5d00e08f5d0077
:1013500002003a0010002000b0b79f008d00780016
:10136000010cb200e1b79f0000042000808f500004
:101370003000320003003c000100e00008003200b1
:1013800040003700000820006fb19700800f510027
:1013900014003200000c2000800f510039003a0088
:1013a00014c0b300654b22000b0037000400fb00a3
:1013b0004300dd00050040005001be004000be00bb
:1013c0000040e10001c8e10002d0e10003d8e100e3
:1013d0002b0039000442e800f44f5200f3ff3a00ba
:1013e0002700370000012000010020006011b80034
:1013f00014c0b3000040e10001c8e10002d0e100e8
:1014000003d8e1001e003900450020000000d00094
:101410008180d2000281d2008381d2008502e9005e
:10142000faff3a000442e800f04f5200f1ff3a00a0
:101430001300370080002000010020006011b80078
:1014400014c0b3000040e10001c8e10002d0e10097
:1014500003d8e1000a0039003c0020000000d00061
:101460008180d2000281d2008381d2000c06e90083
:10147000faff3a000442e800f54f5200f1ff3a004b
:10148000e4d79f00efd097000100fb003fb1970029
:10149000820f500002003d00e2d79f000400370099
:1014a0003fb29700800f520001003d00b0b79f008f
:1014b000cfb297000500e0000400320063806600b0
:1014c000020032008502e900c5b79f000de8a300c5
:1014d0000b0032004fb697003fb09700800f5600c8
:1014e00003003c008000eb00c1b79f000400370000
:1014f0004fb197003fb2970004015100c2b79f005f
:10150000efd297000500fb000006eb00dcaf9f0068
:10151000cfb09700808f5000020034000080500050
:10152000d0af9f000d28a30037003200e180660095
:101530000d18a3000c003200d00220000100e000d2
:1015400001003a000080e900ffb09700d7000700d3
:10155000e10f40000e0032002fb197000201e800b9
:10156000a2b79f000a0037000100e0000800320027
:10157000ffb0970000022000cc000700e10f400000
:10158000030032002fb297000402e800a4b79f00c6
:10159000dfaa97000500e0000f0032000006eb0014
:1015a000ffb0970000032000c0000700e10f4000db
:1015b000030032002fb097000000e800a0b79f00a2
:1015c0000c06e800dfa89700810f5600f4ff3a00f0
:1015d0000001eb00d2af9f003fb29700c320dd00b7
:1015e000e04a22008080400091b79f004220dd0049
:1015f0006400500080b79f006320b900f0af9f00e7
:101600006306500084003700dfaa97000500e00061
:1016100011003200688066000f003a000006780072
:10162000ffb0970000022000a0000700e10f40007b
:10163000030032002fb097000000e800a0b79f0021
:101640000c06e800dfa89700810f5600f4ff3a006f
:101650000001eb00d2af9f00e18066000d18a300ef
:101660000c003200d00220000100e00001003a002e
:101670000080e900ffb097008c000700e10f4000f8
:10168000d5ff32002fb297000402e800a4b79f00f4
:10169000d1ff37000100e000cfff3200ffb097001c
:1016a0000002200081000700e10f4000caff320065
:1016b000afb297008502e800a5b79f00c6ff3700cc
:1016c00000042000efb09700808f500031003200fe
:1016d00003003c000100e000080032003e0037003b
:1016e000000820006fb19700800f510011003200f8
:1016f000000c2000800f510037003a001fb0970007
:101700003002be002003be000800be000a01be0079
:10171000d1010700a4002000050020006033b800bc
:10172000d401070004c3b30004424000e4d79f0083
:101730002900370055672200d5b79f000d58a30038
:1017400002003a0060682200d0b79f001400200019
:10175000050020006033b8008fb097008100e900d9
:10176000050033000402d0008582d2000683d20037
:101770008783d200f9ff37000800be000a01be00cf
:10178000b50107006f0060005fb19700624078000c
:101790001000370014002000050020006033b8005e
:1017a0000c0078000000e900050033000402d000be
:1017b0008582d2000683d2008783d200f9ff3700ea
:1017c0000800be000a01be00a301070067406000d8
:1017d0000043b000e0d79f00efd097000100fb006e
:1017e000ffb0970031000700e10f40000300320016
:1017f0002fb197000201e800a2b79f001fb2970027
:101800006802520094b79f008fb29700e4825200a2
:1018100085b79f0063065600d0ff2f003fb19700a9
:101820000090b9007faa97000000420063005000ba
:10183000800f5600a2ff3a000d38a30010003200be
:10184000dfaa97000500e0000d0034000006eb0061
:10185000ffb097000002200014000700e10f4000d5
:10186000030032002fb097000000e800a0b79f00ef
:101870000c06e800dfa89700810f5600f4ff3a003d
:10188000be407800e1d79f000104e0005dfd3a0012
:101890002fb097004f0778004f06be004f05be00df
:1018a0004f04be00ef01b10000000600889fbe009b
:1018b0000001780001047800b10090000118a30035
:1018c000400032000198a30003003a001800900085
:1018d0000000e0003b003a000190a00031049800b5
:1018e00082047800f90fb200180090000000e000b8
:1018f00002003a0028009000000c7800ea8f5400a3
:1019000006003a00380090000078a30003003a0077
:1019100088007800d0002000e4ff07001802900043
:101920006121b90058009000e8009000800f51003c
:10193000818f59000b0032000400e8001004980069
:101940001800780009587800000c780011c0b30026
:101950004072220001487800ea8f540006003200ed
:101960001900370088007800094078001900070046
:101970008004780014003700380090000088a3002d
:101980001100320018019000a8009000480090005b
:101990005300070098009000810f500004003200af
:1019a000380090000003b300300498008084eb00fe
:1019b0000000eb001004980028009000000c780054
:1019c000010037008084eb00090078004f04be005e
:1019d000000006000200fa00889fbe00a0ff9f00e2
:1019e00001047800b1009000810478000904b2007d
:1019f000020032000000fb00360037000118a3008f
:101a000005003a000103b30031049800190498005e
:101a10000080eb002f003700580090000000e0002d
:101a200006003a004800900012002000e6805700af
:101a30002b000700190498002400370028009000ac
:101a40000000e00008003a00007222002004980024
:101a5000000c78002000200050049800100498002a
:101a60000130a0003104980018019000a8009000f7
:101a7000480090001a00070028009000000c780031
:101a80000080eb001004980018007800aff8970071
:101a900001587800000c78002ff89700ea4f5000aa
:101aa0000a003a00380090000088a30007003200c6
:101ab00018019000a800900048009000080007005e
:101ac00019049800a8009000010c7800aff8970066
:101ad0000100fb004f04be000080fa000000060079
:101ae0000a00fa0080017800e20f500028003e0052
:101af000a0398100e10f500008003200802320004f
:101b00000000e0000500320004232000252320000f
:101b100046232000800178000400370004222000c2
:101b2000252220004622200083222000144090001d
:101b30000004e000040035008009eb001440900030
:101b40000074a00010429800154090000028a300e7
:101b500003003a00154090000024a0009042980035
:101b60008001eb0007003700154090000008a3003b
:101b7000fdff320063c078000000fb00000b78001e
:101b80008301e800828f5100f7ff3a000800370018
:101b900030002000b0bf9f00c3bf9f00d1bf9f0097
:101ba000e2bf9f006a80570000c0da006fb997005b
:101bb000020078000080fa0000000600881f78000c
:101bc000000478005001be004000be000400400048
:101bd000858048000601490087814900009cbe00bd
:101be0000294be000400e1000588e1000690e100d7
:101bf0000798e10002003100680044001008e80086
:101c00004f04780000000600f4874700889fbe005c
:101c10008a9fbe008c9fbe008e1f78000205be000a
:101c20000004be00d4b79f00e5b79f00f6b79f0041
:101c300087bf9f000000eb00c0b79f00b0b79f00b8
:101c4000a0b79f0090b79f0080b79f000d042000b1
:101c5000bfb097004fb09700000140000000e000c7
:101c60000f003d004f08de0000007100c0b79f006c
:101c70004d00070001003d00120020005000070049
:101c800001003d0012002000550007006100070020
:101c9000660007000f004000c8ff07002200370061
:101ca0004f08de0000067100ccb79f003e00070021
:101cb00001003d00120020004100070001003d002e
:101cc0001200200046000700520007000fb29700e4
:101cd0009fb297002fb39700bfb39700590007003a
:101ce0000000520081805a0002015b0083815b008a
:101cf00080b79f0091b79f00a2b79f00b3b79f0026
:101d00000007eb004f0007000020e10001a8e10000
:101d100002b0e10003b8e100010031001e00200024
:101d20000e005600c0b79f004fb297000400e000bd
:101d30000700350010002000010020006011b800ed
:101d400008047000898470000a0571008b85710099
:101d50008d06e900beff3a000400e00003003d00ec
:101d6000320007000f00400094ff07004fa89700c3
:101d70000000e00004003a000fb497009fb4970001
:101d80002fb59700bfb597000800be000a01be003e
:101d90004f0778004f06be004f05be004f04be003f
:101da0004f01b100000006000180400090b79f0085
:101db0000001eb008fb097000100e000000006007a
:101dc0000200700090b79f000180400080b79f0024
:101dd0000001eb00ffa897000100e00000000600f2
:101de0000200700080b79f00018040006faa97003a
:101df000cf20de0001007000f0af9f00040242001f
:101e00000800be000a01be004f18de00000272008a
:101e100000000600e4af9f000804440089844c00e1
:101e20000a054d008b854d00000006003fb297006b
:101e3000cfb297005fb39700efb3970000fe2f007b
:101e4000000006003fb09700cfb097005fb1970049
:101e5000efb1970000000600881f780018002000ee
:101e6000881f780068ff07008f87e9004f0478001b
:101e700000000600801feb0063ff07008f87e9006a
:101e800000000600889fbe008a9fbe008c1f78005d
:101e90000205be000004be00e00f5000e08f5800b5
:101ea000e00f5900e08f59000c003d006000b800c1
:101eb0006011b80008045000898458000a055900d0
:101ec0008b8559001c0020001f00070008003d0002
:101ed000180007000006eb00050037000006eb00c5
:101ee0001900070002003d000f0007001c00200041
:101ef0000800be000a01be00d7ff07000203be00b3
:101f00000002be000c00e0000100320006000700e5
:101f10000400be000601be004f0678004f05be005b
:101f20004f04be00000006006000b8006011b80059
:101f30000000370004025000858258000603590053
:101f40008783590000000600e00f5200e08f5a001e
:101f5000e00f5b00e08f5b0000000600889fbe0082
:101f60008a9fbe008c1f78000205be000004be00e0
:101f7000e00f5000e08f5800e00f5900e08f59004b
:101f80000a003d006000b8006011b800080450006d
:101f9000898458000a0559008b8559001c002000cf
:101fa0001800070007003d00050037000006eb00a1
:101fb0001400070003003d006000b8006011b80085
:101fc000150007000800be000a01be00a9ff0700b7
:101fd0000203be000002be000c00e000030032005d
:101fe0006000b8006011b8000b0007000400be00dc
:101ff0000601be004f0678004f05be004f04be002c
:1020000000000600e00f5200e08f5a00e00f5b0076
:10201000e08f5b000000060004025000858258003b
:0c202000060359008783590000000600e9
:020000040000fa
:0200000401f009
:04000c007bff000076
:020000040000fa
:0200000401f009
:04001000feff0000ef
:020000040000fa
:0200000401f009
:0400140060ff000089
:020000040000fa
:10000800ac020000ac020000ac020000ac02000030
:10001800ac020000ac020000ac020000ac02000020
:10002800ac020000ac020000ac020000ac02000010
:10003800ac020000ac020000ac0200006607010040
:10004800ac020000ac020000ac020000ac020000f0
:10005800ac020000ac020000ac020000ac020000e0
:10006800ac020000ac020000ac0200005208010023
:10007800ac020000ac020000ac020000ac020000c0
:10008800ac020000ac020000ac020000dc0701007a
:10009800ac020000ac020000ac020000ac020000a0
:1000a800ac020000ac020000ac020000ac02000090
:1000b800ac020000ac020000ac020000ac02000080
:1000c800ac020000ac020000ac020000ac02000070
:1000d800ac020000ac020000ac020000ac02000060
:1000e800ac020000ac020000ac020000ac02000050
:1000f800ac020000ac020000ac020000ac02000040
:10010800ac020000ac020000ac020000ac0200002f
:10011800ac020000ac020000ac020000ac0200001f
:10012800ac020000ac020000ac020000ac0200000f
:10013800ac020000ac020000ac020000ac020000ff
:10014800ac020000ac020000ac020000ac020000ef
:10015800ac020000ac020000ac020000ac020000df
:10016800ac020000ac020000ac020000ac020000cf
:10017800ac020000ac020000ac020000ac020000bf
:10018800ac020000ac020000ac020000ac020000af
:10019800ac020000ac020000ac020000ac0200009f
:1001a800ac020000ac020000ac020000ac0200008f
:1001b800ac020000ac020000ac020000ac0200007f
:1001c800ac020000ac020000ac020000ac0200006f
:1001d800ac020000ac020000ac020000ac0200005f
:1001e800ac020000ac020000ac020000ac0200004f
:0801f800ac020000ac020000a3
:020000040000fa
:10020800ac020000ac020000ac020000ac0200002e
:10021800ac020000ac020000ac020000ac0200001e
:10022800ac020000ac020000ac020000ac0200000e
:10023800ac020000ac020000ac020000660701003e
:10024800ac020000ac020000ac020000ac020000ee
:10025800ac020000ac020000ac020000ac020000de
:10026800ac020000ac020000ac0200005208010021
:10027800ac020000ac020000ac020000ac020000be
:10028800ac020000ac020000ac020000dc07010078
:10029800ac020000ac020000ac020000ac0200009e
:1002a800ac020000ac020000ac020000ac0200008e
:1002b800ac020000ac020000ac020000ac0200007e
:1002c800ac020000ac020000ac020000ac0200006e
:020000040002f8
:020000040000fa
:10202c00000000000000000000df000000000000c5
:10203c0000110000830000000300000014140000d5
:10204c003e1400003e140000242a00007f2a0000e9
:10205c00124300003308000066610000364900009e
:10206c005522000050850000030000000012000003
:10207c009c2200004100000013c10000221c000043
:10208c0000130000140800003e08000014080000b3
:10209c00083e000008080000d030000000000000de
:1020ac00120800000808000008080000e0600000aa
:1020bc0000000000122000001008000004020000c4
:1020cc003e510000494500003e840000027f0000a4
:1020dc00001300004261000051490000462200003c
:1020ec00414900004936000018140000127f00001e
:1020fc001027000045450000453900003e4900000e
:10210c00494900003201000001710000090700007c
:10211c0036490000494900003626000049490000b4
:10212c00493e0000ec6c00000000000012d60000dc
:10213c00360000000012000088140000224100004c
:10214c0014140000141400001414000000410000ca
:10215c0022140000080200000151000009060000d2
:10216c003e410000595500005e7e00000909000048
:10217c00097e00007f49000049490000363e0000fe
:10218c0041410000412200007f410000414100001c
:10219c003e7f000049490000494100007f090000d2
:1021ac0009090000013e000041410000493a0000cd
:1021bc007f080000080800007fc100007f4100007c
:1021cc000013000030400000404000003f7f000042
:1021dc0008140000224100007f4000004040000035
:1021ec00407f0000020c0000027f00007f02000014
:1021fc00040800007f3e000041410000413e000009
:10220c007f09000009090000061e000021210000c2
:10221c00215e00007f0900000909000076260000fd
:10222c004949000049320000010100007f01000013
:10223c00013f000040400000403f00001f20000014
:10224c00402000001f7f000020100000207f0000b5
:10225c00412200001c220000410700000870000011
:10226c0008070000615100004945000043ff0000d1
:10227c0041000000001200000204000008100000e1
:10228c0020c100007f0000000012000004020000ca
:10229c0001020000044000004040000040400000eb
:1022ac0081020000040000001320000054540000c0
:1022bc00547800007f44000044440000383800008b
:1022cc0044440000444400003844000044440000ee
:1022dc007f3800005454000054180000040400001f
:1022ec007e0500000508000054540000543c00001a
:1022fc007f0800000404000078c400007d4000004a
:10230c0000130000a0400000443d000014ff00003a
:10231c001028000044140000c17f000040000000a1
:10232c00137c000004780000047800007c08000096
:10233c0004040000783800004444000044380000d5
:10234c007c14000014140000080800001414000091
:10235c00147c0000fc080000040400001448000079
:10236c005454000054200000040400003f440000ba
:10237c00443c000040400000207c00001c20000079
:10238c00402000001c3c000040300000403c00009d
:10239c004428000010280000440c0000505000009d
:1023ac00503c000044640000544c00004488000081
:1023bc003641000041140000ff0000000000000046
:1023cc0011c1000041360000081400000201000099
:1023dc000204000002000000000000009700000052
:1023ec0031070000000700009a1f0000107f00005a
:1023fc002a1200009208000020960000191100001b
:10240c0083000000318e000011320000910e00009c
:10241c003281000000310000040e00000494000022
:10242c000c32000008080000089000000031000089
:10243c0090080000210e0000110e0000121f000079
:10244c001013000019170000111500001f070000e1
:10245c00041f0000171500001d1f0000151d0000b3
:10246c00010100001f1f0000151f000017150000c0
:10247c001f94000000310000901a0000320400008c
:10248c000a11000014140000141100000a040000ca
:10249c0001150000039f0000112200001e05000022
:1024ac001e1f0000150a00000e110000111f000075
:1024bc00110e00001f150000111f00000501000087
:1024cc001f1500001d1f0000041f0000111f00003d
:1024dc0011180000101f00009f040000231f0000b3
:1024ec00101000009f020000129f00000213000059
:1024fc001f1100001f1f0000050700008e110000b7
:10250c00241f0000051a000012150000090100002c
:10251c001f0100001f1000001f070000180700001b
:10252c008f100000141b0000041b00001b1c00007b
:10253c001b190000151300009f11000032820000cf
:10254c0004250000911f000032020000010200006f
:10255c00010100000181000002320000081400009b
:10256c001c1f0000141c00001c140000141c000094
:10257c00141f00001e160000161e000009030000a8
:10258c00161600000e1f0000041c00009d10000019
:10259c0032180000101d00001f080000149f0000de
:1025ac00103200009c040000151c0000041c0000ec
:1025bc001c1400001c1c00000c0c00000c0c000077
:1025cc001c1c0000040c0000141200000a02000085
:1025dc001f1200001c1000001c0c0000100c00004e
:1025ec008c100000161400000814000016140000d3
:1025fc001e9200001a26000036410000419f000088
:10260c0000310000360800000084000002270000a2
:10261c000a1f00000a010000191600000402000045
:10262c001f040000081f00000c1000000f1c00000d
:10263c00041c00000c1000000c040000120400002c
:10264c0002150000170a000011090000160800000e
:10265c0010160000120400001100000001230000fd
:10266c0028000000020000000121000019010000f8
:10267c0001000000012100000f0200000100000019
:10268c004d65000044450000660000004d650000eb
:10269c0064690000646f0000722000006465000033
:1026ac00004500006669000063690000656e00006b
:1026bc006369000061000000000100003037000079
:1026cc000001000001020000222a000001010000ac
:1026dc0000020000321d0000020100000002000098
:1026ec00221000000301000000020000170300008c
:1026fc0004010000004d0000654400004566000028
:10270c00004d00006564000069630000696f000003
:10271c006e650000730000005461000072610000df
:10272c007200000050610000726100006d650000d5
:10273c00747200006f730000004300006f6e0000a5
:10274c006669000067750000726100006369000033
:10275c006f6e000000000000011e0000370000003a
:10276c0001010000010300002f0100000000000027
:10277c00010a0000270200000000000001680000b0
:10278c002703000000000000010500001a040000ef
:10279c0000010000012700001a05000000010000e4
:1027ac00010500000f06000000010000013e0000c2
:1027bc001a07000000010000015f00001a08000069
:1027cc0000010000013e00000f09000000010000a4
:1027dc00016500000f08000000010000021200005b
:1027ec00020a00000000000002480000020b00007a
:1027fc0000000000033200002f0000000000000069
:10280c0001010000010000000007000000030000af
:10281c00132700000100000000000000020100006e
:10282c00000000003b000000031f00002702000016
:10283c00000000000002000001000000003b00004e
:10284c00000300002b270000030000000000000024
:10285c0002010000000000003b000000035a0000d1
:10286c00270400000000000001030000010100002b
:10287c0000e70000030300000d1a00000501000032
:10288c000100000004010000000000000f27000000
:10289c00031500000f0600000101000000030000fa
:1028ac000100000000e70000030300004a1a0000ca
:1028bc0007010000010000000201000001000000ff
:1028cc0063000000035000000f080000010100002d
:1028dc00000200000101000000630000000700007e
:1028ec00402600000d00000000010000035800000d
:1028fc001a090000010100000001000001010000a4
:10290c0000090000000300005e0f00000a01000037
:10291c00010000000101000001000000090000009e
:10292c00036500002f0b00000000000001030000f5
:10293c00010000000009000000010000402f000011
:10294c000c000000004d000045440000494300000d
:10295c00494f00004e450000530000004720000086
:10296c00646500002050000061720000616d000081
:10297c003a000000543a0000006d0000696e00003f
:10298c00004600003a0000005b4e00005d000000b5
:10299c0045660000693a000000560000543a0000f9
:1029ac00005b00004b6d00002f6800005d00000014
:1029bc00564e0000543a0000004300006f6d0000ba
:1029cc00656e00007a61000072000000466900002c
:1029dc006e6100006c6900007a61000072000000fa
:1029ec004d65000064690000636900006f6e0000b3
:1029fc003a00000044750000723a0000000000002c
:102a0c00011f00003700000001010000011500004b
:102a1c002f01000000000000010a0000210200004c
:102a2c00000000000167000021030000000000000e
:102a3c00010400001104000000000000016d000002
:102a4c001103000000000000020d00000205000050
:102a5c000000000002380000020600000000000028
:102a6c00036700002f0900000000000001010000b6
:102a7c0001000000000700000003000054210000ca
:102a8c000a0100000001000003010000000000002a
:102a9c00e7030000035a0000110b000001000000c6
:102aac00010300000101000000e7000003500000da
:102abc0041520000414d000045540000524f0000af
:102acc005300000047520000555000004f200000fa
:102adc00444500002050000041520000414d0000d0
:102aec0045540000524f0000533a000000440000cf
:102afc00696100006d650000747200006f200000b9
:102b0c005472000061630000636900006f6e000086
:102b1c003a0000005b6300006d5d000000440000a3
:102b2c00696100006d650000747200006f20000088
:102b3c006e6f00002054000072610000636300009f
:102b4c00696f00006e3a00000047000075610000dc
:102b5c007264000061720000005200006573000096
:102b6c00657400006561000072200000477200006f
:102b7c00757000006f0000000001000015370000a8
:102b8c000001000001010000052d00000100000003
:102b9c0000010000052400000200000000020000fb
:102bac00300200000300000000090000412d00006d
:102bbc00000000000036000003090000352400006e
:102bcc00010000000042000003070000051900008e
:102bdc000400000000010000036300001a0c000058
:102bec0000000000010300000101000000e70000ec
:102bfc0003010000711a00000500000000430000f2
:102c0c004f4e00004649000047550000524100005d
:102c1c00434900004f4e0000004c0000555a000084
:102c2c002044000045200000464f00004e440000a8
:102c3c004f3a0000004300004f4e00005452000079
:102c4c0041530000544500003a0000004775000055
:102c5c0061720000646100007200000054490000c1
:102c6c00454d0000504f0000204c0000555a00000c
:102c7c002044000045200000464f00004e44000058
:102c8c004f3a0000005b0000735d00000000000084
:102c9c000000000001000000020000000100000024
:102cac000300000001000000020000000100000011
:102cbc000400000001000000020000000100000000
:102ccc0003000000010000000200000001000000f1
:102cdc0005000000010000000200000001000000df
:102cec0003000000010000000200000001000000d1
:102cfc0004000000010000000200000001000000c0
:102d0c0003000000010000000200000001000000b0
:102d1c00060000000100000002000000010000009d
:102d2c000300000001000000020000000100000090
:102d3c00040000000100000002000000010000007f
:102d4c000300000001000000020000000100000070
:102d5c00050000000100000002000000010000005e
:102d6c000300000001000000020000000100000050
:102d7c00040000000100000002000000010000003f
:102d8c000300000001000000020000000100000030
:102d9c00070000000100000002000000010000001c
:102dac000300000001000000020000000100000010
:102dbc0004000000010000000200000001000000ff
:102dcc0003000000010000000200000001000000f0
:102ddc0005000000010000000200000001000000de
:102dec0003000000010000000200000001000000d0
:102dfc0004000000010000000200000001000000bf
:102e0c0003000000010000000200000001000000af
:102e1c00060000000100000002000000010000009c
:102e2c00030000000100000002000000010000008f
:102e3c00040000000100000002000000010000007e
:102e4c00030000000100000002000000010000006f
:102e5c00050000000100000002000000010000005d
:102e6c00030000000100000002000000010000004f
:102e7c00040000000100000002000000010000003e
:102e8c00030000000100000002000000010000002f
:102e9c00754300002f4f0000532d000049490000de
:102eac0020490000646c00006500000075430000c0
:102ebc002f4f0000532d0000494900002053000003
:102ecc00746100007400000044690000616d000032
:102edc0065740000726f0000206400006520000023
:102eec006c610000207200007565000064610000d8
:102efc002064000065200000747200006163000013
:102f0c0063690000f36e00003a0900007878000055
:102f1c0078780000205b0000756d00005d000000fb
:102f2c0044690000616d000065740000726f000060
:102f3c0020640000652000006c610000207200001d
:102f4c0075650000646100002064000065200000cd
:102f5c004e4f00002074000072610000636300009b
:102f6c0069f300006e3a00000978000078780000e0
:102f7c00782000005b7500006d5d0000004e0000c5
:102f8c00b02000002020000009680000683a000012
:102f9c006d6d00003a730000730900004675000067
:102fac00657200007a6100005b4e00005d09000054
:102fbc00565400005b4b00006d2f0000685d000054
:102fcc00095600004e5400005b4b00006d2f0000b2
:102fdc00685d000009450000666900006369000037
:102fec00656e00006369000061090000506f00000d
:102ffc00746500006e63000069610000002500002c
:10300c00327500003a250000327500003a250000a8
:10301c003275000009000000257300000900000053
:10302c00257300000a00000000950000000000005d
:10303c000000000001f9000000000000000000008a
:10304c0008870000040000000000000009af000029
:10305c0000000000010000000a1b0000000000003e
:10306c00010000000cc30000010000000000000083
:10307c000daf0000020000000000000010ff000077
:10308c00000000000000000011ff00000000000024
:10309c000100000012ff0000000000000100000011
:1030ac0018ff0000000000000100000019ff0000e4
:1030bc00000000000100000020ff000000000000e4
:1030cc000000000021ff00000000000000000000d4
:1030dc0026df000001000000000000003773000034
:1030ec0000000000000000003a2500000400000071
:1030fc00000000003b250000000000000000000064
:10310c0029ff0000040000000000000017ff000071
:10311c0000000000000000000100000078560000d4
:10312c00341200000a000000100000000100000032
:10313c001a0000000401000001000000160000004d
:10314c000c00000002000000050000001000000050
:10315c001400000001000000000000000500000049
:10316c001000000000000000000000000000000043
:10317c00020000000000000004000000000000003d
:10318c00030000000000000002000000010000002d
:10319c000100000001000000a00000000100000080
:1031ac00110000001000000001000000a000000051
:1031bc0001000000010000001500000048000000a4
:1031cc00e8030000010000001e01000000000000e8
:1031dc001000000010000000080000000a000000b1
:1031ec0000000000000000000000000000000000d3
:1031fc001109000041640000766500007274000043
:10320c00656e00006369000061210000212100004f
:10321c002053000069200000656c00002061000054
:10322c007263000068690000766f0000207900006e
:10323c00612000006578000069730000746900006b
:10324c00612c00002073000065200000736f0000eb
:10325c006272000065650000736300007269000013
:10326c0062690000726100002e200000436f0000b4
:10327c006e740000696e000075610000723f000002
:10328c000000000002000000000000000000000030
:10329c000200000000010000000000004f6b000065
:1032ac000045000073630000000000005374000030
:1032bc00617200007420000054610000736b000008
:0432cc0000000000fe
:020000040000fa
:1032d0000400fa000000eb00000f78000500370042
:1032e0001e0178000121220010c0b30000f1780017
:1032f0001e0fe8001e00e000f9ff3400816f22007d
:103300000040eb0080487800e16e22000040eb00b6
:10331000804878000080eb008080eb005037890007
:10332000613789000080eb008080eb0090378900d6
:10333000a1378900287a020000000000002c22003a
:103340001c0207000004e00006003a006121220090
:103350000040eb0080487800100020001007980023
:10336000020037000000eb00100798001e009000dc
:103370000080fa00000006001400fa00881f7800a0
:10338000600798007107980002579800135798003b
:103390006e0090004010900050079800b000200090
:1033a000200798006e009000801890007010900028
:1033b0006e01900010199800211998007e0090006d
:1033c00060119000020078000080ea008180ea002d
:1033d000300798005e0090000000e00009003a000d
:1033e000ea00470012c0b3006e009000ca07070051
:1033f0000000e0000f003a00b00120002007980014
:103400000c0037005e0090006f0060000000e000dc
:1034100008003200ea00470012c0b3006e009000be
:10342000bd0707000000e00002003a00b0012000e4
:10343000200798002e009000fb0f5000bc003200c7
:103440002e0090000000e000b9003200ea004700c2
:103450006e0090001b0c0700104798001e40900063
:10346000e24f5000b20032001e4090000004e00025
:10347000a6003a006e009000e0109000410798000e
:10348000ce009000f003200000806000400798000c
:103490001e5090000080fb00100f98001e08900046
:1034a0000000e000040032009e089000e18f500010
:1034b0002a0032009a0037004e009000e80f5000ba
:1034c000970032000000eb0020079800d0c6b30040
:1034d000304798000040eb00004f78001b00370099
:1034e0001e80fb00ee0090007c00400001004000c8
:1034f00010407800304798001e80fb00fe009000ce
:103500007c004000010040001040780020479800f7
:103510003e4090000080fb005a06020000000000c0
:10352000000478002e4090000080fb005a06020044
:1035300000000000800f540003003200b0002000a3
:1035400020079800760037001e4fe800a0c0b300a7
:103550009e4f1000e2ff3600710037004e009000d1
:10356000be009000010060000000e0006c003a0026
:103570004e009000ef0f5000690032000000eb0099
:1035800020079800d0c6b300304798007e00900016
:10359000c0589000a0c2b30080cf50002900320074
:1035a0000040eb00004f7800230037001e80fb0036
:1035b000ee0090007c0040000100400010407800c8
:1035c000304798001e80fb00fe0090007c00400009
:1035d000010040001040780020479800ae40900065
:1035e000a0c2b30080cf500016003200ae40900061
:1035f000f0c3b30080cf50000e0032003e40900078
:103600000080fb005a060200000000000004780061
:103610002e4090000080fb005a06020000000000cf
:10362000800f540003003200b000200020079800f3
:10363000040037001e4fe80071c0b3009ecf100099
:10364000daff36007e009000c0609000a0c2b30098
:1036500080cf5000320032002e0090000000e000c9
:103660002f003a0080c0b300004f780023003700dd
:103670001e80fb00ee0090007c0040000100400036
:1036800010407800304798001e80fb00fe0090003c
:103690007c00400001004000104078002047980066
:1036a000ae409000a0c2b30080cf50001c0032009a
:1036b000ae409000f0c3b30080cf50000e00320047
:1036c0003e4090000080fb005a060200000000000f
:1036d000000478002e4090000080fb005a06020093
:1036e00000000000800f540003003200b0002000f2
:1036f000200798000a0037001e4fe800a0c0b30062
:103700009e4f1000daff3600050037000e50900083
:103710000004e00002003a000000eb0020079800df
:103720005e0090000000e8005007980044ff37005a
:103730002e0090004f0478000080fa000000060080
:103740001200fa005007980061079800624f980035
:103750000000eb00000f78005e0090009000780001
:10376000410798004e009000306090000004e00097
:1037700003003a0070002000000f7800900037002e
:103780005e00900080189000701090005e01900024
:1037900010199800211998006e0090001000780010
:1037a0000000e00009003a0012c0b300ee009000f3
:1037b0005e009000d80607000000e00010003a000c
:1037c000b0012000000f78000d0037006e0090005f
:1037d000100078006f0060000000e0000800320078
:1037e00012c0b300ee0090005e009000ca06070011
:1037f0000000e00002003a00b0012000000f780055
:10380000ee0090005e0090002e0b070060479800cd
:103810006e4090000004e00003003200b000200081
:10382000000f7800660037005e0190006000b8006d
:1038300070019800010998005e009000a0009000bf
:10384000100090005e019000300198004101980046
:10385000de0090000000eb00d0009800de00900039
:103860000000eb00e00098006e409000e14f500037
:1038700003003a00b0002000000f7800300037004d
:103880005e00900030019000c00190004e0090005a
:103890003b1007001007980021079800606f220076
:1038a000104078000004e0000600320075120700a6
:1038b0000004e0000300320090002000000f980098
:1038c00041003700de009000813789009237810087
:1038d000a33781001e009000ae009000800f5100c1
:1038e000818f590016003200816f22000040eb00ea
:1038f000804878004e0090009080fb0010409000bf
:103900000080fb004800dd0001007000000178002d
:103910001e009000ae009000947b020000000000aa
:103920000004e00002003a0080002000000f780050
:103930001e009000ae00900090378900a1378900ea
:103940005e019000b2089000b0ff2f000080600080
:1039500030099800ee48900070c7b30080cf500047
:1039600004003200ee48900010c6b30080cf500033
:103970000a003a00de009000310890000000a0002c
:10398000b00898005e019000b2089000d0ff2f00b0
:103990000080600030099800090037005e01900047
:1039a000b2089000e0ff2f0000806000300998000e
:1039b000de009000310890000010a000b0089800d0
:1039c0009e007800010f98000e0890000080fa0019
:1039d000000006001c00fa00200f9800320f98002b
:1039e000430f98000040eb00204798002e089000fd
:1039f000100f78001e007800206090000080fb000f
:103a0000500f98005e089000e10f50000d0032004a
:103a10005e099000e30f51000100320012003700f0
:103a200080ff2f00f1ff2000200798003107980049
:103a3000f0ff2f00f1ff2000400798005107980089
:103a40001100370080ff20000100200020079800af
:103a500031079800f0ff2f00010020004007980078
:103a6000510798000800370080ff2f000100200058
:103a70002007980031079800f0ff2f000100200078
:103a800040079800510798002e08900030019000e0
:103a9000c001900062079800730798006e019000c3
:103aa000fe0190001e0078002d160700000f980000
:103ab000110f98000e0990009e0990004e00900092
:103ac000de009000800f5100818f590003003a0002
:103ad00080c0b300204798001f0037009e00780088
:103ae000415090000082fb00515090000080fb008c
:103af0004800dd0004007000000178006150900073
:103b00000082fb00715090000080fb004800dd0047
:103b100004007000800178000e0890009e0890005c
:103b2000800f5100818f590002003e00a0c0b300f9
:103b3000204798000e0990009e0990002e009000ea
:103b4000be009000800f5100818f590002003900a3
:103b5000c0c3b300204798002e0890000e099000c3
:103b60009e09900032009800430098003e089000a3
:103b7000ce08900061005000e0805800300f98009f
:103b8000410f98003e089000ce089000e00f5000d2
:103b9000e08f5800030032002e4090000004e00047
:103ba000b9ff32002e4090000080fb000080fa0038
:103bb000000006000800fa00200798000040eb0013
:103bc00020479800ae0090000040eb00b0609800e5
:103bd000ae00900002cb2100f00f20000000610039
:103be00091417800e0c86100914870004811de0002
:103bf00011409000604060000240700090409800ca
:103c0000de81020000000000000f78001e00780036
:103c1000104078000004e0000600320060c0b300ed
:103c2000204798006121220060c0b30080487800de
:103c30003d0037001e007800900078000010200042
:103c4000008060000000e000280032001e007800c4
:103c5000100090006101b800ae009000f00f20004d
:103c60000002610001589000604060000440700054
:103c7000805898004812de001158900060406000a3
:103c80000440700090589800f00f200000826100fe
:103c9000215890006040600004407000a0589800d7
:103ca0004819de003158900060406000024070000a
:103cb000b05898001e00780090009000002020006e
:103cc000808f50000900360010c2b30020479800d2
:103cd0006121220010c2b300804878002e4090007d
:103ce0000080fb0030079800120037002e00900083
:103cf00013000700204798002e4090000004e000c9
:103d000009003a002e009000560107002047980055
:103d10002e4090000004e00003003a00ae00900046
:103d200010c0b300b06098002e4090000080fb00ef
:103d3000300798003e0090000080fa000000060066
:103d40001200fa00500798000040eb0070479800fe
:103d50005e0090009080fb00104090000080fb000f
:103d60004800dd0001007000000178006000b8002c
:103d7000947b020000000000e14f5000060032007a
:103d800080c0b300704798006121220080c0b3005a
:103d9000804878002d0137005e0090009080fb0085
:103da000104090000080fb004800dd000100700022
:103db000200798002e009000e0f8930050c5b30053
:103dc00080cf5000a3003a002e009000f0f893003e
:103dd000a0cab30080cf50009e003a005e00900061
:103de0009080fb00104090000080fb004800dd0048
:103df0000100700061032000a40e070080407800dd
:103e000060c4b30080cf500043003a005e009000d1
:103e10009080fb00104090000080fb004800dd0017
:103e20000100700071032000980e070080407800a8
:103e300010c4b30080cf500037003a005e009000fd
:103e40009080fb00104090000080fb004800dd00e7
:103e500001007000810320008c0e07008040780074
:103e600040c5b30080cf50002b003a005e009000a8
:103e70009080fb00104090000080fb004800dd00b7
:103e80000100700091032000800e07008040780040
:103e900010c3b30080cf50001f003a005e009000b6
:103ea0009080fb00104090000080fb004800dd0087
:103eb0000100700061022000740e0700804078004d
:103ec00090c2b30080cf500013003a005e00900013
:103ed000a0409000e0c0600021409800b0409000f9
:103ee000e0c0600031409800c0409000e0c0600039
:103ef00041409800d0409000e0c0600051409800e0
:103f0000de00900020c0b300a06098000000eb002d
:103f100070079800d00037005e0090009080fb0092
:103f2000104090000080fb004800dd0001007000a0
:103f300021052000550e07008040780060c4b300c2
:103f400080cf500043003a005e0090009080fb005c
:103f5000104090000080fb004800dd000100700070
:103f600031052000490e07008040780010c4b300de
:103f700080cf500037003a005e0090009080fb0038
:103f8000104090000080fb004800dd000100700040
:103f9000410520003d0e07008040780040c5b30079
:103fa00080cf50002b003a005e0090009080fb0014
:103fb000104090000080fb004800dd000100700010
:103fc00051052000310e07008040780030c3b30057
:103fd00080cf50001f003a005e0090009080fb00f0
:103fe000104090000080fb004800dd0001007000e0
:103ff00021042000250e07008040780090c2b30005
:1040000080cf500013003a005e009000a040900066
:10401000e0c0600021409800b0409000e0c0600027
:1040200031409800c0409000e0c0600041409800de
:10403000d0409000e0c0600051409800de00900049
:1040400030c0b300a06098008000eb0071079800ba
:10405000810037005e0090009080fb0010409000cf
:104060000080fb004800dd00010070004007980060
:104070004e009000e0f8930050c5b30080cf500090
:1040800005003a004e009000f0f89300a0cab3007b
:1040900080cf5000060032006021220041c0b300f2
:1040a0000148780040c0b3007047980067003700af
:1040b0004e009000e11b2000010f40000040eb008b
:1040c00020479800590037009e0078000148900072
:1040d0000082fb00114890000080fb004800dd00da
:1040e0000400700000017800214890000082fb006d
:1040f000314890000080fb004800dd0004007000a3
:1041000080017800de009000f00f200000026100c6
:10411000214090006040600004407000a040980082
:104120004812de00314090006040600004407000a2
:10413000b0409800f00f20000082610041409000e4
:104140006040600004407000c04098004819de00e4
:10415000514090006040600002407000d0409800e4
:104160001e007800c0409000614798006e409000ab
:104170000080fb00600798006e009000ee0f50007a
:1041800025003e0010002000ee0090000100dd0040
:10419000000f9800000524008e0890000080600049
:1041a0000000e0000e003a00008021008e08900020
:1041b000008060000000e00010003a008e089000cf
:1041c000628060000000e00001003a001200370049
:1041d000de00900010c0b300a06098000e00370011
:1041e0005e00900021c0b300216098007e409000e6
:1041f0000080fb0070079800170037005e009000f9
:1042000031c0b300216098007e4090000080fb0028
:1042100070079800100037001e007800700f4000f3
:104220002e4090000040e800204798002e4090006b
:10423000e34f5000a4ff36006021220051c0b300bc
:104240000148780050c0b300704798007e4090004d
:104250000080fb00700798007e0090000080fa004c
:10426000000006001c00fa00889fbe008a9fbe0066
:10427000400f98000040eb00204f98000000eb003a
:10428000100798000000eb00000f78004e08900027
:104290009080fb00104090000080fb004800dd0093
:1042a0000100700080017800ce089000214090004d
:1042b0000081fb00314090000080fb004800dd00e1
:1042c0000200700000027800414090000081fb0075
:1042d000514090000080fb004800dd0002007000ab
:1042e00080027800030178000400be00947b020085
:1042f00000000000e14f50000300320080c0b30016
:10430000204f9800f00237004e0890009080fb008c
:10431000104090000080fb004800dd0001007000ac
:1043200040079800000037004e009000e0f893002e
:1043300050c5b30080cf500005003a004e009000f9
:10434000f0f89300a0cab30080cf50000300320001
:1043500030c0b300204f9800220237004e08900072
:104360009080fb00104090000080fb004800dd00c2
:1043700001007000e10020004d0d070020079800ab
:104380004e0890009080fb00104090000080fb00e1
:104390004800dd0001007000d10020003b0d070047
:1043a000804078004e08900011609800ce08900080
:1043b000214090000082fb00314090000080fb0013
:1043c0004800dd00040070000001780041409000ca
:1043d0000082fb00514090000080fb004800dd009f
:1043e00004007000800178002e0090000100200081
:1043f0000201400083814800ce089000f00f2000a9
:104400000002610061409000604060000440700064
:10441000e04098004812de0071409000604060006b
:1044200004407000f0409800f00f2000008261000e
:10443000014890006040600004407000804898008f
:104440004819de0011489000604060000240700092
:10445000904898004e0890009080fb00104090001b
:104460000080fb004800dd00010070000101200019
:10447000060d0700804078004e089000016098000b
:104480004e0890009080fb00104090000080fb00e0
:104490004800dd000100700061012000040d0700ec
:1044a0006101b800ce089000f00f2000000261000a
:1044b000415890006040600004407000c05898006f
:1044c0004812de00515890006040600004407000c7
:1044d000d0589800f00f20000082610061589000d1
:1044e0006040600004407000e05898004819de0009
:1044f000715890006040600002407000f0589800d1
:10450000ce089000415890000082fb005158900066
:104510000080fb004800dd0004007000000178000e
:10452000615890000082fb00715890000080fb00f1
:104530004800dd000400700080017800e00f5100a9
:10454000e08f590020003a004e0890009080fb0058
:10455000104090000080fb004800dd00010070006a
:1045600041022000ec0c07000001be00ce089000c4
:10457000f00f200000026100415890006040600090
:1045800004407000c05898004812de005158900056
:104590006040600004407000d0589800f00f200088
:1045a000008261006158900060406000044070002b
:1045b000e05898004819de00715890006040600093
:1045c00002407000f0589800ce08900061409000c2
:1045d0000081fb00714090000080fb004800dd007e
:1045e0000200700000057800014890000081fb0087
:1045f000114890000080fb004800dd0002007000c0
:10460000800578004e089000006090000084fb0058
:1046100009002000ce089000415890000081fb0066
:10462000515890000080fb004800dd00020070003f
:1046300000037800615890000081fb0071589000e1
:104640000080fb004800dd0002007000800378005d
:104650008800780006007800000ab80007c0b9009a
:10466000050178000001410009b0b90000014100d6
:10467000820278000a0142008b814a00ce08900035
:10468000f00f2000000261002148900060406000af
:1046900004407000a04898004812de0031489000a5
:1046a0006040600004407000b0489800f00f2000a7
:1046b000008261004148900060406000044070004a
:1046c000c04898004819de005148900060406000e2
:1046d00002407000d04898004e0890009080fb0087
:1046e000104090000080fb004800dd0001007000d9
:1046f000110120006e0c070080017800ce089000a8
:10470000f00f2000008161002150900060406000a7
:1047100002407000a05098004819de00315090000f
:104720006040600002407000b05098004e08900059
:104730009080fb00104090000080fb004800dd00ee
:104740000100700031012000590c07000100200019
:10475000000f9800110f98000e0890009e0890001e
:10476000e00f5000e08f58000a003a004e08900019
:104770009080fb00104090000080fb004800dd00ae
:104780000100700001022000630c0700000f980078
:10479000110f98004e0890009080fb001040900090
:1047a0000080fb004800dd0001007000b100200027
:1047b0003f0c0700300798003e0090000000e0002a
:1047c000040032003e009000610060000004e00040
:1047d0000300320010c2b300204f980001013700df
:1047e000ce089000215090000081fb0031509000d5
:1047f0000080fb004800dd0002007000c500dd0005
:104800003e009000008040000000e9003e01900062
:10481000110009000280d80001002000200f98003c
:10482000310f98002e0090006105b8004e089000ee
:10483000006090000084fb0009002000ce0890007a
:10484000415890000081fb00515890000080fb000f
:104850004800dd00020070000003780061589000fd
:104860000081fb00715890000080fb004800dd00d3
:10487000020070008003780088007800060078004d
:10488000000ab80007c0b900050178000001410026
:1048900009b0b90000014100820278000a0142001b
:1048a0008b814a002e089000be0890000201400053
:1048b000838148000e0890009e089000020050007e
:1048c0008380580060079800710798004e08900098
:1048d000106090000081fb00030020006e0090003b
:1048e000fe00900004060200000000000001be006f
:1048f000ce089000f00f20000002610041509000af
:104900006040600004407000c05098004812de0013
:10491000515090006040600004407000d0509800fa
:10492000f00f200000826100615090006040600044
:1049300004407000e05098004819de00715090006b
:104940006040600002407000f0509800ce08900077
:10495000415090000082fb00515090000080fb000d
:104960004800dd00040070000001780061509000f4
:104970000082fb00715090000080fb004800dd00c9
:10498000040070008001780040ff2000010020003a
:10499000800f5100818f590004003e00ce08900026
:1049a00010c0b300a06098001b003700ce08900034
:1049b000415090000082fb00515090000080fb00ad
:1049c0004800dd0004007000000178006150900094
:1049d0000082fb00715090000080fb004800dd0069
:1049e000040070008001780040ff2f0001002000cb
:1049f000800f5100818f590004003e00ce089000c6
:104a000020c0b300a060980003003700ce089000db
:104a100030c0b300a06098004e0890002060900065
:104a2000e34f500035003a004e0890009080fb00a4
:104a3000104090000080fb004800dd000100700085
:104a4000c1022000b40b070090108900a11089005a
:104a5000ce089000214890000082fb003148900071
:104a60000080fb004800dd000400700000017800b9
:104a7000414890000082fb00514890000080fb00fc
:104a80004800dd0004007000800178002e089000ce
:104a9000be0890000201400083814800ce089000cb
:104aa000f00f20000002610061489000604060004b
:104ab00004407000e04898004812de007148900001
:104ac0006040600004407000f0489800f00f200043
:104ad000008261000150900060406000044070005e
:104ae000805098004819de0011509000604060002e
:104af0000240700090509800340037006000b80009
:104b000090108900a1108900ce08900021489000e3
:104b10000082fb00314890000080fb004800dd006f
:104b20000400700000017800414890000082fb0002
:104b3000514890000080fb004800dd000400700038
:104b400080017800ce089000215090000082fb0088
:104b5000315090000080fb004800dd000400700030
:104b60004400de0001002000020140008381480073
:104b7000ce089000f00f2000000261006148900014
:104b80006040600004407000e04898004812de0079
:104b9000714890006040600004407000f048980048
:104ba000f00f200000826100015090006040600022
:104bb00004407000805098004819de0011509000a9
:104bc000604060000240700090509800be0090006d
:104bd00000202000808f50000200360010c2b30079
:104be000204f98004e08900020609000e34f500046
:104bf0000d0032002e4890000004e000b2003200a8
:104c00004e009000a0c0900090c2b30080cf500032
:104c1000050032004e009000a0c0900080c2b3009a
:104c200080cf5000a8003a00ce0090003150900094
:104c30000081fb00415090000080fb004800dd0037
:104c4000020070000000e0003a003a004e009000c0
:104c5000407090000004e00036003a004e009000e2
:104c6000507090000004e00032003a004e009000c6
:104c7000607090000004e0002e003a004e009000aa
:104c8000707090000004e0002a003a004e0090008e
:104c9000007890000004e00026003a004e009000ea
:104ca000107890000004e00022003a004e009000ce
:104cb000207890000004e0001e003a004e009000b2
:104cc000307890000004e0001a003a004e00900096
:104cd000407890000004e00016003a004e0090007a
:104ce000507890000004e00012003a004e0090005e
:104cf000607890000004e0000e003a004e00900042
:104d0000707890000004e0000a003a004e00900025
:104d1000a0c0900090c2b30080cf500007003200c6
:104d20004e009000a0c0900080c2b30080cf500021
:104d30000200320030c0b300204f98002e4890008f
:104d40000004e000330032001e0090000000e0008c
:104d500030003a0010002000100798004e08900024
:104d60009080fb00104090000080fb004800dd00b8
:104d70000100700080027800ce0890002140900071
:104d80000082fb00314090000080fb004800dd0005
:104d90000400700000017800414090000082fb0098
:104da000514090000080fb004800dd0004007000ce
:104db00080017800ce009000217090000082fb00fe
:104dc000317090000080fb004800dd00040070009e
:104dd00001002000020040008380480005017800a7
:104de000947b020000000000e14f500006003200fa
:104df0006121220080c0b30080487800800020003c
:104e0000500f9800390037000040eb00204f980009
:104e100045fd37002e4890000004e0002a003200d3
:104e20001e00e00028003a0010002000000f78006b
:104e30004e0890009080fb00104090000080fb0026
:104e40004800dd000100700080027800ce0890006c
:104e5000214090000082fb00314090000080fb0068
:104e60004800dd000400700000017800414090001f
:104e70000082fb00514090000080fb004800dd00f4
:104e8000040070008001780066004100e080490065
:104e900005017800947b020000000000e14f500003
:104ea000060032006121220080c0b30080487800f3
:104eb00081002000510f98000c0037000040eb00eb
:104ec000204f980018fd37002e4890000004e000a5
:104ed0000300320060212200ae48900001487800b3
:104ee0002e4890000080fb00500f98005e08900054
:104ef0004f05be004f04be000080fa00000006000f
:104f00000600fa00200798006000b800008fbe007d
:104f10002e0090002008900001002000008fbe00ad
:104f20001e00be00c000dd0000002000008fbe009b
:104f30002e00900050089000010020001e1f7000fd
:104f40001e9770001e00be000080fa0000000600e0
:104f50001200fa0060079800710798006e00900038
:104f600090007800510798006e0090001019900092
:104f7000a0199000028fbe007e0090001000780003
:104f80006103b800de009000015890000082fb0031
:104f9000115890000080fb004800dd000400700004
:104fa00000017800215890000082fb0031589000e9
:104fb0000080fb004800dd000400700080017800e4
:104fc0004b18dd004511de0002017000c519de003e
:104fd0000600be000406020000000000004f98001a
:104fe0005e009000206090000080fb00000f9800a1
:104ff0008e089000e18f50001f0035000e099000d0
:10500000e20f51000e0034008e099000e38f510032
:1050100001003200180037005e00900090609000a0
:105020000e4890000080fb000181fb001100090088
:105030000280d8008000fd00004f98000e0037006d
:1050400090108100a1108100be0f1000ae8f1800db
:10505000090032005e009000906090000e489000c1
:105060000080fb000181fb00110009000280d800d4
:105070008000fd00004f98001e01be005e00900001
:105080003f0a070020079800310798005e00900053
:105090009080fb00104090000080fb004800dd0085
:1050a00001007000000278000e4890000081fb00b3
:1050b000030020002e009000be009000020040007f
:1050c000838048008041eb00040178008c8002005e
:1050d000000000000004e00003003a000040eb0084
:1050e000104f98000200370010c0b300104f980016
:1050f0001e4890000080fb000080fa0000000600bf
:105100001800fa0070079800010f9800120f98001d
:105110000000eb00000f78001e0890002060900057
:105120000080fb00300f98003e089000e10f500017
:105130000d003200be089000e38f500001003200e5
:1051400012003700f0ff2f00f1ff20001007980039
:105150002107980080ff2f00f1ff20003007980002
:105160004107980011003700f0ff2f0001002000d8
:10517000100798002107980080ff20000100200000
:10518000300798004107980008003700f0ff2f0013
:1051900001002000100798002107980080ff2f00d1
:1051a0000100200030079800410798007e00900021
:1051b0008e089000e00f5000e08f5800070032008a
:1051c0007e0190008e099000100020000100200058
:1051d000800f5100818f59003d003a0020002000cf
:1051e000000f78003c0037007e0190008e0990008f
:1051f0001e0890005a100700500798006107980099
:105200005e019000ee0190001e009000ae00900044
:10521000800f5100818f590003003a0010002000d8
:10522000000f78002a0037005e009000ee0090002a
:10523000e00f5000e08f5800070032005e01900040
:10524000ee0190001000200001002000800f5100ae
:10525000818f590003003a0020002000000f7800e1
:105260001b0037005e019000ee0190003e009000b0
:10527000ce009000800f5100818f5900020039004c
:1052800020002000000f78008040eb006022b80072
:105290007e0190008e0990001e08900058120700b1
:1052a0000001be001e009000ae009000800f510073
:1052b000818f590002003a0010002000000f780092
:1052c0005e009000ee00900070079800010f9800bb
:1052d0001e00e000c4ff320011c0b3006022b8001d
:1052e0006011b8001e089000451207002100200040
:1052f0009e8f100003003a0010002000200f98003d
:10530000020037008000eb00210f98002e0890006b
:105310000080fa00000006002000fa00400f98000c
:10532000510f9800425f98004e089000900078005e
:10533000210f98004e089000701190008019900085
:1053400062079800730798004e08900010199000ab
:10535000a01990002207980033079800ae0890002b
:10536000015890000082fb00115890000080fb0063
:105370004800dd0004007000000178002158900012
:105380000082fb00315890000080fb004800dd00e7
:1053900004007000800178004b1add004510de002b
:1053a00000007200c518de00004f78005e08900013
:1053b000100078001e81fb00110009000280d80057
:1053c000204798002e089000206090000080fb008d
:1053d000e30f5000010032000e0037002e0890004d
:1053e000906090002e4090000080fb000181fb0047
:1053f000110009000280d8008000fd0020479800bd
:1054000080ff2f00f1ff200040079800510798000f
:10541000120037006e009000fe009000e00f500078
:10542000e08f5800090032002e0890009060900034
:105430002e4090000080fb000181fb00110009005c
:105440000280d8008000fd002047980080ff2f00d8
:105450000100200040079800510798004e58900026
:105460000004e00005003a005e089000100078009b
:105470006f0060000000e000c0003a002e40900085
:105480000004e00005003a005e08900090007800fb
:105490001e80fb00808f5000030031004e589000aa
:1054a0000004e0002e0032006e009000fe0090002c
:1054b000e00f5000e08f580004003a006000b80090
:1054c0002007980031079800250037004e589000bb
:1054d0000004e0000c0032005e08900090017800ab
:1054e0009e80fb002e089000106090000080fb0062
:1054f0000088b90000017800110009008281d800fd
:10550000104798001300370010c0b30010479800f0
:10551000100037002e019000be0190002e08900070
:105520008f0f070020079800310798002e01900088
:10553000be0190004e009000de009000800f5100f0
:10554000818f5900060031001e4090000040e900a4
:10555000104798001e4090000004e000edff3a0064
:105560002e019000be0190004e009000de009000e1
:10557000800f5100818f59007a0031004e08900051
:105580002e019000be019000121898002318980078
:105590002e019000be0190002e089000f808070030
:1055a000000f9800110f980092108100a310810045
:1055b0002e009000be009000820f5000838f580094
:1055c00020003a002e4090000081fb0003002000e4
:1055d0000e0890009e08900002034000838348005c
:1055e000ae089000614890000082fb007148900076
:1055f0000080fb004800dd0004007000000178001e
:10560000015090000082fb00115090000080fb00d0
:105610004800dd000400700080017800820f530014
:10562000838f5b00070039002e08900020609000f7
:10563000e34f5000030032000000eb00300f9800f1
:1056400061003700606f2200104078000004e00025
:10565000060032000b0b07000004e00003003200dc
:105660008001eb00730f9800590037000000eb0039
:1056700080378900816f22000040eb00804878006d
:105680002e0890009080fb00104090000080fb00ee
:105690004800dd0001007000000278002e409000fc
:1056a0000081fb00030020000e0890009e0890007f
:1056b000020040008380480004017800947b0200cf
:1056c00000000000e14f5000030032000000eb003a
:1056d000300f98001e0037004e5890000004e00084
:1056e000140032002e0890009080fb0010409000c3
:1056f0000080fb004800dd000100700080007800a1
:105700005e089000100078001e81fb00811f780069
:10571000110009000280d800000178000100780023
:10572000cf0078004500dd0000804000300f980079
:10573000070037002e0890009080fb00104090007a
:105740000080fb004800dd0001007000300f980071
:105750000080eb008080eb0090378900a137890042
:1057600019003700706f220011c0b30001487800a3
:105770000000eb00300f9800130037002e08900057
:105780009080fb00104090000080fb004800dd008e
:1057900001007000800078005e0890001000780022
:1057a0001e81fb00811f7800110009000280d800d3
:1057b0000001780001007800cf0078004500dd008e
:1057c00000804000300f98003e0a9000740f98004f
:1057d0007e0890000080fa00000006000a00fa002f
:1057e0001007980021079800624798004307980027
:1057f0000000eb00000f7800612122000040eb0068
:1058000080487800ae0090000000eb00800878002f
:10581000ae0090001e009000600007000004e00051
:105820000f003a006e419000ae0090001e00900004
:10583000dd0007000080fb00000f78001e00e00084
:1058400009003a004e0090000000e000060032001f
:105850001e0090000b000700000f780002003700c8
:1058600040012000000f78001e0078008040780082
:1058700060212200014878001e0078000080fa00b4
:10588000000006001400fa00700798007e009000e7
:105890004010900060079800e80047007e009000ec
:1058a00044070700300798003e0090000000e00029
:1058b00037003a00ec0047007e009000b10307007b
:1058c000000f78004e009000de009000800078000d
:1058d0001e007800510898004e009000de009000f5
:1058e00002002000f3ff200000027800810278000f
:1058f00002007800830078000001620001806200ed
:105900006102b800040f9800150f98000e0890006f
:105910009e089000c000dd0000002000000f9800ed
:10592000110f98000e0890009e0890006112b800b8
:10593000040f9800150f98000e0990009e09900022
:105940000200700083807000100798002107980003
:105950001e009000ae0090004008de000100200014
:1059600010079800210798009e0090001e00780004
:1059700021089800ec0047007e00900074fd0700ad
:10598000e14f5000020032009000200030079800e4
:105990003e0090000080fa00000006001000fa00af
:1059a000600798007107980010c0b300304f98004e
:1059b0000040eb00004f98007e00900090007800bf
:1059c000310798006e0090008018900070109000d1
:1059d0006e019000101998002119980012c0b300b0
:1059e000fe0090006e0090004bfe0700000f780054
:1059f0001e00e0006500320010c0b300104f980098
:105a00005f0037000040eb00204f98007e009000c0
:105a100010017800320798000041eb00fe00900072
:105a20006e0090003cfe0700000f78001e00e000b2
:105a3000030032001e00780010407800004f9800ec
:105a40007e009000100078008000e8007e0090004a
:105a5000010878001e00e0000d0032000e489000a2
:105a6000fb4f4000030032000e4890000004e000ad
:105a700007003a002e4890000040e800204f9800b0
:105a8000ae4890001e48900080cf5000e2ff3900e1
:105a90001e00e00034003a006e00900010199000e3
:105aa000a019900012079800230798009210810017
:105ab000a31081001e009000ae009000820f5000e5
:105ac000838f580018003a006e0090001000780094
:105ad00020609000e34f50000300320020c0b3006c
:105ae000304f9800260037006e0090001e01900095
:105af000ae019000320098004300980011c0b3003e
:105b00006e00900091000700f54f500003003a002e
:105b100020c0b300304f9800190037000040eb0060
:105b2000304f9800160037006e0090001e01900064
:105b3000ae019000320098004300980011c0b300fd
:105b40006e00900081000700f54f500003003a00fe
:105b500020c0b300304f9800090037000040eb0030
:105b6000304f980006003700ae4890001e48900065
:105b700080cf500002003a000040eb00304f980008
:105b80003e489000e14f50009eff32007e009000a2
:105b9000be019000030878003e4890000080fb00a2
